S02B00002F686F6D652F73747564656E74732F6D726E61322F576172702D6669726D776172652F6275696C64B2
S1130000000600201D050000450500004505000010
S113001000000000000000000000000000000000DC
S11300200000000000000000000000004505000082
S11300300000000000000000450500004505000028
S11300404505000045050000450500004505000084
S11300504505000045050000450500009D0F000012
S11300604728000045050000512800004505000010
S11300705B2800004505000045050000450500001B
S11300804505000045050000450500004505000044
S1130090750F00008D0F00004505000045050000A8
S11300A04505000045050000450500004505000024
S11300B04505000045050000AD0F000045050000A2
S1130400FFFFFFFFFFFFFFFFFFFFFFFFFE3DFFFFBB
S11304100448054B10B5834203D0044B002B00D095
S1130420984710BD28FFFF1F28FFFF1F0000000092
S113043006480749091A8B10C90FC91810B5491085
S113044003D0044B002B00D0984710BD28FFFF1F9A
S113045028FFFF1F0000000010B5074C2378002B75
S113046009D1FFF7D5FF054B002B02D0044800E06B
S113047000BF0123237010BD28FFFF1F00000000F0
S1130480A0460000054B10B5002B03D004490548D5
S113049000E000BFFFF7CCFF10BDC0460000000025
S11304A02CFFFF1FA0460000402292029A1A924697
S11304B07047C046154B002B00D1114B9D46FFF7EA
S11304C0F3FF00218B460F461148124A121A00F01E
S11304D005F90C4B002B00D098470B4B002B00D098
S11304E098470020002104000D000B4800F02EF86E
S11304F000F06AF82000290000F0E6FD00F03AF868
S113050000000800000000000000000000060020B9
S113051028FFFF1FEC010020A105000072B6064869
S11305200649074A02600A6002F09CF902F0DCF90D
S113053062B6FFF7BFFF000080E100E080E200E068
S1130540FFFFFFFF004800474505000010B501000C
S113055000230022002000F01FFA10BD10B50A008D
S1130560002100F0BBF810BD014B18687047C0466D
S113057000FEFF1F084B10B50400002B02D0002121
S113058000F078FA054B1868836A002B00D098476E
S1130590200000F065FCC046750A0000DC44000041
S11305A070B5074D074C641BA41005D0013CA30093
S11305B0EB589847002CF9D104F078F870BDC04688
S11305C0C4460000C846000070B50C4D0C4E761BA6
S11305D0B61005D0002408CD01349847A642FAD1BC
S11305E004F05EF8074D084E761BB61005D00024C3
S11305F008CD01349847A642FAD170BDC046000028
S1130600C0460000C0460000C446000010B5034BBD
S11306100100186800F00CF910BDC04600FEFF1F71
S113062010B5034B0100186800F0ACF810BDC046CB
S113063000FEFF1FF0B5C64600B50F2A43D90B00D4
S1130640032603431E400C000300002E40D1150076
S1130650103D2D09AC462D01A846804400E03B0026
S1130660676825685F60E7681D60DF601F00A56834
S113067010379D6010344345F1D165460F230C2497
S113068001352D01491913404519144223D08C59C1
S1130690AC5104369C1B032CF9D80324043B9B085F
S11306A001339B002240ED18C918561E002A07D0BA
S11306B0002300E02300CA5C5C1CEA549E42F9D18A
S11306C004BC9046F0BD0500561E002AF0D1F7E7A1
S11306D0561E0500ECE71A00F6E7C046F0B5050023
S11306E083074AD0541E002A44D0CEB2030003220A
S11306F002E00135013C3DD301332E701342F8D1A1
S1130700032C2FD9FF220A40150215432A0415434E
S11307100F2C35D92700103F3F093E01B4461E0077
S11307201A0010366644156055609560D560103225
S1130730B242F8D10F260C2201373F012640DB19C3
S11307403700224217D03E1FB608B400A4461A0050
S11307501C1D644420C2A242FCD103240136B6000D
S11307609B193C40002C05D0C9B21C1919700133E7
S11307709C42FBD1F0BD3400F4E714000300BFE752
S11307802700E0E770B50500002915D00C1F236889
S1130790002B27DB280000F0CBF9244B1A68002A31
S11307A005D0A2420CD921686018824224D062602C
S11307B028001C6000F0BEF970BDA34203D81A00E3
S11307C05368002BF9D111685018A0421BD027D8C8
S11307D021686018834207D063605460280000F0E9
S11307E0A9F9E9E7E418D5E718685B688446614429
S11307F0216063605460F1E7106852688446614484
S113080021606260D4E7206809185018116083429F
S1130810E4D118685B688446614411605360DDE785
S11308200C2328002B6000F085F9C5E744FFFF1F67
S1130830F8B50323CD1C9D43083506000C2D2AD2A0
S11308400C25A94229D8300000F072F92A4F3A68E1
S1130850002A0AD013685B1B04D441E023685B1BA5
S11308601FD522005468002CF8D17B68002B3DD0A2
S11308702900300000F042F8431C2AD00323C41C92
S11308809C43A04205D0211A300000F037F8431CE5
S11308901FD0256010E0002DD3DA0C230020336034
S11308A0F8BD0B2B05D86368A2421DD0536003E04A
S11308B014002360E4182560300000F03BF92000A8
S11308C007220B30231D9043C21AE9D01B1AA350F0
S11308D0E6E70C233000336000F02CF90020DFE75A
S11308E00B2BE5D8140053683B60E5E7002130008A
S11308F000F004F87860BBE744FFFF1F002370B5E5
S1130900064C05000800236000F0ACFA431C00D03C
S113091070BD2368002BFBD02B60F9E7E8010020B1
S113092003000A7801311A700133002AF9D17047A3
S113093010B5830727D00378002B26D003000321AA
S113094002E01A78002A1CD001330B42F9D119684D
S11309500F4A104C8A188A4322420FD10433196873
S11309600B4A8A188A43224208D104331968084A78
S11309708A188A432242F1D000E001331A78002A0F
S1130980FBD1181A10BD0300E1E70020FAE7C046C6
S1130990FFFEFEFE80808080F0B546464F46D64678
S11309A0C0B51F002F4B82B01C6805000E00904696
S11309B0002C2DD063681F2B50DC002D1CD0882206
S11309C0A0589146002834D07832825894469A0030
S11309D091468144424649460A6001216246994053
S11309E00A43944680228A46614652008150494611
S11309F0803A8F50022D16D000205A1C02339B00DF
S1130A0062601E5102B01CBC90469946A246F0BDDD
S1130A10154C1C60154B002BCCD01B68019388230C
S1130A20019AE250C6E75546843281580D438550F9
S1130A30E2E70F4B002B11D084204000FFF7E6FDC6
S1130A4000280BD0802200235200835004328350AC
S1130A504B460022E05094466368B8E701204042C8
S1130A60D0E7C046D8FFFF1F4CFFFF1F0000000067
S1130A700D060000F0B5DE464E46454657462B4B64
S1130A8088469B46E0B51E6883B00190002E45D091
S1130A9088237568F7586C1E40D40135AD0078334F
S1130AA075199A460AE0002F05D03B00A200803356
S1130AB09B58434505D0043D013C2FD34346002BAE
S1130AC0F1D173682A68013BA34222D000232B6032
S1130AD0002AF0D073689946002F18D0012351469C
S1130AE0A3407958194212D0822040003858A100FE
S1130AF07958009018420ED1019890475B4672686D
S1130B001B684A4501D1B342D5D01E00BEE79047C9
S1130B10F4E77460DCE708009047EFE703B03CBCFF
S1130B2090469946A246AB46F0BDC046D8FFFF1F8B
S1130B307047C0467047C04602B471464908490030
S1130B40095C49008E4402BC7047C04603B4714638
S1130B50490840004900095E49008E4403BC7047BF
S1130B6003B47146490840004900095A49008E44BB
S1130B7003BC7047002243088B4274D303098B42A1
S1130B805FD3030A8B4244D3030B8B4228D3030C59
S1130B908B420DD3FF22090212BA030C8B4202D3FB
S1130BA01212090265D0030B8B4219D300E0090A23
S1130BB0C30B8B4201D3CB03C01A5241830B8B422C
S1130BC001D38B03C01A5241430B8B4201D34B0315
S1130BD0C01A5241030B8B4201D30B03C01A52417A
S1130BE0C30A8B4201D3CB02C01A5241830A8B42FF
S1130BF001D38B02C01A5241430A8B4201D34B02E8
S1130C00C01A5241030A8B4201D30B02C01A52414B
S1130C10CDD2C3098B4201D3CB01C01A52418309FF
S1130C208B4201D38B01C01A524143098B4201D339
S1130C304B01C01A524103098B4201D30B01C01A64
S1130C405241C3088B4201D3CB00C01A52418308DE
S1130C508B4201D38B00C01A524143088B4201D30B
S1130C604B00C01A5241411A00D20146524110466B
S1130C707047FFE701B5002000F0F0F802BDC04660
S1130C800029F7D076E7704703460B437FD4002250
S1130C9043088B4274D303098B425FD3030A8B420C
S1130CA044D3030B8B4228D3030C8B420DD3FF2276
S1130CB0090212BA030C8B4202D31212090265D044
S1130CC0030B8B4219D300E0090AC30B8B4201D3F7
S1130CD0CB03C01A5241830B8B4201D38B03C01A3E
S1130CE05241430B8B4201D34B03C01A5241030BB5
S1130CF08B4201D30B03C01A5241C30A8B4201D366
S1130D00CB02C01A5241830A8B4201D38B02C01A10
S1130D105241430A8B4201D34B02C01A5241030A87
S1130D208B4201D30B02C01A5241CDD2C3098B426C
S1130D3001D3CB01C01A524183098B4201D38B01E9
S1130D40C01A524143098B4201D34B01C01A52418C
S1130D5003098B4201D30B01C01A5241C3088B42D1
S1130D6001D3CB00C01A524183088B4201D38B00BC
S1130D70C01A524143088B4201D34B00C01A52415E
S1130D80411A00D201465241104670475DE0CA0F35
S1130D9000D04942031000D34042534000229C46F5
S1130DA003098B422DD3030A8B4212D3FC228901FF
S1130DB012BA030A8B420CD3890192118B4208D3D5
S1130DC0890192118B4204D389013AD0921100E037
S1130DD08909C3098B4201D3CB01C01A524183094B
S1130DE08B4201D38B01C01A524143098B4201D378
S1130DF04B01C01A524103098B4201D30B01C01AA3
S1130E005241C3088B4201D3CB00C01A524183081C
S1130E108B4201D38B00C01A5241D9D243088B4272
S1130E2001D34B00C01A5241411A00D20146634615
S1130E3052415B10104601D34042002B00D5494279
S1130E40704763465B1000D3404201B5002000F0B8
S1130E5005F802BD0029F8D016E770477047C04670
S1130E60FEE7C0460A4A0300116810B5002901D103
S1130E700849116010680849C3188B4206D9FFF766
S1130E8073FB0C2303600120404210BD1360FCE798
S1130E90DCFFFF1FF0010020F00100208378022016
S1130EA09842804140427047437A0020013B012B25
S1130EB003D90B78013001330B707047C023174AF4
S1130EC09B001360164A1360164A13600023164AE7
S1130ED01360164A1360164A1360164A1360164AC2
S1130EE01360164A1360164A1360164A1360164AB2
S1130EF01360164A1360164A1360164A1360164AA2
S1130F001360164A1360164A1360164A1360164A91
S1130F101360164A1360164A136070470090145405
S1130F2004901454089014540C90145410901454B5
S1130F3014901454189014541C9014542090145465
S1130F40249014543090145400A0145404A0145445
S1130F5008A014540CA0145410A0145414A0145435
S1130F6018A014541CA0145428A014542CA01454D5
S1130F7034A0145410B5002002F0C2FE002803D09F
S1130F800021080002F0B0FE10BD0000024A136800
S1130F90013313607047C0462C00002010B50721B0
S1130FA0014802F079FB10BD00C007400122024B4A
S1130FB052421A607047C046A090044037B50020E2
S1130FC001F00AFFC02300240D4A9B0013600D4A60
S1130FD00D4D13600D4A200013600D4B2C716C7184
S1130FE0AC711A68FA239B0053430A492B6002F040
S1130FF0D5FE2900200001AA02F036FF37BDC04605
S1131000189014541C9014546000002000A0145430
S113101074FEFF1F3000002010B58024002002F071
S1131020FFFE0A4B64001C60094B07201C60094B3F
S11310301C6002F061F9062002F05EF9200002F063
S11310405BF9002001F0CDFE10BDC0461890145489
S11310501C90145400A014540FB41FB506AB02CB5B
S113106000200393402303AA0093064B01F0B4FA33
S1131070002803DA0020044901F0E2F905B008BCB5
S113108004B01847E9FFFF1FE945000010B500242C
S11310908EB06B4601220020D91C01F073F90028A0
S11310A006D06B46DB780A2B02D001AA1355013413
S11310B06B46DB780A2BECD1024801A9FFF7CCFF81
S11310C00EB010BDE0440000F0B5A7B015AC072287
S11310D000212000FFF702FB804A01251A92032217
S11310E005AB1D9307AB1E9309AB20930DAB229365
S11310F00FAB239311AB249313AB0BAE03A90020C6
S113110025931AAB1A711C91049325701F94219690
S113111001F05AFE280001F057FE8022704B1202A3
S11311201A6001F0BFFC002300951A001900180092
S113113001F092F96B48FFF78FFFFA20800001F06D
S113114092FC6948FFF788FFFA20800001F08BFCCD
S11311506648FFF781FFFA20800001F084FC644AAE
S11311602B000221634801F0C1FC2900280001F092
S1131170C9FC002002F002FD5F4B642117936B460B
S113118000275B181F806B4602315B18380017A9D3
S11311901F70189502F01EFD2A00390003A8FFF7FE
S11311A09DFA69462A20159B0993A2880A85A2798B
S11311B009180A7069460322063809180A700B9345
S11311C0A2886946B280A2790238B27105223270CF
S11311D002260593A2880A83A2790E758A7607935C
S11311E0A2880A84A27909180A70694604220A7737
S11311F00D93A28818300A87A27909180A706A46E2
S113120034215118082240200A7069460F93A2889D
S113121009180A806946A279801909180A70684673
S11312203C2209218018017068461193A3880C326E
S113123080180380A37968464A240019037068461D
S11312400A23063C001903704C206B461B1804AAA1
S11312501F701DA82B0001F00DFE2848FFF7FCFEAF
S11312603900300000F08AF808229043C0B2B84236
S113127002D02348FFF7F0FE2248FFF7EDFE224894
S1131280FFF7EAFE2149224802F00EF8214C200023
S1131290FFF7E2FEC023204A9B0013601F4A204848
S11312A01360204A1360FFF7D7FEFFF707FE200004
S11312B0FFF7D2FEE1211D20C90000F0E7F801226A
S11312C0194B1A481A70FFF7C7FE00F00BF91848BB
S11312D000F060FFFFF7DAFEFCE7C046A90E00004D
S11312E0DC010020E3440000FE440000044500004B
S11312F064FEFF1F10FFFF1FE00701000D45000003
S113130032450000664500006E45000080FEFF1F68
S113131078FEFF1FB145000000901454049014544B
S11313208B45000008901454E8FFFF1FAC450000F3
S1131330B84500001FB5040001A9002002F072FCAA
S1131340694601A802F0ACFB009B68461C1901A980
S1131350009402F02DFB012201A9002002F08EFC72
S11313601FBD00000022034B1A608022024BD205ED
S1131370DA67704700901C5804E100E070B50D0076
S11313800A2408281CD8FFF7D7FB051D2A3F5467F9
S113139071795C0001F004FF0524012810D0FFF7E7
S11313A0E1FF2800FFF7C6FF0021080001F084FDDB
S11313B001210400002001F0A5FB002C22D100240F
S11313C0200070BD01F0ECFE06240128F8D0FFF7E0
S11313D0C9FF2800FFF7AEFF00210120E6E701F076
S11313E0DFFE08240128EBD001F00AFC002803D01A
S11313F00121002001F086FB0021022001F05CFDA8
S11314000028DCD00924DBE701F0CAFE0724002809
S1131410D6D0FFF7A7FF2800FFF78CFF0021032099
S113142001F04AFD040001F0BBFE01210028C4D1F3
S1131430C1E7FFF797FF2800FFF77CFF0021042096
S1131440EEE70021082001F037FD041EDAD1012166
S1131450080001F057FBB3E7FFF784FF2800FFF70C
S113146069FF0021052001F027FDCBE7FFF77AFF94
S11314702800FFF75FFF00210620F4E7FFF772FF63
S11314802800FFF757FF00210720ECE7014B5870B5
S1131490D9807047E0FFFF1F37B585256D00040034
S11314A0280001F01BFF0A2001F0DDFA280001F0FA
S11314B023FF0C2001F020FFFA23084A9B0014703C
S11314C000210193012308000093054B02F028FD3D
S11314D00400280001F002FF20003EBD6900002046
S11314E068000020C023554A9B0010B51360544A7D
S11314F002241360FFF762FD8023524A5B001360ED
S1131500514AFF341360514A2000136001F0E6FE93
S1131510642001F0A8FA200001F0EEFE642001F03E
S1131520A2FA200001F0DAFE642001F09CFAAE2059
S1131530FFF7B2FFA020FFF7AFFF7220FFF7ACFF69
S1131540A120FFF7A9FF0020FFF7A6FFA220FFF7C5
S1131550A3FF0020FFF7A0FFA420FFF79DFFA82012
S1131560FFF79AFF3F20FFF797FFAD20FFF794FFA7
S11315708E20FFF791FFB020FFF78EFF0B20FFF7BF
S11315808BFFB120FFF788FF3120FFF785FFB320E1
S1131590FFF782FFF020FFF77FFF8A20FFF77CFF31
S11315A06420FFF779FF8B20FFF776FF7820FFF7A1
S11315B073FF8A20FFF770FF6420FFF76DFFBB20E5
S11315C0FFF76AFF3A20FFF767FFBE20FFF764FFCB
S11315D03E20FFF761FF8720FFF75EFF0620FFF73D
S11315E05BFF8120FFF758FF9120FFF755FF822012
S11315F0FFF752FF5020FFF74FFF8320FFF74CFF08
S11316007D20FFF749FFAF20FFF746FF2620FFF7B5
S113161043FF0120FFF740FF2520FFF73DFF002097
S1131620FFF73AFF0020FFF737FF5F20FFF734FF93
S11316303F20FFF731FF002010BDC0462090145416
S11316402490145428A014543090145404A0145416
S11316507FB503AE308002AD212029800192FFF7CF
S11316601BFF7078FFF718FF3078FFF715FF6878D5
S113167001ACFFF711FF2878FFF70EFF2078FFF782
S11316800BFF6078FFF708FFA078FFF705FF7FBD29
S1131690F7B50D000400170022200193E4B2FFF710
S11316A0FBFE2800FFF7F8FE65193800FFF7F4FE8B
S11316B0E419E8B201AEFFF7EFFEE0B2FFF7ECFE8B
S11316C03078FFF7E9FE7078FFF7E6FEB078FFF7B1
S11316D0E3FE0D20FFF7E0FE0D20FFF7DDFE0D20F9
S11316E0FFF7DAFEF7BD37B56C46617022705928F2
S11316F021D004D82D280AD02F2813D037BD7C2818
S1131700FCD1013B01A8D3184170037004E0013BF4
S113171001A8CB1843700270069A01990098FFF74C
S113172097FFEBE7DCB2631E141B01A8CB1801344E
S113173043700470F0E7013BD8B201AD09181218E8
S113174069702A70E8E7F0B53A3885B00D001400E6
S11317500393402800D934E1FFF702FA0C05330162
S11317603301330133013301330141007C00C500EF
S1131770E800350159017801B601CF01E4010A02FC
S11317802E0238026502A102D002F7024103880347
S1131790C503DB03FC0332046C04B604EC0433011C
S11317A03301330133013301330141007C00C500AF
S11317B0E800350159017801B601CF01E4010A02BC
S11317C02E0238026502A102D002F7024103880307
S11317D0C503DB03FC0332046C04B604EC046B465F
S11317E003AE971C3288FFB21A80B2787C209A70BC
S11317F005233A00FFF777FF6B463288291D1A80CC
S1131800B2787C209A70C9B205233A00FFF76BFFC7
S11318106B463188E21C1980B1782D209970D2B2C0
S113182029000523FFF75FFF6B46328829001A80E1
S1131830B2782F209A7003233A00FFF754FF6B46C7
S1131840328802351A80B278E9B29A7003232200F2
S11318505920B4E06B4603AE32887C201A80B278FB
S11318606F1C9A7007232200FFF73DFF6B463288F6
S1131870FFB21A80B27839009A702D200323220017
S1131880FFF731FF6B463188E21C1980B1782D20B7
S11318909970D2B203233900FFF725FF6B463188D4
S11318A0A21D1980B1782D209970D2B2032339007A
S11318B0FFF719FF6B46318804351980B178EDB212
S11318C099707C2002232900621CD2B2FFF70BFF1F
S11318D06B463188221D1980B178D2B299700223E7
S11318E029007C206BE06B4603AE318801321980FD
S11318F0B1787C209970D2B229000523FFF7F3FE5A
S11319006B46328801351A80B278EDB29A7029009C
S1131910220004232D20FFF7E6FE06346B463188AF
S1131920E2B21980B1789970042346E06B4603AEA5
S113193032887C201A80B278A71D9A700623220070
S1131940FFF7D1FEAB1CDBB202936B463288592001
S11319501A80B278FFB29A70029903232200FFF72B
S1131960C2FE6B4632882F201A80B2789A70029990
S113197003233A00FFF7B7FE6B463088291D188011
S1131980B078A21C9870D2B202237C20C9B2FFF7AF
S1131990AAFE6B46328801351A80B278EDB29A708D
S11319A02900012322002D20FFF79DFE6B4632887B
S11319B01A80B2789A7001233A0029002D20FFF78B
S11319C092FE05B0F0BD6B4603AE32887C201A80CF
S11319D0B2789A7006232200FFF785FE6B463288A0
S11319E029001A80B2782D209A7005232200FFF76F
S11319F07AFE6B463188E21C1980B178D2B29970B4
S1131A00052329002D20FFF76EFE063416E06B46F1
S1131A1003AE32887C201A80B2789A7022000723A1
S1131A20FFF761FE6B46328829001A80B2782D20B8
S1131A309A7022000523FFF756FE03346B46318863
S1131A40E2B21980B17899700523B6E76B4603AE0C
S1131A50318801321980B1787C209970D2B2052383
S1131A602900FFF740FE6B4632886F1C1A80B2785B
S1131A70FFB29A703900220004232D20FFF733FEB1
S1131A806B463188A21D1980B1782D209970D2B28D
S1131A9004233900FFF727FE6B463088221D188087
S1131AA0B078E91C9870D2B2C9B202232D20FFF796
S1131AB01AFE0534291DE2B2C9B26B46308818807B
S1131AC0B078987001230CE76B4603AE32887C2013
S1131AD01A80B2789A7022000723FFF704FE6B463F
S1131AE03288291D1A80B2787C209A70C9B22200EB
S1131AF00723FFF7F8FD033410E76B4603AE328883
S1131B0002311A80B2787C209A70C9B2072322006D
S1131B10FFF7E9FD6B4632881A80B2789A70052384
S1131B2022006EE76B4603AE32884F1C1A80B278EF
S1131B30FFB29A703900042322002D20FFF7D3FD51
S1131B406B463088621C1880B078E91C9870D2B259
S1131B5005237C20C9B2FFF7C6FD6B463188A21D60
S1131B601980B1782D209970D2B202233900ADE6E4
S1131B706B4603AE32887C201A80B27801359A70A5
S1131B8022000723FFF7AFFD6B46328803341A8027
S1131B90B278E4B2EDB29A702900042322005920ED
S1131BA0FFF7A1FD6B4632881A80B2789A7004233D
S1131BB0220029002F2002E76B4603AE32887C20E6
S1131BC01A80B2789A70072322001CE76B4603AE92
S1131BD032887C201A80B2789A7007232200FFF79B
S1131BE082FD6B46328829001A80B27859209A7097
S1131BF003232200FFF777FD6B463088A21C188070
S1131C00B078A91C9870D2B20323C9B22F20FFF771
S1131C106AFD6B463288291D1A80B278C9B29A705F
S1131C20072322005DE66B4603AE32887C201A80CF
S1131C30B2786F1C9A7022000723FFF754FD6B469D
S1131C403288291D1A80B2787C209A70C9B2220089
S1131C500723FFF748FD6B463188621C1980B17871
S1131C60FFB299702D2001233900D2B2FFF73BFD5A
S1131C706B463088621D1880B07803359870D2B2F4
S1131C800123E9B22D20FFF72EFD6B463188023483
S1131C901980B178E2B2997003233900D8E56B4614
S1131CA003AE571C3288FFB21A80B2787C209A7037
S1131CB005233A00FFF717FD6B463288291D1A8069
S1131CC0B2787C209A70C9B205233A00FFF70BFD65
S1131CD06B46328801351A80B278EDB29A702900C9
S1131CE0220003232D20FFF7FEFC06346B463188C7
S1131CF0E2B21980B178997003235EE66B4603AEB5
S1131D0032887C201A80B2789A7022000723FFF769
S1131D10EAFC6B463088621C1880B078291D9870E4
S1131D20D2B202237C20C9B2FFF7DDFC6B463288B5
S1131D3001351A80B278EDB29A702900220003238B
S1131D402D20FFF7D0FC0334D0E76B4603AE571CBD
S1131D503288FFB21A80B2787C209A703A0003234A
S1131D60FFF7C1FC6B463288291D1A80B2787C20AB
S1131D709A70C9B23A000323FFF7B5FC6B46328868
S1131D806F1C1A80B278FFB29A70390022000323C4
S1131D902D20FFF7A8FC6B463188221D1980B178ED
S1131DA02D209970D2B203233900FFF79CFC6B46B7
S1131DB03088621D1880B078A91C9870D2B20223B2
S1131DC07C20C9B2FFF78FFC6B463088063418803C
S1131DD0B07803359870E2B20223E9B2EEE56B46BF
S1131DE003AE32887C201A80B2786F1C9A70072365
S1131DF02200FFF778FC6B463088291D1880B078E4
S1131E00621C9870D2B202237C20C9B2FFF76BFC2B
S1131E106B463288FFB21A80B27839009A702D204E
S1131E2003232200FFF75FFC6B463188E21C198014
S1131E30B1782D209970D2B203233900FFF753FCF7
S1131E406B463088A21D1880B07803359870D2B2E2
S1131E500223E9B22D20FFF746FC6B463188221D90
S1131E601980B178D2B29970022316E76B4603AE9B
S1131E7032884F1C1A80B278FFB29A70390004235A
S1131E8022002D20FFF72FFC6B463188E21C1980BD
S1131E90B1782D209970D2B203233900FFF723FCC7
S1131EA06B463188A21D1980B1782D209970D2B269
S1131EB004232900FFF717FC6B463188621C198044
S1131EC0B1787C209970D2B202232900FFF70BFC71
S1131ED06B463088221D1880B078291D9870D2B2C4
S1131EE00223C9B2FDE46B4603AE32882D201A806A
S1131EF0B27802359A7022000523FFF7F4FB6B4693
S1131F00308801341880B078E2B29870E9B20623C0
S1131F10E7E46B4603AE32887C201A80B2789A706C
S1131F2006232200FFF7DFFB6B463088A21D1880D2
S1131F30B078691C9870D2B20323C9B22D20FFF780
S1131F40D2FB6B463288291D1A80B278C9B29A70C6
S1131F50062366E66B4603AE32887C201A80B2788C
S1131F60E71C9A7022000323FFF7BDFB6B463288FF
S1131F70291D1A80B2787C209A70C9B222000323EA
S1131F80FFF7B1FB6B463288FFB21A80B278691C46
S1131F909A707C2003233A00C9B2FFF7A4FB6B4676
S1131FA03288E91C1A80B278C9B29A707C203A004F
S1131FB0032306340235FFF796FBE2B2E9B27CE56F
S1131FC06B4603AE32887C201A80B2789A70220065
S1131FD00623FFF788FB6B463288A91C1A80B27867
S1131FE07C209A70C9B222000623FFF77CFB6B4663
S1131FF03288291D1A80B2787C209A70C9B22200D6
S11320000623FFF770FB6B46328806341A80B278D9
S1132010691CE4B29A70C9B2012322007C20033502
S1132020FFF761FBE9B26B4632881A80B2789A7086
S11320300123F6E56B4603AE32887C201A80B27821
S11320402F1D9A7022000223FFF74DFB6B46328846
S1132050FFB21A80B27839009A707C2022000223E1
S1132060FFF741FB631DDBB202936B463288290004
S11320701A80B2787C209A70029A0223FFF733FB0D
S11320806B46328839001A80B2787C209A70029AA2
S11320900223FFF728FB6B46318801351980B1789C
S11320A0EDB2221D9970D2B2032329002F20FFF72D
S11320B01AFB6B46318802341980B178E2B2997008
S11320C003232900FFF7C4FB6B4603AE31880132BA
S11320D01980B17859209970D2B203232900FFF7EF
S11320E002FBAB1CDBB202936B463288E71C1A80FE
S11320F0B278FFB29A702F2003233A000299FFF7B7
S1132100F2FA6B4632887C201A80B2789A7002996F
S113211004233A00FFF7E7FA6B46328829001A8055
S1132120B2787C209A7001232200FFF7DCFA291D83
S1132130C9B278E76B4603AE32882D201A80B27894
S11321409A7022000523FFF7CEFA6B463188A21D50
S11321501980B178D2B299702D2005232900FFF798
S1132160C2FA6B46318805341980B178E2B29970AD
S113217005231EE50135EDB22900039B0320FFF77B
S113218087FA221D29000320039BD2B2FFF780FAAD
S1132190FFF717FC0123F0B5012585B05B4203AFBF
S11321A001903B80BB700026FEF708FF2C000198CD
S11321B0FEF7BEFBB04203D8FEF72EFF05B0F0BD1C
S11321C0019B985D202803D10634E4B20136EEE782
S11321D05B2C02D901240835EDB22A0021003B68AA
S11321E0FFF7B1FAF0E70369C268934201D8806847
S11321F01B18013B981A7047F7B58368C4680193AC
S11322001F1B436805000E001819A418974207D82D
S11322103A00FEF70FFA019B6868E41A2200F119EC
S1132220FEF708FAEC60F7BD0023F7B506001700C7
S1132230C568019100933369B4689D421FD2013B84
S11322405B1B641BBC4200D93C009C4200D91C00AF
S11322507368220058190199FEF7ECF9009B2D19B7
S11322601B190093019B3F1B1B190193B368AB42DD
S113227000D10025F560002FDDD10098FEBD1B19AB
S1132280DDE70000022310B50F4C104A236163619F
S11322900F4BA261E3616423A2640E4A2362E264E9
S11322A000230422A3626362E362A3656365E365BA
S11322B022650949E01DFEF733FB20000749FEF7BC
S11322C02FFB2023A37110BD6C0000200F460000DB
S11322D0E8000020E4000020184600001C4600002E
S11322E0F0B5274B85B01B780E0002900192002BAD
S11322F001D1FFF7C7FF1823029A00255343204A50
S1132300D3185A6D9C6D0392944219D91B6D019D8B
S11323101B1B9D4200D91D001827029B30005F4300
S1132320174B2A00DF19FB6C76191919FEF782F98D
S1132330019B64195B1B01933B6DA34200D10024F4
S1132340039B019F1B1B9F4200D91F00002F0CD031
S11323501823029A30005343094AED19D318D96C53
S11323603A000919FEF766F9E419002D05D018237F
S1132370029A03485343C0188465280005B0F0BD91
S11323806C00002010B50B00EFF31084012181F3E1
S113239010881900FFF7A4FF84F3108810BD000013
S11323A0F8B516001822451C55434243164B0F003E
S11323B05D199B18DC6A012C10D0022C1BD0002C58
S11323C01FD12800FFF70FFF864205D832003900DD
S11323D02800FFF711FF34002000F8BD2800FFF7A4
S11323E002FF3400864200D904002200390028008C
S11323F0FFF702FFF0E732002800FFF715FF0400A3
S1132400EAE70024E8E7C0466C000020F8B50B4B6F
S113241004001B780E001700002B01D1FFF732FFD8
S1132420EFF31085012181F310883A003100200078
S1132430FFF7B6FF85F31088F8BDC0466C00002096
S113244070B5050008000C00FEF772FA21000200C6
S11324502800FFF7DBFF70BDF7B5164C0193237816
S113246005000F001600002B01D1FFF70BFF2369B5
S1132470AB421CD9EFF31082012181F31088002DA7
S11324800CD01823691C59436B43675061184E6084
S11324900199E31819620021996259621820454391
S11324A0089B6419E36282F310880020FEBD0120BA
S11324B04042FBE76C000020826810B504004068CD
S11324C0531C834205D820688154A360E368013318
S11324D0E360A26863689A4209D121682069FFF722
S11324E095FFA368984203D001235B42E36010BDCB
S11324F00023A360FBE70000F0B505001700080007
S1132500012685B00A9C02910093B84219D2009A20
S11325100196964200D2019201230B9A1A4003922B
S11325200B9A1A4202D1002C10D10024EB68012628
S1132530002B4BDB009B012B1FD9013B00937E43F7
S1132540F8E73900FEF716FB0136DEE70B9B202681
S11325509B0704D5009B1036002B00D0103E019B36
S1132560A342E3D231002800FFF7A6FFEB68013C49
S1132570002BDBDB002CF2D1D7E731000298FEF709
S1132580F9FA8742DBD902983100FEF779FB114B47
S11325900291195C2800FFF78FFFEB68002B05DB25
S11325A039003000FEF7E6FABE4211D2039B002B3D
S11325B00CD0002C0AD0019BA34207D22021280072
S11325C0FFF77AFFEB68013C002BF2DA05B0F0BDAF
S11325D00600D8E723460000F0B58FB007900E0040
S11325E01800149915000693FDF7B8FF069B079A87
S11325F00993149B0D920A9300230B930C93317847
S11326000136002907D10C9B0293002B00DD09E160
S11326100C980FB0F0BD252900D0B3E000270822A4
S1132620042006E0302B0DD1022300E001231F43D8
S11326300E003378711C2D2BF8D0F3D8232B10D037
S11326402B2B0CD000240A213378721C180030384C
S1132650092808D84C43303C16001C19F4E70743FA
S1132660E6E71743E4E7002102912E2B0ED1160072
S11326700A203278711C1300303B092B06D8029BC8
S11326800E004343303BD3180293F2E7042331781E
S11326900A0001369A43682A01D13178F8E778298B
S11326A009D86F290BD8632967D017D8252969D091
S11326B0582900D195E00C9B002BA0DAA3E77039D0
S11326C008000829F7D8FEF741FAA500F6FFF6FF3F
S11326D09400F6FF8300F6FFF6FF8C006429EAD12C
S11326E02B681A1D1B682A60DA17981803930123B4
S11326F050400493092849DC029B049A05939342B1
S113270000D20592002C05D0039B002B01DB7B0734
S113271000D5013C02231F4202D0029B002B05D0AE
S113272001231F4202D1002C36D100240C9B0493B8
S1132730002BC0DB039B002B3ADA2D215B42039371
S113274009A8FFF7B9FE0C9B002BB4DB03233B4025
S1132750022B05D1029B002B02D1002C2CD100248A
S11327600C9B0493002BA6DB0A22029B039901977E
S1132770009409A8FFF7C0FE9DE72B6819681A1D8D
S11327802A60C9B209A8FFF797FE94E70A21FEF769
S11327907BFA049B0133ACE7059BA342C6D22021FC
S11327A009A8FFF789FE0C9B013C002BBBDABDE7AF
S11327B07B07C8D52B21C3E7059BA342D0D2302188
S11327C009A8FFF779FE0C9B013C002BC5DAC7E78B
S11327D00A22296801970B1D2B60029B009409684B
S11327E0C7E7296801970B1D2B60029B00941022F8
S11327F0F5E72B681A1D2A601C682178013400292A
S113280000D158E709A8FFF757FE0C9B0293002B51
S1132810F3DA50E729680B1D2B600023019308337A
S11328200093E4E70B9A002A03D006990798FFF770
S1132830EDFD0C9B02930B9B0393039A029B94461E
S113284063440C93E4E610B5002000F063FD10BD72
S113285010B5002001F070FA10BD10B5002000F092
S113286067FF10BD082310B5164A9178194202D0AB
S113287091780B439370882100222220124B490146
S11328805A501249124C0870802012494002585084
S11328901968114801401960195910480840C021AD
S11328A089040143195180210D4B1A7219767F391D
S11328B01A7059700B490A700C3299791142FCD183
S11328C010BDC04600D007400070044000E007403F
S11328D00410000044100000FFFFF3FFFFFFFFF0AF
S11328E000400640005006401249134810B581428A
S11328F005D00022114B9B089B009A420FD1104B2C
S1132900104A9960002310491048521A9A420AD179
S113291000210F4B0F4AD21A013A08D210BD845835
S11329208C500432E9E7CC5CC4540133EEE71970EF
S11329300133F1E700000000000000000000000087
S113294000ED00E0F0470000C846000000FEFF1F55
S113295028FFFF1FEC0100200300417000201870C5
S113296058609860704710B5437804000120FF2B2D
S113297008D000F047FA63780133DBB2637000F0EB
S113298035FA002010BD0020704770B504000D001A
S113299000F038FAE1682943E16000F027FA0020EA
S11329A070BD000000220A4B9A641A0040329A63F8
S11329B01A0030329A621A0020329A611A001032D8
S11329C09A60044A1360044B9B60DB607047C04606
S11329D0500100204C010020A00100200022024BE5
S11329E01A60186880B270470C007C5070B5437848
S11329F004000D00002B0BD0002500F003FA6378CF
S1132A00013BDBB26370257000F0F0F9280070BD63
S1132A1002200029FBD02378002B17D0FFF7DEFF1C
S1132A206368A268834204D8C01A824206D3032092
S1132A30EDE7C01A80235B02C018F6E700F0E2F964
S1132A400023237000F0D2F90220E0E74B1CEED003
S1132A5000F0D8F90123237000F0C8F9FFF7BEFF96
S1132A60A5606060E3E770B50500FFF7B7FF802657
S1132A7004007602FFF7B2FF0300844203D8031B6D
S1132A809D42F7D270BD301BC318F9E710B5012879
S1132A9001D100F0B7F910BD10B5012801D100F043
S1132AA0A5F910BD10B5FFF77DFF01230020084AEA
S1132AB008491360084A094C106008600421216029
S1132AC0074C216007490B6007490860136010BD7B
S1132AD03880045000008450000004500000045169
S1132AE00400045104000C500000045310B5044CBD
S1132AF0206021710020A2602373637310BDC0465F
S1132B00B00100200422F0B587B005AC3B4E019023
S1132B1002912070617033790092834226D9002299
S1132B20337B1500737301230092A3700393334F17
S1132B303B7BAB421DD8009B002B02D0029B012B98
S1132B4048D10120FFF7A2FF0C20019B0025584328
S1132B503368181800F0C2F8019B01207371022633
S1132B60FFF79AFFA6703B7BAB421AD8009807B0D8
S1132B70F0BDBA68AB009B58002B0FD01A790399AB
S1132B800A420BD020001A6899689047002805D0A3
S1132B90029B7D73002B1BD0052300930135EDB2FE
S1132BA0C5E7BA68AB009B58002B0ED01A793242A5
S1132BB00BD020001A6899689047002805D0029B22
S1132BC07D73002B17D0062300930135EDB2CAE7BD
S1132BD0052300930023A370013DEDB2FF2DC5D062
S1132BE0064BAA009B68D358002BF5D020001A6826
S1132BF099689047F0E706230093B7E7B0010020F7
S1132C00014B58797047C046B001002013B5040049
S1132C10002021780190022920D0032922D0012903
S1132C2025D1227901AB144800F056FE002814D1B6
S1132C30A3795A1E9341114ADB01137063785A1E1B
S1132C4093410F4A5B001370A2780E4B1A70E2781E
S1132C500D4B1A7062790D4B1A7016BD0100227962
S1132C6001ABE0E701A9044800F078FEDEE701A922
S1132C70014800F015FED9E700400640184086538D
S1132C80004086500040065001400650184016503F
S1132C90074A43099B009B18F822C00512051040FF
S1132CA0184380235B051843002303607047C04624
S1132CB028800440F821084A43099B009B18090511
S1132CC0C2050A4013438022520513431F221040B9
S1132CD01E3A82401A60704728800440072373B567
S1132CE0009300230400104D1A000121280001F074
S1132CF015F82000FFF78AFF637A28000093002369
S1132D00217A1A0001F00AF8E379084A9B04136057
S1132D10074BA17A1D68280000F03CFE2800E17AE8
S1132D2000F03FFE002076BD0070044000700C5996
S1132D308846000010B5054800F072FD044B196880
S1132D40C9B20131FDF716FF10BDC0460040064070
S1132D5044801C5E10B5FFF7EDFF10BD10B50548AB
S1132D6000F05EFD044B1968C9B20131FDF702FFA2
S1132D7010BDC046004006404480145810B5FFF70B
S1132D80EDFF10BD0B4B1B68DBB2022B0CD0032BE9
S1132D900DD00020834206D1074A10688022120217
S1132DA0904200D018007047044B1868FBE7FA20E3
S1132DB08000F8E700700C59DC010020E0010020DD
S1132DC010B5FFF7DFFF10BD10B5024B185CFFF71D
S1132DD071FF10BD3346000010B57620FFF76AFF7F
S1132DE010BD10B57620FFF753FF10BD044A1368D9
S1132DF0002B04D0013B1360002B00D162B6704756
S1132E00C001002072B6024A136801331360704790
S1132E10C001002010B5064C064801F011FA042840
S1132E2001D1002010BD013C002CF5D10320F9E7AD
S1132E30EA03000000E0074010B50B4B0B490A7889
S1132E40002A07D0084C0A4801F0FAF9012806D1F3
S1132E50002003E0013B002BF1D1032010BD013C15
S1132E60002CF0D1F9E7C046EA03000002D0075174
S1132E7000E00740F7B507000E001500012001939C
S1132E80002F15D0002913D0FFF700FE094C1022A3
S1132E9000212000FDF722FC27602671002D03D0BD
S1132EA0019BA560237363730120FFF7F5FD0020E8
S1132EB0FEBDC046C4010020F0B5B14C8DB00290F7
S1132EC00391237B01206373FFF7E0FD2379029ACA
S1132ED0934206D80120FFF7DFFD022738000DB02A
S1132EE0F0BD029A23689200D35809AC1D7801936F
S1132EF0039B2A002372029B2370019B63600223BD
S1132F009A430492012A01D0052D0AD101219D483A
S1132F1001F0EAF8002807D10120FFF7BDFD0127E1
S1132F20DCE70321072DF2D80123002763723C005C
S1132F300593934E337BA3422AD80120FFF7ACFDBF
S1132F40914800F091FC049B012B4AD101380228DE
S1132F5035D9039B012B00D00DE106270120FFF793
S1132F6095FD0023012609AD6B72013CE4B2FF2CF0
S1132F7000D1AFE0824BA2009B68D358002BF4D061
S1132F801A793242F1D028001A6899689047ECE720
S1132F90B268A3009B58002B0ED01A7905990A42F7
S1132FA00AD01A68996809A89047002804D0039B9E
S1132FB004277473012BC0D10134E4B2B9E7FFF7DD
S1132FC0DDFE724B9842C4D8FFF7B4FE704EB04297
S1132FD0BFD8FFF7C3FEB042BBD8FFF7BBFEB04279
S1132FE0B7D8039B012B00D0C1E00A2D00D9BCE067
S1132FF02800FDF7A1FD060A0D1E879A7B822F7318
S11330007800002207AB1A702DE0032207ABFAE721
S11330105C4801F015F9012808D00021594801F055
S113302073F8FFF709FF071E00D057E7012207AB2B
S1133030E9E7544801F004F9042808D00221514872
S113304001F062F8FFF7E6FE071E00D046E704220F
S113305007ABD8E7072207AB1A80019AD2789A7097
S1133060019A1279DA702B00083B022B06D8019BD7
S113307006AA5B799372019B9B79D372019B5B785F
S1133080002B0AD0012D08D9019B02229978414BCB
S113309000294DD019690A431A613A4807A901F079
S11330A057F8002800D00327002D45D1FFF7C4FEB0
S11330B0071E00D012E700270120FFF7E7FC029B60
S11330C02F4D0024AB73022309AE737201932B7B43
S11330D0A34236D80120FFF7DFFCFFE6082207AB46
S11330E0FF321A80BFE72C4A07ABFAE7022207AB8C
S11330F01A700222FF329A80B5E7022207AB1A70D7
S1133100264AF8E7022207AB1A70013A1D489A8052
S113311001F096F80128A6D000211A4800F0F4FF27
S1133120FFF78AFE071E9ED0D8E6052207AB6AE7A2
S1133130196991431961B0E7012DBDD1FFF76AFE0A
S1133140B6E7AA68A3009B58002B0BD01A79019903
S11331500A4207D030001A6899689047002801D0C5
S113316005276C730134E4B2B1E70327B6E6002FF8
S113317000D13AE7F2E6002F00D0EFE6EDE6C046D4
S1133180C401002000E007400040064040420F0018
S113319080841E0000ED00E007030000010200002F
S11331A010B5064801F04CF803000020012B03D0B1
S11331B00B30042B00D10A3810BDC04600E0074094
S11331C0F7B5FF2403681D4A1E0A26401C40B300BD
S11331D09F581B4A05009B5830000193FFF7F4FDEC
S11331E000222100380001F033F8019BA400E41808
S11331F084232A795B05234352001A6080236A7969
S11332005B0523431A609023AA795B0523431201CB
S11332101A600C4B1C43EB791B042360EB79002BE5
S11332200AD0094B9B57002B06D01F2213401E3A8D
S11332309A401300054A1360F7BDC0468C4600004F
S113324094460000000018189C46000000E100E0CD
S1133250F8B5FF2405000368114A180A20401C40F1
S113326083009F580F4A9E58FFF7AEFD3800210097
S1133270012200F0EDFF6A682100380000F0F7FF3A
S113328088232A7AA400A4195B05234392001A60B8
S113329098235B051C436B7A9B012360F8BDC046F1
S11332A08C4600009446000070B50C00002807D13D
S11332B0002C0FD170BD05000835FFF781FF2800F1
S11332C003680133F7D1F3E7250020000C35FFF73D
S11332D0BFFF2C0023680133F6D1EBE7FF22030A7A
S11332E0044913409B0059580123104083404B600C
S11332F07047C0468C460000FF22030A044913406D
S11333009B0059580123104083408B607047C0468E
S11333108C460000084B8200D258942310B5023228
S11333205B0513431B78002B02D000F037F810BD67
S113333000F08AF8FBE7C04638460000020080230C
S11333400C325B0513431A78002AFCD001717047D4
S113335010B5104B8000C458E37C002B05D0237CAF
S1133360052B02D0237C042B0BD10B4B185898232C
S1133370821C5B05134300221A7000F080FF0123B6
S11333806374A37C002B03D020001830FFF7EBFA02
S113339010BDC046D401002038460000244B70B54F
S11333A08400E5588423EA1C5B05134302221A7047
S11333B09023A9185B050B431B78EA78DBB29206CD
S11333C01DD5942252050A431278002A17D0194AAF
S11333D0A458012B14D1EA781A4204D0043323747C
S11333E0FFF7B6FF0BE0E368013BE360002BF7D087
S11333F0A36828005A1CA2605978FFF79FFF70BD8C
S11334006268013A6260002A06D08C235B05012AB7
S11334100AD000220B4309E0FFF79AFF23685A1CE5
S113342022602A791A70EAE708220B431A70F5E73A
S113343038460000D4010020C31C842040051843F2
S113344002230370704700000122F0B5904B810005
S1133450CD5889B0EB1C0193EB7890261B091A40D8
S113346005920122EB7876059B091A4002923200FC
S1133470AB1D1A43944612780090D2B2079294225C
S113348052051A431278AF1CD0B20390982040051D
S113349003431878C0B206907E480C583100394373
S11334A001910978C9B20491002A35D0079A002AFB
S11334B00ED01023624628001370FFF7BDFF236B64
S11334C0002B52D06A4601211078626B98474CE079
S11334D0069A002A20D0402228001A70FFF7ACFF79
S11334E023002C331B78002B03D198225205174359
S11334F03B70236B002B04D06A4680211078626BEA
S11335009847E37D002B04D0200080211830FFF77A
S11335103CFA0A23237028E02800FFF78DFF059B5F
S1133520002B24D0EB1C1E4310233370029B002B72
S113353010D0EB785B07DA0F002B48DB019B1A7085
S1133540236B002B04D06A4604211078626B9847E1
S11335502B790AE0082323702C342378002B04D120
S113356098235B051F43029B3B7009B0F0BD029B8F
S1133570002BDED1049B012B54D1EB78049A134227
S113358030D0019B029A1A702B7923002C331B78BC
S1133590002B07D1039B002B04D198235B051F4309
S11335A0039B3B70236B002B04D06A4608211078E0
S11335B0626B9847A37D002B04D0200008211830AB
S11335C0FFF7E3F900236360E3602375CDE710237D
S11335D0019A1370236B002B04D06A4602211078E1
S11335E0626B98476368002B50D028008022E36800
S11335F00C3052051978024310780028FCD0297148
S11336000133E3606368013B63606368002BACD102
S1133610E3602375236B002BA7D06A461021107832
S1133620626B53E72B79A268DBB2002A2CD02269A3
S11336301370236901332361A368013BA360A3686A
S1133640002B00D091E7039B002B11D123002C33D6
S11336501B78002B04D198235B051F43039B3B700D
S1133660E37D002B04D0200020211830FFF78DF9D2
S1133670002363752361236B002B00D175E76A4631
S113368020211078626B21E7072343E7062341E7F3
S113369038460000D4010020042902D0072907D0AD
S11336A07047902303305B05184310230370F7E73A
S11336B09C2303305B0518438023F7E7DC2270B5B5
S11336C00024094B8000C558084B5205C3580833E1
S11336D01A431460AA7CA24203D028001430FFF7D6
S11336E042F92C7470BDC046D80100203C4600004D
S11336F00C4B800070B5C5580B4B0024C058D42324
S113370002005B05083213431C602200074900F0E5
S1133710D7FDEB7CA34203D028002030FFF723F928
S11337206C7470BDD80100203C4600001B000200F0
S1133730F8B52B4A83009C580600227C002A02D14B
S1133740627C002A3ED0274AD558DC232F005B0533
S11337501A0008373A431268002A15D02A1D134369
S11337601B68002B10D0A368002B0DD023681A7897
S11337700133EA602360A368013BA360A368002BC4
S113378002D13000FFF79AFFD4235B051F433A6848
S1133790002A0DD02A1D13431B68002B08D0EB68A8
S11337A062681370E36A002B0DD021003000984743
S11337B028000D4900F0C5FD002803D028000A495F
S11337C000F0C4FDF8BD636801336360E368013B46
S11337D0E360E368002BEBD13000FFF789FFE7E7F4
S11337E0D80100203C460000130001008422520549
S11337F0024312780300D0B2002A0CD08020013397
S1133800400503431878013843425841024B404273
S11338101840024BC0187047808D5B0080841E00E6
S113382010B50D4B821D13431A780400D3B2002A3D
S11338300FD0012B07D1FFF7D9FF084B08341C43E5
S11338402378D84010BD0020022BFBD1044B18680C
S1133850F8E70448F6E7C04600000811000090109D
S1133860DC010020006CDC020C4A811D0A43127842
S11338700300D0B2012A04D002280BD000280BD1B7
S1133880704780220133520513431B78002BF7D174
S11338900220F5E70320F3E70520F1E70000081113
S11338A002009C2318325B05134380221A70002205
S11338B0064B03431A70064B063018430378DAB2FA
S11338C0002BFBD1034B10000B6070470000081362
S11338D000000811006CDC02F8B504000D001600AD
S11338E01F00FFF7C1FF012823D1002D25D080231D
S11338F0621C5B0513431D70842302225B05234372
S11339001A702200104B083213437200D2B21A709C
S113391040220E4B0E48234306341A700443237886
S1133920012BFCD1002D0DD10A4B334100203B600B
S1133930F8BD0228DBD1012DD9D139002000FFF7D1
S1133940AFFFD4E7044BF0E7000090100000081329
S11339500000081180841E0000127A0010B50A4C81
S1133960030022680120002A0CD0084A7F301A4341
S113397010700748063303431A78022AFCD100204A
S113398023680B6010BDC046DC0100200000081352
S1133990000008119C23C9015B050343C9B21970D7
S11339A07047942349015B050343C9B219707047FA
S11339B070B506680C0030002049FDF7DBF81F499C
S11339C005003000FDF75CF90E00E121300009012B
S11339D0FDF7D0F8E121E08009013000FDF750F94E
S11339E00E003C213000FDF7C5F83C212081300059
S11339F0FDF746F96E22A1720321114BFF32238099
S1133A00238895420AD80F499B0700D10E49012308
S1133A10CA5CAA420CD36380A58070BD01339BB2FB
S1133A2023800B40AD1A5A425A416E32FF32E7E707
S1133A300133AD1A0D2BEBD1EEE7C04680510100E6
S1133A40B207000068460000404600000188114AA1
S1133A5003008A18002030B5812A17D85A88541ECA
S1133A600B2C13D89C88651E1E2D0FD8DD88172DAE
S1133A700CD81D893B2D09D89B7A3B2B06D88B0784
S1133A8005D0054B9B5CA3424041C0B230BD034B03
S1133A90F8E7C0464EF8FFFF6846000040460000C5
S1133AA070B5134D838802885B196E25FF35554325
S1133AB044885B1995085B190E4D6600755B5B19AC
S1133AC0920710D00B600A680B4BC4885343827A68
S1133AD000899B18E122120162439B183C22424355
S1133AE09B180B6070BD022CECD8013BEAE7C04682
S1133AF04A05F5FF4E460000805101008023084A24
S1133B001B0212689A4209D1A02310305B051843A6
S1133B100368002B02D10133FF3303607047C046B2
S1133B20DC0100200100802210B50023012452058D
S1133B30103111430C600B6090214360490504600F
S1133B401C3001430B608821490501430B6084212B
S1133B504905014310430B60036010BD020090232C
S1133B6014325B05134300221A6042601032016074
S1133B701A60704703680B6070470000104B8200A6
S1133B8070B5D558802204000E4B92051A602800A7
S1133B90FFF7C8FF2800FFF7B1FF0B4B1F261A5D84
S1133BA00123180009493240095DC0253140904085
S1133BB08B40074A6D00505153511060136070BD23
S1133BC0784600003C80845E7C4600007D46000010
S1133BD000E100E0F7B50027114B8000C55808004C
S1133BE00E000197FFF732FF0400B84216D001A976
S1133BF03000FFF755FF3800FFF7E2F8010080209E
S1133C000002814206D0FCF7B5FF01000198FCF7E1
S1133C10B1FF019028000199FFF7A0FF2000FEBD2D
S1133C2078460000F7B50025124B8000C4580E00FA
S1133C30200001A90195FFF79DFF2800FFF7C0F8B8
S1133C4005008020000285420ED00B4B290004346D
S1133C501C43FCF78FFF2768019C29004443B8B23A
S1133C60FCF788FF24180194310001A8FFF7A0FE97
S1133C70F7BDC0467846000000007810F0B5002774
S1133C80184B800085B0C55808000E0001920397B8
S1133C90FFF7DCFE0400B84203D10024200005B085
S1133CA0F0BD300003A9FFF7FBFE38002E68FFF7D4
S1133CB087F8010080200002814206D0FCF75AFFF9
S1133CC001000398FCF756FF0390039BB342E4D32F
S1133CD0AB6088231C355B051D43019B9A002A6059
S1133CE0DCE7C04678460000044B8000C2588823B5
S1133CF01C325B0513438900196070477846000045
S1133D00054B8000C258882314325B05134318689E
S1133D10431E9841C0B27047784600006B46E022CB
S1133D201B78D2021B041340024A09070B43801874
S1133D300360704744100000084B8200D25890235F
S1133D4010B503325B0513431B78002B02D000F03F
S1133D5013F910BD00F078F9FBE7C0468046000077
S1133D609C210C4B0C4A8000C3588258002003321B
S1133D704905114310B518710870942149050A4387
S1133D8010701A7F824203D020331800FEF7EBFD37
S1133D9010BDC046E401002080460000F7B50C00C9
S1133DA005001B4B3022002187002000FE58FCF741
S1133DB095FC2800FFF710F8FEF7D0FF20603000D4
S1133DC000F01AFB200000212030FEF7C5FDF31C93
S1133DD001939023F21C5B051343102230001A70E8
S1133DE0032100F047FB3000002100F068FB094B81
S1133DF0FC50094B5A5D1F231A401E3B9340074A4F
S1133E0013609823019A5B05134340221A70F7BD8F
S1133E1080460000E40100208446000000E100E048
S1133E20F8B50D4E85000D4BAF590400E85800F06D
S1133E30E3FA38002030FEF7A6FD094B20001A5D96
S1133E401F231A401E3B9340064AD367FEF7C9FF5F
S1133E500023AB51F8BDC046E401002080460000B9
S1133E608446000004E100E00A4B800070B5C658A7
S1133E70094B0C00C358150030001A68096800F09B
S1133E80C2FA2860A37930006279217900F004FB3A
S1133E9070BDC04680460000E4010020F7B51E4A0C
S1133EA083009C58050022790420002A16D11B4A5D
S1133EB09E58002903D0280001AAFFF7D5FF9823B4
S1133EC000214020F21C5B05134319701870276908
S1133ED08F4204D12800FFF743FF0020FEBD0123D9
S1133EE0237194235B05A16133431B780720002BC6
S1133EF0F4D0A368191E02D019780133A360B171FC
S1133F002369013B2361A3690133A3619C235B05FE
S1133F101A4380231370E0E7E40100208046000088
S1133F20F8B5134F134C85002C59ED590127069E03
S1133F302777A2602661E3606661FFF7AFFF002880
S1133F4014D1200007992030FEF750FD0328F8D043
S1133F5000280BD09C23002203355B052B432271E0
S1133F601A70942303205B051D432A70F8BDC046D4
S1133F7080460000E401002010B51E4B8200D35897
S1133F801979002934D01C4951585A69002A11D092
S1133F909C2252050A431278002A0BD08A79DC68E5
S1133FA0D2B2002C03D02270DA680132DA605A6986
S1133FB0013A5A611A69002A12D0942252050A431E
S1133FC01278002A0CD09A68141E02D01478013298
S1133FD09A608C711A69013A1A619A6901329A617C
S1133FE01A69002A04D15B69002B01D1FFF7B8FEDE
S1133FF010BDC046E401002080460000104A800045
S1134000815800220F4B10B5C3580331581CC27796
S11340109C2040050843DA621A701A835A629A6235
S11340201A6302709420400501430A701A00383262
S11340301278002A03D00121181DFEF7A6FC10BD3A
S113404080460000E401002070B5254B8200D3585F
S1134050591CC97F002942D022495258D96A0029E3
S113406017DB9421490511430978002911D0D96936
S1134070CCB2596A002905D0DD6A002D02DD0C7826
S1134080013159629471D96A0139D962596B01318C
S11340905963D96A002905DA9421D41C49052143BE
S11340A000240C70196B002911DD9C214905114372
S11340B0097800290BD09279996AD2B2002903D0E9
S11340C00A709A6A01329A621A6B013A1A63DA6ABE
S11340D0002A04DC1B6B002B01DCFFF78FFF70BD93
S11340E0E401002080460000012903D0032909D0FF
S11340F00020704794235B0518430078431E9841C1
S1134100C0B2F6E78423F6E7431C03484901184389
S1134110C9B201707047C04600008812831C942005
S1134120490140051843C9B201707047831C034814
S113413089011843C9B201707047C04600000813D2
S1134140831C8C20C90040051843C9B20170704714
S1134150F7B50400364EE31C1E43337808780D008F
S1134160DBB2072860D8FCF7E7FC04192B0E192BE7
S11341702B45304B01341C43002323703378012B2F
S1134180FCD10020FEBD012BFCD12A4B01341C4381
S1134190402323703378042BFCD1F2E7002101285B
S11341A001D004200231337898423FD12000FFF738
S11341B0ABFF0421204A13698B43136130BFE0E74E
S11341C00227B84207D100270B79BB4203D0200055
S11341D04979FFF7ABFF194B01341C43277033783F
S11341E0154ADBB20193019B013301930423116946
S11341F00B43E2E70421114B621C1A4311706A78E5
S1134200A11C0B431A70002A06D1AB78002B03D0F3
S11342102000E978FFF782FFAB79002BDFD0200084
S1134220E979FFF78DFFDAE70120ABE70320A9E77F
S1134230000030100000881200ED00E000001010B3
S1134240C31C024818430078C0B270470000301005
S1134250012314308B40012A04D18022120510431B
S1134260036070478022D204DB431043F8E7012344
S11342708B40002A01D0436070478360FCE794229E
S113428010B55205841C224311780300CAB20220DF
S113429001290DD18021C90421438024CD30087027
S11342A0E40003331978490908001040114200D191
S11342B010BD013C002C01D0C046F3E70920F7E70C
S11342C0012310B58B400400080C04280AD8FCF71D
S11342D033FC030E14171A008020002A03D00005B3
S11342E00443236010BDC004DB430443F9E7201DED
S11342F08024002A0AD02405F2E720000830F7E7DA
S113430020000C30F4E720001030F1E7E404EBE780
S11343100200002300B5080C042808D80133FCF778
S11343200BFC03080A0C0E001068C8400340180078
S113433000BD5068F9E79068F7E7D068F5E71069C1
S1134340F3E710B5FFF7E4FF10BD0000294A0300AE
S1134350881800B510284BD8FCF7EEFB433C272007
S11343601912094A4A4A4A2E4A4A4A4A3500D02072
S11343708022043340050343520300201A6000BD29
S1134380CC2080220433400503431203F5E7C82000
S11343908022043340050343D202EEE7C420802286
S11343A00433400503439202E7E7C020802204332C
S11343B0400503435202E0E7FC2080220433400519
S11343C003431206D9E7F82080220433400503434F
S11343D0D205D2E7BC2080220433400503431202F5
S11343E0CBE7B8208022043340050343D201C4E75D
S11343F00320C4E7F2FFFEFF0423C370002383708D
S1134400437003717047F0B5130B89B00126039311
S113441008230124764202939B1907900491059284
S1134420019302270025631E069321000598794312
S1134430FCF7A0FB049B834207D31B1AB34204D2AC
S11344401E00069B03900295019301357F00092D00
S113445001D0002EE9D1082C02D00134002EE0D185
S1134460019B029A1B0103981343079ADBB2537012
S113447009B0F0BD842310B50224C21C5B051343AC
S11344804A0022401A70902300195B051843102338
S1134490C9001940017010BD10B58C2403306405A7
S11344A0C9000443C9B2217088219200490501431F
S11344B0D2B20A70802252051043037010BD8023CB
S11344C0012202305B0503430A401A708C235B050A
S11344D018430823890019400170704704FEFF1F28
S11344E02573000A0A0A0D426F6F74696E672057BC
S11344F06172702C20696E20332E2E2E2000322EF5
S11345002E2E2000312E2E2E0A0A0A0D0041626F33
S1134510757420746F2073776974636820435055F1
S113452020746F20564C5052206D6F64652E2E2ED1
S11345302000776172705365744C6F77506F7765A4
S1134540724D6F6465286B57617270506F77657236
S11345504D6F6465564C50522829206661696C651C
S1134560642E2E2E0A00646F6E652E0A0D004162C1
S11345706F757420746F204750494F5F4452565FE3
S1134580496E697428292E2E2E200041626F75749D
S113459020746F206C6F77506F77657250696E531B
S11345A0746174657328292E2E2E2000426F6F7457
S11345B020646F6E652E0A00444F204E4F542046EF
S11345C04F5247455420544F205055542054484589
S11345D020424C554520414E4420475245454E20EB
S11345E042494E53204F5554000A776172705072FD
S11345F0696E7428293A2076736E7072696E7466D7
S11346002829206661696C65642E2E2E0A0A0054DE
S113461065726D696E616C0052545400534547478E
S1134620455200303132333435363738394142431C
S1134630444546898A000000006006400040054069
S1134640001F1D1F1E1F1E1F1F1E1F1E1F000000F8
S113465000001F003B005A0078009700B500D4000A
S1134660F300110130014E01001F1C1F1E1F1E1FED
S11346701F1E1F1E1F00000000D003401415000061
S1134680006007400A0000000050064000F00F40A0
S113469040F00F400090044000A004401E1F0000A2
S11346A0F8B5C046F8BC08BC9E467047F8B5C0468D
S10B46B0F8BC08BC9E467047EB
S10B46B8F0BDFF7F01000000CA
S10746C08504000069
S10746C45904000091
S11346C804FEFF1F000000000000000000000000BE
S11346D800000000000000000000000000000000CE
S11346E800000000000000000000000000000000BE
S11346F800000000000000000000000000000000AE
S1134708000000000000000000000000000000009D
S1134718000000000000000000000000000000008D
S11347280000000068FEFF1F9D0E0000030000004B
S11347380000000010270000FFFFFFFF000000003A
S1134748050000000100000001000000080000004E
S11347580100000001000000090000000100000041
S1134768010000000C00000001000000010000002E
S11347780101000001000000010000000201000026
S11347880100000001000000050100000100000014
S11347980100000006010000010000000100000003
S11347A80701000001000000010000000A010000E8
S11347B801000000010000000B01000001000000DE
S11347C801000000FFFFFFFF0000000000000000E0
S11347D801010000000000000001000000000000CA
S10B47E80000010000010000C3
S903051DDA
