S02B00002F686F6D652F73747564656E74732F6D726E61322F576172702D6669726D776172652F6275696C64B2
S1130000000600201D050000450500004505000010
S113001000000000000000000000000000000000DC
S11300200000000000000000000000004505000082
S11300300000000000000000450500004505000028
S11300404505000045050000450500004505000084
S1130050450500004505000045050000890F000026
S1130060931E0000450500009D1E0000450500008C
S1130070A71E0000450500004505000045050000D9
S11300804505000045050000450500004505000044
S1130090610F0000790F00004505000045050000D0
S11300A04505000045050000450500004505000024
S11300B04505000045050000990F000045050000B6
S1130400FFFFFFFFFFFFFFFFFFFFFFFFFE3DFFFFBB
S11304100448054B10B5834203D0044B002B00D095
S1130420984710BD38FFFF1F38FFFF1F0000000072
S113043006480749091A8B10C90FC91810B5491085
S113044003D0044B002B00D0984710BD38FFFF1F8A
S113045038FFFF1F0000000010B5074C2378002B65
S113046009D1FFF7D5FF054B002B02D0044800E06B
S113047000BF0123237010BD38FFFF1F00000000E0
S113048048410000054B10B5002B03D00449054832
S113049000E000BFFFF7CCFF10BDC0460000000025
S11304A03CFFFF1F48410000402292029A1A9246E4
S11304B07047C046154B002B00D1114B9D46FFF7EA
S11304C0F3FF00218B460F461148124A121A00F01E
S11304D005F90C4B002B00D098470B4B002B00D098
S11304E098470020002104000D000B4800F02EF86E
S11304F000F06AF82000290000F0D2FE00F03AF87B
S113050000000800000000000000000000060020B9
S113051038FFFF1F28020020A105000072B606481C
S11305200649074A02600A6001F0C2FC01F002FDBC
S113053062B6FFF7BFFF000080E100E080E200E068
S1130540FFFFFFFF004800474505000010B501000C
S113055000230022002000F01FFA10BD10B50A008D
S1130560002100F0BBF810BD014B18687047C0466D
S113057000FEFF1F084B10B50400002B02D0002121
S113058000F078FA054B1868836A002B00D098476E
S1130590200000F05BFCC046750A0000403E0000ED
S11305A070B5074D074C641BA41005D0013CA30093
S11305B0EB589847002CF9D103F0CCFD70BDC04630
S11305C06C4100007041000070B50C4D0C4E761B60
S11305D0B61005D0002408CD01349847A642FAD1BC
S11305E003F0B2FD074D084E761BB61005D000246B
S11305F008CD01349847A642FAD170BD6841000085
S113060068410000684100006C41000010B5034BD4
S11306100100186800F00CF910BDC04600FEFF1F71
S113062010B5034B0100186800F0ACF810BDC046CB
S113063000FEFF1FF0B5C64600B50F2A43D90B00D4
S1130640032603431E400C000300002E40D1150076
S1130650103D2D09AC462D01A846804400E03B0026
S1130660676825685F60E7681D60DF601F00A56834
S113067010379D6010344345F1D165460F230C2497
S113068001352D01491913404519144223D08C59C1
S1130690AC5104369C1B032CF9D80324043B9B085F
S11306A001339B002240ED18C918561E002A07D0BA
S11306B0002300E02300CA5C5C1CEA549E42F9D18A
S11306C004BC9046F0BD0500561E002AF0D1F7E7A1
S11306D0561E0500ECE71A00F6E7C046F0B5050023
S11306E083074AD0541E002A44D0CEB2030003220A
S11306F002E00135013C3DD301332E701342F8D1A1
S1130700032C2FD9FF220A40150215432A0415434E
S11307100F2C35D92700103F3F093E01B4461E0077
S11307201A0010366644156055609560D560103225
S1130730B242F8D10F260C2201373F012640DB19C3
S11307403700224217D03E1FB608B400A4461A0050
S11307501C1D644420C2A242FCD103240136B6000D
S11307609B193C40002C05D0C9B21C1919700133E7
S11307709C42FBD1F0BD3400F4E714000300BFE752
S11307802700E0E770B50500002915D00C1F236889
S1130790002B27DB280000F0CBF9244B1A68002A31
S11307A005D0A2420CD921686018824224D062602C
S11307B028001C6000F0BEF970BDA34203D81A00E3
S11307C05368002BF9D111685018A0421BD027D8C8
S11307D021686018834207D063605460280000F0E9
S11307E0A9F9E9E7E418D5E718685B688446614429
S11307F0216063605460F1E7106852688446614484
S113080021606260D4E7206809185018116083429F
S1130810E4D118685B688446614411605360DDE785
S11308200C2328002B6000F085F9C5E754FFFF1F57
S1130830F8B50323CD1C9D43083506000C2D2AD2A0
S11308400C25A94229D8300000F072F92A4F3A68E1
S1130850002A0AD013685B1B04D441E023685B1BA5
S11308601FD522005468002CF8D17B68002B3DD0A2
S11308702900300000F042F8431C2AD00323C41C92
S11308809C43A04205D0211A300000F037F8431CE5
S11308901FD0256010E0002DD3DA0C230020336034
S11308A0F8BD0B2B05D86368A2421DD0536003E04A
S11308B014002360E4182560300000F03BF92000A8
S11308C007220B30231D9043C21AE9D01B1AA350F0
S11308D0E6E70C233000336000F02CF90020DFE75A
S11308E00B2BE5D8140053683B60E5E7002130008A
S11308F000F004F87860BBE754FFFF1F002370B5D5
S1130900064C05000800236000F0A2FA431C00D046
S113091070BD2368002BFBD02B60F9E72402002074
S113092003000A7801311A700133002AF9D17047A3
S113093010B5830727D00378002B26D003000321AA
S113094002E01A78002A1CD001330B42F9D119684D
S11309500F4A104C8A188A4322420FD10433196873
S11309600B4A8A188A43224208D104331968084A78
S11309708A188A432242F1D000E001331A78002A0F
S1130980FBD1181A10BD0300E1E70020FAE7C046C6
S1130990FFFEFEFE80808080F0B546464F46D64678
S11309A0C0B51F002F4B82B01C6805000E00904696
S11309B0002C2DD063681F2B50DC002D1CD0882206
S11309C0A0589146002834D07832825894469A0030
S11309D091468144424649460A6001216246994053
S11309E00A43944680228A46614652008150494611
S11309F0803A8F50022D16D000205A1C02339B00DF
S1130A0062601E5102B01CBC90469946A246F0BDDD
S1130A10154C1C60154B002BCCD01B68019388230C
S1130A20019AE250C6E75546843281580D438550F9
S1130A30E2E70F4B002B11D084204000FFF7E6FDC6
S1130A4000280BD0802200235200835004328350AC
S1130A504B460022E05094466368B8E701204042C8
S1130A60D0E7C046E8FFFF1F5CFFFF1F0000000047
S1130A700D060000F0B5DE464E46454657462B4B64
S1130A8088469B46E0B51E6883B00190002E45D091
S1130A9088237568F7586C1E40D40135AD0078334F
S1130AA075199A460AE0002F05D03B00A200803356
S1130AB09B58434505D0043D013C2FD34346002BAE
S1130AC0F1D173682A68013BA34222D000232B6032
S1130AD0002AF0D073689946002F18D0012351469C
S1130AE0A3407958194212D0822040003858A100FE
S1130AF07958009018420ED1019890475B4672686D
S1130B001B684A4501D1B342D5D01E00BEE79047C9
S1130B10F4E77460DCE708009047EFE703B03CBCFF
S1130B2090469946A246AB46F0BDC046E8FFFF1F7B
S1130B307047C0467047C04602B471464908490030
S1130B40095C49008E4402BC7047C04603B4714638
S1130B50490840004900095E49008E4403BC7047BF
S1130B60002243088B4274D303098B425FD3030AE8
S1130B708B4244D3030B8B4228D3030C8B420DD3FB
S1130B80FF22090212BA030C8B4202D31212090289
S1130B9065D0030B8B4219D300E0090AC30B8B42C7
S1130BA001D3CB03C01A5241830B8B4201D38B0375
S1130BB0C01A5241430B8B4201D34B03C01A52411A
S1130BC0030B8B4201D30B03C01A5241C30A8B425D
S1130BD001D3CB02C01A5241830A8B4201D38B0248
S1130BE0C01A5241430A8B4201D34B02C01A5241EC
S1130BF0030A8B4201D30B02C01A5241CDD2C3095E
S1130C008B4201D3CB01C01A524183098B4201D3D9
S1130C108B01C01A524143098B4201D34B01C01AC4
S1130C20524103098B4201D30B01C01A5241C3083C
S1130C308B4201D3CB00C01A524183088B4201D3AB
S1130C408B00C01A524143088B4201D34B00C01A97
S1130C505241411A00D20146524110467047FFE703
S1130C6001B5002000F0F0F802BDC0460029F7D01D
S1130C7076E7704703460B437FD4002243088B4238
S1130C8074D303098B425FD3030A8B4244D3030B0F
S1130C908B4228D3030C8B420DD3FF22090212BAD4
S1130CA0030C8B4202D31212090265D0030B8B4250
S1130CB019D300E0090AC30B8B4201D3CB03C01A3A
S1130CC05241830B8B4201D38B03C01A5241430B15
S1130CD08B4201D34B03C01A5241030B8B4201D305
S1130CE00B03C01A5241C30A8B4201D3CB02C01A70
S1130CF05241830A8B4201D38B02C01A5241430AE8
S1130D008B4201D34B02C01A5241030A8B4201D3D6
S1130D100B02C01A5241CDD2C3098B4201D3CB017D
S1130D20C01A524183098B4201D38B01C01A52412C
S1130D3043098B4201D34B01C01A524103098B4230
S1130D4001D30B01C01A5241C3088B4201D3CB001B
S1130D50C01A524183088B4201D38B00C01A5241FE
S1130D6043088B4201D34B00C01A5241411A00D2AE
S1130D7001465241104670475DE0CA0F00D0494217
S1130D80031000D34042534000229C4603098B4287
S1130D902DD3030A8B4212D3FC22890112BA030A0F
S1130DA08B420CD3890192118B4208D38901921191
S1130DB08B4204D389013AD0921100E08909C30916
S1130DC08B4201D3CB01C01A524183098B4201D318
S1130DD08B01C01A524143098B4201D34B01C01A03
S1130DE0524103098B4201D30B01C01A5241C3087B
S1130DF08B4201D3CB00C01A524183088B4201D3EA
S1130E008B00C01A5241D9D243088B4201D34B0004
S1130E10C01A5241411A00D20146634652415B1046
S1130E20104601D34042002B00D549427047634627
S1130E305B1000D3404201B5002000F005F802BD6C
S1130E400029F8D016E770477047C046FEE7C04651
S1130E500A4A0300116810B5002901D1084911603C
S1130E6010680849C3188B4206D9FFF77DFB0C2391
S1130E7003600120404210BD1360FCE7ECFFFF1F3C
S1130E802802002028020020837802209842804112
S1130E9040427047437A0020013B012B03D90B7871
S1130EA0013001330B707047C023174A9B00136055
S1130EB0164A1360164A13600023164A1360164A32
S1130EC01360164A1360164A1360164A1360164AD2
S1130ED01360164A1360164A1360164A1360164AC2
S1130EE01360164A1360164A1360164A1360164AB2
S1130EF01360164A1360164A1360164A1360164AA2
S1130F001360164A136070470090145404901454EC
S1130F10089014540C9014541090145414901454B5
S1130F20189014541C901454209014542490145465
S1130F303090145400A0145404A0145408A0145461
S1130F400CA0145410A0145414A0145418A0145435
S1130F501CA0145428A014542CA0145434A01454C9
S1130F6010B5002002F03CFB002803D0002108004B
S1130F7002F02AFB10BD0000024A1368013313601B
S1130F807047C0464400002010B50721014801F015
S1130F90F3FF10BD00C007400122024B52421A6009
S1130FA07047C046A090044037B5002001F026FAEF
S1130FB0C02300240D4A9B0013600D4A0D4D13609D
S1130FC00D4A200013600D4B2C716C71AC711A68C2
S1130FD0FA239B0053430A492B6002F04FFB29007C
S1130FE0200001AA02F08CFB37BDC04618901454AF
S1130FF01C9014549C00002000A0145480FEFF1F79
S11310006C00002010B5002001F0FDF98023054A92
S11310109B001360044A00200449136001F05AFD48
S113102010BDC0460CA0145410A014544800002055
S11310300FB41FB506AB02CB00200393402303AAD1
S11310400093064B00F0EEFD002803DA002004496B
S113105000F01CFD05B008BC04B0184701000020D6
S1131060C63F000070B5784D04002B88834200D140
S113107081E0764B764AC3189BB2934200D9DEE0F6
S11310808023744A5B001360734A1360734A1360CD
S1131090734A1360734A1360734B984200D194E00F
S11310A02AD8724B984200D174E015D8C83B9842B4
S11310B067D009D8C83B984244D06D4B98425BD066
S11310C06C48FFF7B5FF4DE06B4B9842F8D10C200C
S11310D0FF3001F015FC58E096231B01984266D0BE
S11310E0664B984200D16BE0654B9842E8D10C20E6
S11310F0FF3001F005FC51E0624B984200D183E0DF
S11311000FD8C83B984200D170E05F4B984200D1A1
S113111075E05E4B9842D3D10C20FF3001F0F0FB18
S113112057E0C8231B01984200D17AE0584B9842FB
S113113000D17FE0574B9842C2D10C20FF3001F020
S1131140DFFB65E00C20FF3001F0E8FB8520400068
S113115001F0E4FB0820FF3001F0E0FB83204000B5
S113116001F0DCFB4C4B186800F0A1FF0620FF30B7
S113117001F0C6FB2C8070BD0C20FF3001F0C0FBD9
S1131180E4E70C20FF3001F0C9FB8520400001F0AA
S1131190B7FBDFE70C20FF3001F0C0FB85204000E7
S11311A001F0BCFB0820FF3001F0AAFBD6E70C20BD
S11311B0FF3001F0B3FB8520400001F0A1FBF1E713
S11311C00C20FF3001F09CFBF5E70C20FF3001F010
S11311D0A5FB8520400001F0A1FB0820FF3001F0B1
S11311E09DFB8320400001F08BFBBBE70C20FF300C
S11311F001F094FB8520400001F082FBEDE70C2018
S1131200FF3001F07DFBF5E70C20FF3001F086FB99
S11312108520400001F082FB0820FF3001F070FBC4
S1131220DFE70C20FF3001F079FB8520400001F05E
S113123067FBF1E70C20FF3001F062FBF5E70100EA
S11312401648FFF7F5FE96E774FEFF1FF8F8FFFF58
S1131250DC05000014A0145418A014541CA0145449
S113126028A014542CA01454280A00009808000044
S11312706C070000443E000034080000C40900006C
S1131280FC080000B80B0000540B00008C0A00009E
S1131290E40C00001C0C000084FEFF1F713E0000E3
S11312A0F0B5A7B015AC072200212000FFF716FA0D
S11312B0864A01251A92032205AB1D9307AB1E93A0
S11312C009AB20930DAB22930FAB239311AB249363
S11312D013AB0BAE03A9002025931AAB1A711C9112
S11312E0049325701F94219601F080F8280001F0E2
S11312F07DF88022764B12021A6000F0F7FE00237C
S113130000951A001900180000F0CCFB7148FFF793
S11313108FFEFA20800000F0CAFE6F48FFF788FEB7
S1131320FA20800000F0C3FE6C48FFF781FEFA202B
S1131330800000F0BCFE6A4A2B000221694800F0DC
S1131340F9FE2900280000F001FF002002F086F8D1
S1131350654B642117936B4600275B181F806B460F
S113136002315B18380017A91F70189502F0A2F813
S11313702A00390003A8FFF7B1F969462A20159B12
S11313800993A2880A85A27909180A70694603227A
S1131390063809180A700B93A2886946B280A279AC
S11313A00238B2710522327002260593A2880A839C
S11313B0A2790E758A760793A2880A84A2790918FD
S11313C00A70694604220A770D93A28818300A87A6
S11313D0A27909180A706A4634215118082240205B
S11313E00A7069460F93A28809180A806946A2798F
S11313F0801909180A7068463C2209218018017076
S113140068461193A3880C3280180380A379684638
S11314104A240019037068460A23063C0019037025
S11314204C206B461B1804AA1F701DA82B0001F04A
S113143033F82E48FFF7FCFD3900300000F09AF82D
S113144008229043C0B2B84202D02948FFF7F0FD09
S11314502848FFF7EDFD2848FFF7EAFD274928480B
S113146001F034FA274C2000FFF7E2FDC023264A9E
S11314709B001360254A26481360264A1360FFF731
S1131480D7FDFFF711FD2000FFF7D2FDE1211D205C
S1131490C90000F0F7F801221F4B20481A70FFF72B
S11314A0C7FD00F01BF940201D4900F0EBF9A02115
S11314B00520090200F0ECF9011E1A4800D11A486F
S11314C0FFF7B6FD002027B0F0BDC046950E000022
S11314D018020020A93E0000C43E0000CA3E0000DD
S11314E064FEFF1F20FFFF1FE0070100D33E000042
S11314F0F83E00002C3F0000343F000090FEFF1F28
S113150088FEFF1F773F0000009014540490145489
S1131510513F00000890145400000020723F000066
S1131520E40C00007E3F00009F3F00001FB5040054
S113153001A9002001F0E6FF694601A801F020FF9F
S1131540009B68461C1901A9009401F0A1FE012228
S113155001A9002002F002F81FBD00000022034B85
S11315601A608022024BD205DA67704700901C583B
S113157004E100E070B50D000A2408281CD8FFF728
S1131580DBFA051D2A3F546771795C0001F01AF9F2
S11315900524012810D0FFF7E1FF2800FFF7C6FF5C
S11315A00021080000F09AFF01210400002000F04F
S11315B0CDFD002C22D10024200070BD01F002F9E1
S11315C006240128F8D0FFF7C9FF2800FFF7AEFF73
S11315D000210120E6E701F0F5F808240128EBD00A
S11315E000F032FE002803D00121002000F0AEFDFF
S11315F00021022000F072FF0028DCD00924DBE780
S113160001F0E0F807240028D6D0FFF7A7FF280050
S1131610FFF78CFF0021032000F060FF040001F0BD
S1131620D1F801210028C4D1C1E7FFF797FF2800B2
S1131630FFF77CFF00210420EEE70021082000F0E2
S11316404DFF041EDAD10121080000F07FFDB3E74D
S1131650FFF784FF2800FFF769FF0021052000F051
S11316603DFFCBE7FFF77AFF2800FFF75FFF00217C
S11316700620F4E7FFF772FF2800FFF757FF002169
S11316800720ECE7014B5870D9807047F8FFFF1F23
S113169037B585256D000400280001F031F90A20D2
S11316A000F005FD280001F039F90C2001F036F9AD
S11316B0FA23084A9B0014700021019301230800B7
S11316C00093054B02F078F80400280001F018F9A3
S11316D020003EBDA5000020A4000020C02310B5BA
S11316E08024634A9B001360624A64001360FFF71E
S11316F05BFC614B20001C60604B1C60604B1C60F9
S113170001F0FEF8642000F0D2FC200001F006F99C
S1131710642000F0CCFC200001F0F2F8642000F01A
S1131720C6FCAE20FFF7B4FFA020FFF7B1FF722084
S1131730FFF7AEFFA120FFF7ABFF0020FFF7A8FFE4
S1131740A220FFF7A5FF0020FFF7A2FFA420FFF7C8
S11317509FFFA820FFF79CFF3F20FFF799FFAD20D4
S1131760FFF796FF8E20FFF793FFB020FFF790FF5F
S11317700B20FFF78DFFB120FFF78AFF3120FFF721
S113178087FFB320FFF784FFF020FFF781FF8A2053
S1131790FFF77EFF6420FFF77BFF8B20FFF778FFC6
S11317A07820FFF775FF8A20FFF772FF6420FFF7A8
S11317B06FFFBB20FFF76CFF3A20FFF769FFBE20E5
S11317C0FFF766FF3E20FFF763FF8720FFF760FF08
S11317D00620FFF75DFF8120FFF75AFF9120FFF7F6
S11317E057FF8220FFF754FF5020FFF751FF83205B
S11317F0FFF74EFF7D20FFF74BFFAF20FFF748FFB9
S11318002620FFF745FF0120FFF742FF2520FFF7C1
S11318103FFF0020FFF73CFF0020FFF739FF5F2068
S1131820FFF736FF3F20FFF733FF2220FFF730FF9B
S11318300020FFF72DFF0020FFF72AFF5F20FFF7AE
S113184027FF3F20FFF724FF0020FFF721FFFF20A1
S1131850FFF71EFF0020FFF71BFF0020FFF718FF14
S1131860FF20FFF715FF0020FFF712FF002010BD37
S1131870209014542490145428A0145430901454D8
S113188000A01454014B5870D9807047F0FFFF1F1B
S1131890F0B505000C0089B0002802D00320052D06
S11318A020D1114B06AE5A7804AF32800F4A64BA85
S11318B012680792D88880B2FFF7D4FB3D7005AD5B
S11318C02C800224FFF79EFB094B3A001B68310071
S11318D00293002001230194009501F0C1F900282E
S11318E000D0200009B0F0BDF0FFFF1F78FEFF1FFD
S11318F07CFEFF1F0369C268934201D880681B18ED
S1131900013B981A7047F7B58368C46801931F1B9D
S1131910436805000E001819A418974207D83A0026
S1131920FEF788FE019B6868E41A2200F119FEF7AD
S113193081FEEC60F7BD0023F7B506001700C5680B
S1131940019100933369B4689D421FD2013B5B1B34
S1131950641BBC4200D93C009C4200D91C00736843
S1131960220058190199FEF765FE009B2D191B19D9
S11319700093019B3F1B1B190193B368AB4200D139
S11319800025F560002FDDD10098FEBD1B19DDE7B1
S1131990022310B50F4C104A236163610F4BA261FF
S11319A0E3616423A2640E4A2362E26400230422F6
S11319B0A3626362E362A3656365E3652265094923
S11319C0E01DFEF7ADFF20000749FEF7A9FF202325
S11319D0A37110BDA8000020EC3F000024010020EA
S11319E020010020F53F0000F93F0000F8B5160083
S11319F01822451C55434243164B0F005D199B1892
S1131A00DC6A012C10D0022C1BD0002C1FD1280022
S1131A10FFF770FF864205D8320039002800FFF72F
S1131A2072FF34002000F8BD2800FFF763FF340084
S1131A30864200D90400220039002800FFF763FF22
S1131A40F0E732002800FFF776FF0400EAE70024FD
S1131A50E8E7C046A8000020F8B50B4B04001B784B
S1131A600E001700002B01D1FFF792FFEFF3108552
S1131A70012181F310883A0031002000FFF7B6FFFE
S1131A8085F31088F8BDC046A800002070B5050095
S1131A9008000C00FEF74CFF210002002800FFF7AD
S1131AA0DBFF70BDF7B5164C0193237805000F00DA
S1131AB01600002B01D1FFF76BFF2369AB421CD941
S1131AC0EFF31082012181F31088002D0CD018232C
S1131AD0691C59436B43675061184E600199E318C0
S1131AE0196200219962596218204543089B6419C0
S1131AF0E36282F310880020FEBD01204042FBE730
S1131B00A8000020826810B504004068531C83427A
S1131B1005D820688154A360E3680133E360A268B8
S1131B2063689A4209D121682069FFF795FFA36889
S1131B30984203D001235B42E36010BD0023A360FD
S1131B40FBE70000F0B5050017000800012685B08A
S1131B500A9C02910093B84219D2009A01969642C7
S1131B6000D2019201230B9A1A4003920B9A1A4253
S1131B7002D1002C10D10024EB680126002B4BDB92
S1131B80009B012B1FD9013B00937E43F8E73900EA
S1131B90FEF7E6FF0136DEE70B9B20269B0704D504
S1131BA0009B1036002B00D0103E019BA342E3D2D1
S1131BB031002800FFF7A6FFEB68013C002BDBDBBC
S1131BC0002CF2D1D7E731000298FEF7C9FF874213
S1131BD0DBD902983100FFF749F8114B0291195CE7
S1131BE02800FFF78FFFEB68002B05DB390030007E
S1131BF0FEF7B6FFBE4211D2039B002B0CD0002C83
S1131C000AD0019BA34207D220212800FFF77AFFC4
S1131C10EB68013C002BF2DA05B0F0BD0600D8E712
S1131C2000400000F0B58FB007900E001800149922
S1131C3015000693FEF792FC069B079A0993149BE2
S1131C400D920A9300230B930C93317801360029EB
S1131C5007D10C9B0293002B00DD09E10C980FB017
S1131C60F0BD252900D0B3E000270822042006E0B7
S1131C70302B0DD1022300E001231F430E003378E3
S1131C80711C2D2BF8D0F3D8232B10D02B2B0CD078
S1131C9000240A213378721C18003038092808D827
S1131CA04C43303C16001C19F4E70743E6E717439E
S1131CB0E4E7002102912E2B0ED116000A2032787F
S1131CC0711C1300303B092B06D8029B0E004343C2
S1131CD0303BD3180293F2E7042331780A0001362B
S1131CE09A43682A01D13178F8E7782909D86F290D
S1131CF00BD8632967D017D8252969D0582900D172
S1131D0095E00C9B002BA0DAA3E7703908000829A2
S1131D10F7D8FEF71BFFA500F6FFF6FF9400F6FFC9
S1131D208300F6FFF6FF8C006429EAD12B681A1DA4
S1131D301B682A60DA179818039301235040049310
S1131D40092849DC029B049A0593934200D2059228
S1131D50002C05D0039B002B01DB7B0700D5013C45
S1131D6002231F4202D0029B002B05D001231F42F5
S1131D7002D1002C36D100240C9B0493002BC0DB31
S1131D80039B002B3ADA2D215B42039309A8FFF74A
S1131D90B9FE0C9B002BB4DB03233B40022B05D183
S1131DA0029B002B02D1002C2CD100240C9B049309
S1131DB0002BA6DB0A22029B03990197009409A831
S1131DC0FFF7C0FE9DE72B6819681A1D2A60C9B287
S1131DD009A8FFF797FE94E70A21FEF74BFF049B3F
S1131DE00133ACE7059BA342C6D2202109A8FFF723
S1131DF089FE0C9B013C002BBBDABDE77B07C8D5F1
S1131E002B21C3E7059BA342D0D2302109A8FFF7B9
S1131E1079FE0C9B013C002BC5DAC7E70A2229682E
S1131E2001970B1D2B60029B00940968C7E7296882
S1131E3001970B1D2B60029B00941022F5E72B6881
S1131E401A1D2A601C6821780134002900D158E742
S1131E5009A8FFF757FE0C9B0293002BF3DA50E717
S1131E6029680B1D2B600023019308330093E4E7DA
S1131E700B9A002A03D006990798FFF7EDFD0C9BF7
S1131E8002930B9B0393039A029B944663440C9323
S1131E90E4E610B5002000F04FFD10BD10B50020A1
S1131EA001F0BAFB10BD10B5002001F0B1F810BD6F
S1131EB0082310B5164A9178194202D091780B4341
S1131EC09370882100222220124B49015A50124952
S1131ED0124C087080201249400258501968114869
S1131EE001401960195910480840C0218904014370
S1131EF0195180210D4B1A7219767F391A70597055
S1131F000B490A700C3299791142FCD110BDC046BC
S1131F1000D007400070044000E0074004100000B7
S1131F2044100000FFFFF3FFFFFFFFF000400640F6
S1131F30005006401249134810B5814205D00022D2
S1131F40114B9B089B009A420FD1104B104A996089
S1131F50002310491048521A9A420AD100210F4B0B
S1131F600F4AD21A013A08D210BD84588C50043258
S1131F70E9E7CC5CC4540133EEE719700133F1E7AF
S1131F8000000000000000000000000000ED00E080
S1131F90A84200007041000000FEFF1F38FFFF1F31
S1131FA028020020030041700020187058609860D7
S1131FB0704710B5437804000120FF2B08D000F0CF
S1131FC033FA63780133DBB2637000F021FA002046
S1131FD010BD70B504000D0000F026FAE168294335
S1131FE0E16000F015FA002070BD000000220A4BE9
S1131FF09A641A0040329A631A0030329A621A00C4
S113200020329A611A0010329A60044A1360044B19
S11320109B60DB607047C0468C0100208801002073
S1132020DC0100200022024B1A60186880B270475D
S11320300C007C5070B5437804000D00002B0BD0CD
S1132040002500F0F1F96378013BDBB26370257081
S113205000F0DEF9280070BD02200029FBD02378AF
S1132060002B17D0FFF7DEFF6368A268834204D811
S1132070C01A824206D30320EDE7C01A80235B0214
S1132080C018F6E700F0D0F90023237000F0C0F97F
S11320900220E0E74B1CEED000F0C6F901232370C8
S11320A000F0B6F9FFF7BEFFA5606060E3E770B526
S11320B00500FFF7B7FF802604007602FFF7B2FFA2
S11320C00300844203D8031B9D42F7D270BD301B2A
S11320D0C318F9E710B5012801D100F0A5F910BD26
S11320E010B5012801D100F093F910BD10B5FFF728
S11320F07DFF01230020084A08491360084A094C5F
S11321001060086004212160074C216007490B60BE
S113211007490860136010BD3880045000008450E3
S113212000000450000004510400045104000C5049
S11321300000045310B5044C206021710020A260FB
S11321402373637310BDC046EC0100200422F0B574
S113215087B005AC3B4E01900291207061703379D9
S11321600092834226D90022337B15007373012326
S11321700092A3700393334F3B7BAB421DD8009B6B
S1132180002B02D0029B012B48D10120FFF7A2FFB4
S11321900C20019B002558433368181800F0B0F850
S11321A0019B012073710226FFF79AFFA6703B7B07
S11321B0AB421AD8009807B0F0BDBA68AB009B5880
S11321C0002B0FD01A7903990A420BD020001A6809
S11321D099689047002805D0029B7D73002B1BD083
S11321E0052300930135EDB2C5E7BA68AB009B58EF
S11321F0002B0ED01A7932420BD020001A6899684D
S11322009047002805D0029B7D73002B17D006232E
S113221000930135EDB2CAE7052300930023A370B0
S1132220013DEDB2FF2DC5D0064BAA009B68D358E3
S1132230002BF5D020001A6899689047F0E7062330
S11322400093B7E7EC010020014B58797047C04672
S1132250EC01002013B5040000202178019002292C
S113226020D0032922D0012925D1227901AB144899
S113227000F0A2FF002814D1A3795A1E9341114AF9
S1132280DB01137063785A1E93410F4A5B0013708D
S1132290A2780E4B1A70E2780D4B1A7062790D4BCE
S11322A01A7016BD0100227901ABE0E701A90448C8
S11322B000F0C4FFDEE701A9014800F061FFD9E79F
S11322C000400640184086530040865000400650A7
S11322D00140065018401650F821084A43099B0053
S11322E09B180905C2050A40134380225205134373
S11322F01F2210401E3A82401A6070472880044012
S1132300072373B5009300230400104D1A00012124
S1132310280001F073F92000FFF79CFF637A28007E
S113232000930023217A1A0001F068F9E379084A3E
S11323309B041360074BA17A1D68280000F09AFFE4
S11323402800E17A00F09DFF002076BD0070044073
S113235000700C596840000010B5054800F0D0FE2C
S1132360044B1968C9B20131FEF7FAFB10BDC0462F
S11323700040064044801C5E10B5FFF7EDFF10BD21
S113238010B5054800F0BCFE044B1968C9B2013110
S1132390FEF7E6FB10BDC0460040064044801458DA
S11323A010B5FFF7EDFF10BD0B4B1B68DBB2022B22
S11323B00CD0032B0DD00020834206D1074A1068AD
S11323C080221202904200D018007047044B186813
S11323D0FBE7FA208000F8E700700C59180200208F
S11323E01C02002010B5FFF7DFFF10BD10B5024B33
S11323F0185CFFF771FF10BD1040000010B5762087
S1132400FFF76AFF10BD10B56620FFF765FF10BD2A
S1132410044A1368002B04D0013B1360002B00D145
S113242062B67047FC01002072B6024A1368013399
S113243013607047FC01002010B5064C064801F0FB
S11324404BFB042801D1002010BD013C002CF5D128
S11324500320F9E7EA03000000E0074010B50B4B46
S11324600B490A78002A07D0084C0A4801F034FBCB
S1132470012806D1002003E0013B002BF1D1032009
S113248010BD013C002CF0D1F9E7C046EA0300007E
S113249002D0075100E00740F7B507000E00150011
S11324A001200193002F15D0002913D0FFF712FE4D
S11324B0094C102200212000FEF710F92760267134
S11324C0002D03D0019BA560237363730120FFF7E4
S11324D007FE0020FEBDC04600020020F0B5B14C4E
S11324E08DB002900391237B01206373FFF7F2FD0B
S11324F02379029A934206D80120FFF7F1FD0227BF
S113250038000DB0F0BD029A23689200D35809AC8C
S11325101D780193039B2A002372029B2370019B65
S1132520636002239A430492012A01D0052D0AD143
S113253001219D4801F024FA002807D10120FFF76A
S1132540CFFD0127DCE70321072DF2D80123002763
S113255063723C000593934E337BA3422AD8012037
S1132560FFF7BEFD914800F0EFFD049B012B4AD11B
S11325700138022835D9039B012B00D00DE1062731
S11325800120FFF7A7FD0023012609AD6B72013C72
S1132590E4B2FF2C00D1AFE0824BA2009B68D35879
S11325A0002BF4D01A793242F1D028001A689968C5
S11325B09047ECE7B268A3009B58002B0ED01A7921
S11325C005990A420AD01A68996809A89047002810
S11325D004D0039B04277473012BC0D10134E4B2EB
S11325E0B9E7FFF7DDFE724B9842C4D8FFF7B4FE9B
S11325F0704EB042BFD8FFF7C3FEB042BBD8FFF75E
S1132600BBFEB042B7D8039B012B00D0C1E00A2D1A
S113261000D9BCE02800FEF78FFA060A0D1E879A3F
S11326207B822F737800002207AB1A702DE00322FF
S113263007ABFAE75C4801F04FFA012808D0002103
S1132640594801F0ADF9FFF709FF071E00D057E71D
S1132650012207ABE9E7544801F03EFA042808D008
S11326600221514801F09CF9FFF7E6FE071E00D055
S113267046E7042207ABD8E7072207AB1A80019A82
S1132680D2789A70019A1279DA702B00083B022BE7
S113269006D8019B06AA5B799372019B9B79D3723E
S11326A0019B5B78002B0AD0012D08D9019B0222E3
S11326B09978414B00294DD019690A431A613A4867
S11326C007A901F091F9002800D00327002D45D176
S11326D0FFF7C4FE071E00D012E700270120FFF712
S11326E0F9FC029B2F4D0024AB73022309AE7372D5
S11326F001932B7BA34236D80120FFF7F1FCFFE6C0
S1132700082207ABFF321A80BFE72C4A07ABFAE76F
S1132710022207AB1A700222FF329A80B5E7022226
S113272007AB1A70264AF8E7022207AB1A70013A7F
S11327301D489A8001F0D0F90128A6D000211A483A
S113274001F02EF9FFF78AFE071E9ED0D8E6052277
S113275007AB6AE7196991431961B0E7012DBDD14F
S1132760FFF76AFEB6E7AA68A3009B58002B0BD0BC
S11327701A7901990A4207D030001A68996890477B
S1132780002801D005276C730134E4B2B1E70327B4
S1132790B6E6002F00D13AE7F2E6002F00D0EFE6CC
S11327A0EDE6C0460002002000E00740004006407D
S11327B040420F0080841E0000ED00E0070300008B
S11327C00102000010B5064801F086F9030000205C
S11327D0012B03D00B30042B00D10A3810BDC046A6
S11327E000E00740F7B5FF2403681D4A1E0A26408F
S11327F01C40B3009F581B4A05009B5830000193AE
S1132800FFF7F4FD00222100380001F06DF9019B6F
S1132810A400E41884232A795B05234352001A6038
S113282080236A795B0523431A609023AA795B05A8
S1132830234312011A600C4B1C43EB791B042360E5
S1132840EB79002B0AD0094B9B57002B06D01F2293
S113285013401E3A9A401300054A1360F7BDC04660
S11328606C40000074400000000018187C40000018
S113287000E100E0F8B5FF2405000368114A180AD6
S113288020401C4083009F580F4A9E58FFF7AEFD1E
S113289038002100012201F027F96A68210038007C
S11328A001F031F988232A7AA400A4195B05234393
S11328B092001A6098235B051C436B7A9B0123608A
S11328C0F8BDC0466C4000007440000070B50C00B8
S11328D0002807D1002C0FD170BD05000835FFF783
S11328E081FF280003680133F7D1F3E725002000B6
S11328F00C35FFF7BFFF2C0023680133F6D1EBE75B
S1132900FF22030A044913409B0059580123104035
S113291083404B607047C0466C400000FF22030AAE
S1132920044913409B0059580123104083408B6095
S11329307047C0466C400000084B8200D258942374
S113294010B502325B0513431B78002B02D000F054
S113295095F910BD00F0E8F9FBE7C046144000000B
S1132960020080230C325B0513431A78002AFCD042
S11329700171704770B50D00084B8000C4582000E9
S113298029001830FFF756FB0328F8D0002801D09F
S113299004232374207CC0B270BDC0461002002002
S11329A010B5104B8000C458E37C002B05D0237C69
S11329B0052B02D0237C042B0BD10B4B18589823E6
S11329C0821C5B05134300221A7001F00BF90123EA
S11329D06374A37C002B03D020001830FFF7E9FABE
S11329E010BDC0461002002014400000F0B51700CE
S11329F0002289B005930EAB1B7805000393830076
S1132A0032481E5832481C5807AB1A80A37C880AE7
S1132A1004930223FF3363828B0A0193CBB21E28F3
S1132A2001D11A000B0A5B00D8B2019B00211E2BB6
S1132A3005D08F4203D1012303995B1A59B2014394
S1132A40CBB202930299019807AB197001211E2899
S1132A5001D15A704918A3603000E1600299FFF770
S1132A607FFF28000F99FFF785FF237C002B0CD1F3
S1132A70002F0AD0059BA760E36030003978FFF788
S1132A806FFF28000F99FFF775FF237C039A1A4301
S1132A9014D1019B1E2B01D0002F0FD0002301273E
S1132AA03000A360E76001F08BF8029930003943ED
S1132AB0FFF756FF28000F99FFF75CFF0023207CE7
S1132AC0E374049BC0B2A37409B0F0BD14400000C9
S1132AD010020020F7B583000193184B8200D758E9
S1132AE005000C000126002F26D1154B3900D358C0
S1132AF0200024220193FDF7F1FD20003900183055
S1132B00FFF750FA2800FFF77EFC019801F003F864
S1132B100A4BAA00D4501F220A4B5B5D13403200BB
S1132B209A40094B1A609C22019B520502331343BD
S1132B30802266743E001A703000FEBD1002002030
S1132B40144000001840000000E100E00A4B80003F
S1132B5070B5C5584B686A690C0093420BD0074B9B
S1132B60C658FFF70DFC002301006268300000F036
S1132B70E1FF63686B6170BD100200201440000027
S1132B80F0B587B004920593334A0FAB1E788300E7
S1132B909C580391627C0700002A03D1032020740F
S1132BA007B0F0BD002E01D11E220E922B4A380030
S1132BB0D55800230399E360A360237423606374EE
S1132BC0A674FFF7C3FF90231021AA1C5B051343CF
S1132BD019708423E91C5B050B43022119709823A7
S1132BE05B05134302934023029A2800137000F0FC
S1132BF0E7FF039B380019880E9B049A0193012375
S1132C000093059BFFF7F2FE0D9B002B17D0237C4E
S1132C10002B11D10C9B2800A3600D9BE3600C9B3F
S1132C201978FFF79DFE002E03D038000E99FFF7A8
S1132C30A1FE207CC0B2B3E7237C042BF9D100238E
S1132C400126029A1370EB785B09334202D0280004
S1132C5000F0C8FF6674ECE7100200201440000086
S1132C601FB501240394089C0294079C0194069CBC
S1132C700094FFF785FF04B010BD0000244B70B52D
S1132C808400E5588423EA1C5B05134302221A706E
S1132C909023A9185B050B431B78EA78DBB29206F4
S1132CA01DD5942252050A431278002A17D0194AD6
S1132CB0A458012B14D1EA781A4204D004332374A3
S1132CC0FFF76EFE0BE0E368013BE360002BF7D0F7
S1132CD0A36828005A1CA2605978FFF741FE70BD12
S1132CE06268013A6260002A06D08C235B05012ADF
S1132CF00AD000220B4309E0FFF752FE23685A1C56
S1132D0022602A791A70EAE708220B431A70F5E761
S1132D101440000010020020C31C84204005184306
S1132D2002230370704700000122F0B5904B81002C
S1132D30CD5889B0EB1C0193EB7890261B091A40FF
S1132D4005920122EB7876059B091A400292320023
S1132D50AB1D1A43944612780090D2B20792942283
S1132D6052051A431278AF1CD0B203909820400544
S1132D7003431878C0B206907E480C58310039439A
S1132D8001910978C9B20491002A35D0079A002A22
S1132D900ED01023624628001370FFF7BDFF236B8B
S1132DA0002B52D06A4601211078626B98474CE0A0
S1132DB0069A002A20D0402228001A70FFF7ACFFA0
S1132DC023002C331B78002B03D198225205174380
S1132DD03B70236B002B04D06A4680211078626B11
S1132DE09847E37D002B04D0200080211830FFF7A2
S1132DF0F0F80A23237028E02800FFF78DFF059BD5
S1132E00002B24D0EB1C1E4310233370029B002B99
S1132E1010D0EB785B07DA0F002B48DB019B1A70AC
S1132E20236B002B04D06A4604211078626B984708
S1132E302B790AE0082323702C342378002B04D147
S1132E4098235B051F43029B3B7009B0F0BD029BB6
S1132E50002BDED1049B012B54D1EB78049A13424E
S1132E6030D0019B029A1A702B7923002C331B78E3
S1132E70002B07D1039B002B04D198235B051F4330
S1132E80039B3B70236B002B04D06A460821107807
S1132E90626B9847A37D002B04D0200008211830D2
S1132EA0FFF797F800236360E3602375CDE71023F1
S1132EB0019A1370236B002B04D06A460221107808
S1132EC0626B98476368002B50D028008022E36827
S1132ED00C3052051978024310780028FCD029716F
S1132EE00133E3606368013B63606368002BACD12A
S1132EF0E3602375236B002BA7D06A46102110785A
S1132F00626B53E72B79A268DBB2002A2CD02269CA
S1132F101370236901332361A368013BA360A36891
S1132F20002B00D091E7039B002B11D123002C33FD
S1132F301B78002B04D198235B051F43039B3B7034
S1132F40E37D002B04D0200020211830FFF741F846
S1132F50002363752361236B002B00D175E76A4658
S1132F6020211078626B21E7072343E7062341E71A
S1132F701440000010020020042902D0072907D0C1
S1132F807047902303305B05184310230370F7E761
S1132F909C2303305B0518438023F7E7DC2270B5DC
S1132FA00024094B8000C558084B5205C358083308
S1132FB01A431460AA7CA24203D028001430FEF7FE
S1132FC0F8FF2C7470BDC046140200201C400000A1
S1132FD00C4B800070B5C5580B4B0024C058D4234B
S1132FE002005B05083213431C602200074900F00D
S1132FF01AFEEB7CA34203D028002030FEF7D9FF51
S11330006C7470BD140200201C4000001B00020000
S1133010F8B52B4A83009C580600227C002A02D172
S1133020627C002A3ED0274AD558DC232F005B055A
S11330301A0008373A431268002A15D02A1D134390
S11330401B68002B10D0A368002B0DD023681A78BE
S11330500133EA602360A368013BA360A368002BEB
S113306002D13000FFF79AFFD4235B051F433A686F
S1133070002A0DD02A1D13431B68002B08D0EB68CF
S113308062681370E36A002B0DD02100300098476A
S113309028000D4900F008FE002803D028000A4942
S11330A000F006FEF8BD636801336360E368013B2A
S11330B0E360E368002BEBD13000FFF789FFE7E71B
S11330C0140200201C400000130001008422520559
S11330D0024312780300D0B2002A0CD080200133BE
S11330E0400503431878013843425841024B40429B
S11330F01840024BC0187047808D5B0080841E000E
S113310010B50D4B821D13431A780400D3B2002A64
S11331100FD0012B07D1FFF7D9FF084B08341C430C
S11331202378D84010BD0020022BFBD1044B186833
S1133130F8E70448F6E7C0460000081100009010C4
S113314018020020006CDC020C4A811D0A4312782C
S11331500300D0B2012A04D002280BD000280BD1DE
S1133160704780220133520513431B78002BF7D19B
S11331700220F5E70320F3E70520F1E7000008113A
S113318002009C2318325B05134380221A7000222C
S1133190064B03431A70064B063018430378DAB221
S11331A0002BFBD1034B10000B6070470000081389
S11331B000000811006CDC02F8B504000D001600D4
S11331C01F00FFF7C1FF012823D1002D25D0802344
S11331D0621C5B0513431D70842302225B05234399
S11331E01A702200104B083213437200D2B21A70C4
S11331F040220E4B0E48234306341A7004432378AE
S1133200012BFCD1002D0DD10A4B334100203B6032
S1133210F8BD0228DBD1012DD9D139002000FFF7F8
S1133220AFFFD4E7044BF0E7000090100000081350
S11332300000081180841E0000127A0010B50A4CA8
S1133240030022680120002A0CD0084A7F301A4368
S113325010700748063303431A78022AFCD1002071
S113326023680B6010BDC04618020020000008133C
S1133270000008119C23C9015B050343C9B21970FE
S11332807047942349015B050343C9B21970704721
S113329070B506680C0030002049FDF761FC1F4939
S11332A005003000FDF7E2FC0E00E12130000901C9
S11332B0FDF756FCE121E08009013000FDF7D6FC62
S11332C00E003C213000FDF74BFC3C2120813000F6
S11332D0FDF7CCFC6E22A1720321114BFF32238037
S11332E0238895420AD80F499B0700D10E49012330
S11332F0CA5CAA420CD36380A58070BD01339BB223
S113330023800B40AD1A5A425A416E32FF32E7E72E
S11333100133AD1A0D2BEBD1EEE7C046805101000D
S1133320B207000048400000204000000188114A14
S113333003008A18002030B5812A17D85A88541EF1
S11333400B2C13D89C88651E1E2D0FD8DD88172DD5
S11333500CD81D893B2D09D89B7A3B2B06D88B07AB
S113336005D0054B9B5CA3424041C0B230BD034B2A
S1133370F8E7C0464EF8FFFF484000002040000038
S113338070B5134D838802885B196E25FF3555434C
S113339044885B1995085B190E4D6600755B5B19D3
S11333A0920710D00B600A680B4BC4885343827A8F
S11333B000899B18E122120162439B183C2242437C
S11333C09B180B6070BD022CECD8013BEAE7C046A9
S11333D04A05F5FF2E400000805101008023084A71
S11333E01B0212689A4209D1A02310305B051843CE
S11333F00368002B02D10133FF3303607047C046DA
S1133400180200200100802210B500230124520577
S1133410103111430C600B60902143604905046036
S11334201C3001430B608821490501430B60842152
S11334304905014310430B60036010BD0200902353
S113344014325B05134300221A604260103201609B
S11334501A60704703680B6070470000104B8200CD
S113346070B5D558802204000E4B92051A602800CE
S1133470FFF7C8FF2800FFF7B1FF0B4B1F261A5DAB
S11334800123180009493240095DC02531409040AC
S11334908B40074A6D00505153511060136070BD4A
S11334A0584000003C80845E5C4000005D400000A9
S11334B000E100E0F7B50027114B8000C558080073
S11334C00E000197FFF732FF0400B84216D001A99D
S11334D03000FFF755FF3800FEF784FF010080201D
S11334E00002814206D0FDF73BFB01000198FDF785
S11334F037FB019028000199FFF7A0FF2000FEBDD3
S113350058400000F7B50025124B8000C4580E0047
S1133510200001A90195FFF79DFF2800FEF762FF37
S113352005008020000285420ED00B4B2900043494
S11335301C43FDF715FB2768019C29004443B8B2DE
S1133540FDF70EFB24180194310001A8FFF7A0FE3B
S1133550F7BDC0465840000000007810F0B50027C1
S1133560184B800085B0C55808000E0001920397DF
S1133570FFF7DCFE0400B84203D10024200005B0AC
S1133580F0BD300003A9FFF7FBFE38002E68FEF7FC
S113359029FF010080200002814206D0FDF7E0FAF5
S11335A001000398FDF7DCFA0390039BB342E4D3D4
S11335B0AB6088231C355B051D43019B9A002A6080
S11335C0DCE7C04658400000044B8000C258882302
S11335D01C325B0513438900196070475840000092
S11335E0054B8000C258882314325B0513431868C6
S11335F0431E9841C0B27047584000006B46E02219
S11336001B78D2021B041340024A09070B4380189B
S11336100360704744100000084B8200D258902386
S113362010B503325B0513431B78002B02D000F066
S1133630EFF810BD00F054F9FBE7C046604000000D
S11336409C210C4B0C4A8000C35882580020033242
S11336504905114310B518710870942149050A43AE
S113366010701A7F824203D020331800FEF7A1FCA9
S113367010BDC0462002002060400000F7B50C00D9
S113368005001B4B3022002187002000FE58FDF767
S113369025F82800FEF7B2FEFEF772FE2060300027
S11336A000F05CFB200000212030FEF77BFCF31CC3
S11336B001939023F21C5B051343102230001A700F
S11336C0032100F089FB3000002100F0AAFB094B24
S11336D0FC50094B5A5D1F231A401E3B9340074A76
S11336E013609823019A5B05134340221A70F7BDB7
S11336F060400000200200206440000000E100E07F
S11337000A4B800070B5C658094B0C00C35815000D
S113371030001A68096800F028FB2860A37930009B
S11337206279217900F06AFB70BDC04660400000F8
S113373020020020F7B51E4A83009C580500227918
S11337400420002A16D11B4A9E58002903D02800C1
S113375001AAFFF7D5FF982300214020F21C5B0546
S113376013431970187027698F4204D12800FFF79A
S113377067FF0020FEBD0123237194235B05A16133
S113378033431B780720002BF4D0A368191E02D002
S113379019780133A360B1712369013B2361A369E3
S11337A00133A3619C235B051A4380231370E0E774
S11337B02002002060400000F8B5134F134C850030
S11337C02C59ED590127069E2777A2602661E360F4
S11337D06661FFF7AFFF002814D12000079920305D
S11337E0FEF728FC0328F8D000280BD09C230022E5
S11337F003355B052B4322711A70942303205B0568
S11338001D432A70F8BDC04660400000200200201D
S113381010B51E4B8200D3581979002934D01C49A5
S113382051585A69002A11D09C2252050A43127831
S1133830002A0BD08A79DC68D2B2002C03D0227023
S1133840DA680132DA605A69013A5A611A69002A5F
S113385012D0942252050A431278002A0CD09A6896
S1133860141E02D0147801329A608C711A69013ADC
S11338701A619A6901329A611A69002A04D15B6952
S1133880002B01D1FFF7DCFE10BDC0462002002052
S113389060400000104A8000815800220F4B10B590
S11338A0C3580331581CC2779C2040050843DA6290
S11338B01A701A835A629A621A630270942040053D
S11338C001430A701A0038321278002A03D0012109
S11338D0181DFEF77EFB10BD604000002002002092
S11338E070B5254B8200D358591CC97F002942D09A
S11338F022495258D96A002917DB942149051143FA
S11339000978002911D0D969CCB2596A002905D0A7
S1133910DD6A002D02DD0C78013159629471D96A97
S11339200139D962596B01315963D96A002905DA21
S11339309421D41C4905214300240C70196B0029DF
S113394011DD9C2149051143097800290BD0927996
S1133950996AD2B2002903D00A709A6A01329A6233
S11339601A6B013A1A63DA6A002A04DC1B6B002B17
S113397001DCFFF78FFF70BD2002002060400000D3
S1133980012903D0032909D00020704794235B0543
S113399018430078431E9841C0B2F6E78423F6E743
S11339A0431C034849011843C9B201707047C0461B
S11339B000008812831C9420490140051843C9B2B1
S11339C001707047831C034889011843C9B2017010
S11339D07047C04600000813831C8C20C9004005B2
S11339E01843C9B201707047F7B50400364EE31CA2
S11339F01E43337808780D00DBB2072860D8FDF742
S1133A009BF804192B0E192B2B45304B01341C4306
S1133A10002323703378012BFCD10020FEBD012B41
S1133A20FCD12A4B01341C43402323703378042BEC
S1133A30FCD1F2E70021012801D0042002313378BF
S1133A4098423FD12000FFF7ABFF0421204A1369BD
S1133A508B43136130BFE0E70227B84207D1002748
S1133A600B79BB4203D020004979FFF7ABFF194B18
S1133A7001341C4327703378154ADBB20193019B50
S1133A8001330193042311690B43E2E70421114B31
S1133A90621C1A4311706A78A11C0B431A70002A25
S1133AA006D1AB78002B03D02000E978FFF782FF22
S1133AB0AB79002BDFD02000E979FFF78DFFDAE73F
S1133AC00120ABE70320A9E70000301000008812B2
S1133AD000ED00E000001010C31C024818430078F9
S1133AE0C0B2704700003010012314308B40012A0B
S1133AF004D1802212051043036070478022D2044F
S1133B00DB431043F8E701238B40002A01D04360D4
S1133B1070478360FCE70023C22203704370837004
S1133B20C37043718371C371037242728372C3722F
S1133B3070470000F0B5002487B00293FA230126F1
S1133B40270025009B0053430390049100930194A4
S1133B507642AB000593194BAA009B185988049828
S1133B60A140FCF7FDFF009B009AC31A824200D9D2
S1133B70131AB3421FD2114AA900525C27000192C2
S1133B80002B02D00135322D13D10134032C01D086
S1133B90002B0DD1029A002A00D013603F22019914
S1133BA0BB0111400B43039ADBB2537007B0F0BD65
S1133BB000251E00CDE73300E4E7C0467E40000048
S1133BC0942302305B0503431B78002B05D0882324
S1133BD05B05184304230370704780231B051843B7
S1133BE03023F8E7942210B55205841C224311783F
S1133BF00300CAB2022001290DD18021C904214346
S1133C008024CD300870E400033319784909080092
S1133C101040114200D110BD013C002C01D0C0461F
S1133C20F3E70920F7E7012310B58B400400080CE3
S1133C3004280AD8FCF780FF030E14171A0080200A
S1133C40002A03D000050443236010BDC004DB43F5
S1133C500443F9E7201D8024002A0AD02405F2E752
S1133C6020000830F7E720000C30F4E72000103083
S1133C70F1E7E404EBE70200002300B5080C042894
S1133C8008D80133FCF758FF03080A0C0E0010682B
S1133C90C8400340180000BD5068F9E79068F7E792
S1133CA0D068F5E71069F3E710B5FFF7E4FF10BD3E
S1133CB0294A0300881800B510284BD8FCF73CFFAC
S1133CC0433C27201912094A4A4A4A2E4A4A4A4A78
S1133CD03500D020802204334005034352030020E2
S1133CE01A6000BDCC208022043340050343120334
S1133CF0F5E7C8208022043340050343D202EEE7EF
S1133D00C42080220433400503439202E7E7C02025
S1133D1080220433400503435202E0E7FC20802262
S1133D200433400503431206D9E7F8208022043304
S1133D3040050343D205D2E7BC208022043340056A
S1133D4003431202CBE7B820802204334005034327
S1133D50D201C4E70320C4E7F2FFFEFF0423C370CB
S1133D6000238370437003717047F0B5130B89B05F
S1133D700126039308230124764202939B1907909A
S1133D8004910592019302270025631E06932100E6
S1133D9005987943FCF7E4FE049B834207D31B1A7E
S1133DA0B34204D21E00069B039002950193013591
S1133DB07F00092D01D0002EE9D1082C02D0013456
S1133DC0002EE0D1019B029A1B0103981343079A2A
S1133DD0DBB2537009B0F0BD842310B50224C21CB9
S1133DE05B0513434A0022401A70902300195B05B7
S1133DF018431023C9001940017010BD10B58C245C
S1133E0003306405C9000443C9B2217088219200BB
S1133E1049050143D2B20A7080225205104303704F
S1133E2010BD8023012202305B0503430A401A704F
S1133E308C235B05184308238900194001707047DF
S1133E4004FEFF1F1B5B306D1B5B343B34336D1B67
S1133E505B313B33376D0D53616E69747920636850
S1133E6065636B206661696C6564211B5B306D0A58
S1133E70001B5B306D1B5B343B34316D1B5B313B92
S1133E8033376D0D496E76616C696420737570709B
S1133E906C7920766F6C74616765205B25645D20A6
S1133EA06D56211B5B306D0A000A0A0A0D426F6FC2
S1133EB074696E6720576172702C20696E20332EEE
S1133EC02E2E2000322E2E2E2000312E2E2E0A0AC7
S1133ED00A0D0041626F757420746F2073776974E2
S1133EE063682043505520746F20564C5052206D07
S1133EF06F64652E2E2E2000776172705365744CAA
S1133F006F77506F7765724D6F6465286B57617278
S1133F1070506F7765724D6F6465564C5052282906
S1133F20206661696C65642E2E2E0A00646F6E65CE
S1133F302E0A0D0041626F757420746F204750493A
S1133F404F5F4452565F496E697428292E2E2E20E5
S1133F500041626F757420746F206C6F77506F77B7
S1133F60657250696E53746174657328292E2E2E00
S1133F702000426F6F7420646F6E652E0A000D0A74
S1133F8009493243207772697465206661696C65FA
S1133F90642C206572726F722025642E0A0A000D4B
S1133FA00A09493243207772697465207375636323
S1133FB065737320776974682073746174757320F2
S1133FC025642E0A0A000A776172705072696E7451
S1133FD028293A2076736E7072696E7466282920D7
S1133FE06661696C65642E2E2E0A0A005465726D32
S1133FF0696E616C00525454005345474745520062
S1134000303132333435363738394142434445460A
S1134010898A000000600640080000000040054056
S1134020001F1D1F1E1F1E1F1F1E1F1E1F0000001E
S113403000001F003B005A0078009700B500D40030
S1134040F300110130014E01001F1C1F1E1F1E1F13
S11340501F1E1F1E1F00000000D003401415000087
S1134060006007400A0000000050064000F00F40C6
S113407040F00F400090044000A004401E1F0000C8
S11340801400010016000200180003001A000400C6
S11340901C0005001E0009002000060022000A0082
S11340A02400070028000C002C0010003000110030
S11340B03800120040000F004400130048001400B0
S11340C050001500580019006000160068001A001E
S11340D07000170080001C0090001D00A0001E004E
S11340E0C0002200E0001F00F000230000012400B3
S11340F0200125004001260080012A00C00127007C
S1134100E0012B0000022C0040022D0080022E0052
S11341100003320080032F00C00333000004340086
S1134120800435000005360000063A000007370019
S113413080073B0000083C0000093D00000A3E00E7
S1134140000C3F00000F0000F8B5C046F8BC08BCE6
S11341509E467047F8B5C046F8BC08BC9E467047FA
S10B416048C3FF7F01000000C9
S107416885040000C6
S107416C59040000EE
S113417004FEFF1F0000000000000000000000001B
S1134180000000000000000000000000000000002B
S1134190000000000000000000000000000000001B
S11341A0000000000000000000000000000000000B
S11341B000000000000000000000000000000000FB
S11341C000000000000000000000000000000000EB
S11341D00000000068FEFF1F890E000003000000BD
S11341E00000000008070000C800000005000000EF
S11341F01027000001000000FFFFFFFF0000000087
S1134200050000000100000001000000080000009B
S1134210010000000100000009000000010000008E
S1134220010000000C00000001000000010000007B
S11342300101000001000000010000000201000073
S11342400100000001000000050100000100000061
S11342500100000006010000010000000100000050
S11342600701000001000000010000000A01000035
S113427001000000010000000B010000010000002B
S113428001000000FFFFFFFF00000000000000002D
S11342900101000000000000000100000000000017
S10B42A0000001000001000010
S903051DDA
