:10000000000600201D050000450500004505000014
:1000100000000000000000000000000000000000E0
:100020000000000000000000000000004505000086
:10003000000000000000000045050000450500002C
:100040004505000045050000450500004505000088
:10005000450500004505000045050000C10F0000F2
:10006000A72B000045050000B12B0000450500004E
:10007000BB2B0000450500004505000045050000BC
:100080004505000045050000450500004505000048
:10009000990F0000B10F0000450500004505000064
:1000A0004505000045050000450500004505000028
:1000B0004505000045050000D10F00004505000082
:10040000FFFFFFFFFFFFFFFFFFFFFFFFFE3DFFFFBF
:100410000448054B10B5834203D0044B002B00D099
:10042000984710BD40FFFF1F40FFFF1F0000000066
:1004300006480749091A8B10C90FC91810B5491089
:1004400003D0044B002B00D0984710BD40FFFF1F86
:1004500040FFFF1F0000000010B5074C2378002B61
:1004600009D1FFF7D5FF054B002B02D0044800E06F
:1004700000BF0123237010BD40FFFF1F00000000DC
:10048000A8660000054B10B5002B03D004490548B1
:1004900000E000BFFFF7CCFF10BDC0460000000029
:1004A00044FFFF1FA8660000402292029A1A92465B
:1004B0007047C046154B002B00D1114B9D46FFF7EE
:1004C000F3FF00218B460F461148124A121A00F022
:1004D00005F90C4B002B00D098470B4B002B00D09C
:1004E00098470020002104000D000B4800F02EF872
:1004F00000F06AF82000290001F026F900F03AF82F
:1005000000000800000000000000000000060020BD
:1005100040FFFF1F24020020A105000072B606481C
:100520000649074A02600A6002F04CFB02F08CFBAD
:1005300062B6FFF7BFFF000080E100E080E200E06C
:10054000FFFFFFFF004800474505000010B5010010
:1005500000230022002000F01FFA10BD10B50A0091
:10056000002100F0BBF810BD014B18687047C04671
:1005700000FEFF1F084B10B50400002B02D0002125
:1005800000F078FA054B1868836A002B00D0984772
:10059000200000F065FCC046750A0000804E000097
:1005A00070B5074D074C641BA41005D0013CA30097
:1005B000EB589847002CF9D106F07CF870BDC04686
:1005C000CC660000D066000070B50C4D0C4E761B5A
:1005D000B61005D0002408CD01349847A642FAD1C0
:1005E00006F062F8074D084E761BB61005D00024C1
:1005F00008CD01349847A642FAD170BDC866000004
:10060000C8660000C8660000CC66000010B5034B49
:100610000100186800F00CF910BDC04600FEFF1F75
:1006200010B5034B0100186800F0ACF810BDC046CF
:1006300000FEFF1FF0B5C64600B50F2A43D90B00D8
:10064000032603431E400C000300002E40D115007A
:10065000103D2D09AC462D01A846804400E03B002A
:10066000676825685F60E7681D60DF601F00A56838
:1006700010379D6010344345F1D165460F230C249B
:1006800001352D01491913404519144223D08C59C5
:10069000AC5104369C1B032CF9D80324043B9B0863
:1006A00001339B002240ED18C918561E002A07D0BE
:1006B000002300E02300CA5C5C1CEA549E42F9D18E
:1006C00004BC9046F0BD0500561E002AF0D1F7E7A5
:1006D000561E0500ECE71A00F6E7C046F0B5050027
:1006E00083074AD0541E002A44D0CEB2030003220E
:1006F00002E00135013C3DD301332E701342F8D1A5
:10070000032C2FD9FF220A40150215432A04154352
:100710000F2C35D92700103F3F093E01B4461E007B
:100720001A0010366644156055609560D560103229
:10073000B242F8D10F260C2201373F012640DB19C7
:100740003700224217D03E1FB608B400A4461A0054
:100750001C1D644420C2A242FCD103240136B60011
:100760009B193C40002C05D0C9B21C1919700133EB
:100770009C42FBD1F0BD3400F4E714000300BFE756
:100780002700E0E770B50500002915D00C1F23688D
:10079000002B27DB280000F0CBF9244B1A68002A35
:1007A00005D0A2420CD921686018824224D0626030
:1007B00028001C6000F0BEF970BDA34203D81A00E7
:1007C0005368002BF9D111685018A0421BD027D8CC
:1007D00021686018834207D063605460280000F0ED
:1007E000A9F9E9E7E418D5E718685B68844661442D
:1007F000216063605460F1E7106852688446614488
:1008000021606260D4E720680918501811608342A3
:10081000E4D118685B688446614411605360DDE789
:100820000C2328002B6000F085F9C5E75CFFFF1F53
:10083000F8B50323CD1C9D43083506000C2D2AD2A4
:100840000C25A94229D8300000F072F92A4F3A68E5
:10085000002A0AD013685B1B04D441E023685B1BA9
:100860001FD522005468002CF8D17B68002B3DD0A6
:100870002900300000F042F8431C2AD00323C41C96
:100880009C43A04205D0211A300000F037F8431CE9
:100890001FD0256010E0002DD3DA0C230020336038
:1008A000F8BD0B2B05D86368A2421DD0536003E04E
:1008B00014002360E4182560300000F03BF92000AC
:1008C00007220B30231D9043C21AE9D01B1AA350F4
:1008D000E6E70C233000336000F02CF90020DFE75E
:1008E0000B2BE5D8140053683B60E5E7002130008E
:1008F00000F004F87860BBE75CFFFF1F002370B5D1
:10090000064C05000800236000F0ACFA431C00D040
:1009100070BD2368002BFBD02B60F9E7200200207C
:1009200003000A7801311A700133002AF9D17047A7
:1009300010B5830727D00378002B26D003000321AE
:1009400002E01A78002A1CD001330B42F9D1196851
:100950000F4A104C8A188A4322420FD10433196877
:100960000B4A8A188A43224208D104331968084A7C
:100970008A188A432242F1D000E001331A78002A13
:10098000FBD1181A10BD0300E1E70020FAE7C046CA
:10099000FFFEFEFE80808080F0B546464F46D6467C
:1009A000C0B51F002F4B82B01C6805000E0090469A
:1009B000002C2DD063681F2B50DC002D1CD088220A
:1009C000A0589146002834D07832825894469A0034
:1009D00091468144424649460A6001216246994057
:1009E0000A43944680228A46614652008150494615
:1009F000803A8F50022D16D000205A1C02339B00E3
:100A000062601E5102B01CBC90469946A246F0BDE1
:100A1000154C1C60154B002BCCD01B680193882310
:100A2000019AE250C6E75546843281580D438550FD
:100A3000E2E70F4B002B11D084204000FFF7E6FDCA
:100A400000280BD0802200235200835004328350B0
:100A50004B460022E05094466368B8E701204042CC
:100A6000D0E7C046F0FFFF1F64FFFF1F000000003B
:100A70000D060000F0B5DE464E46454657462B4B68
:100A800088469B46E0B51E6883B00190002E45D095
:100A900088237568F7586C1E40D40135AD00783353
:100AA00075199A460AE0002F05D03B00A20080335A
:100AB0009B58434505D0043D013C2FD34346002BB2
:100AC000F1D173682A68013BA34222D000232B6036
:100AD000002AF0D073689946002F18D001235146A0
:100AE000A3407958194212D0822040003858A10002
:100AF0007958009018420ED1019890475B46726871
:100B00001B684A4501D1B342D5D01E00BEE79047CD
:100B1000F4E77460DCE708009047EFE703B03CBC03
:100B200090469946A246AB46F0BDC046F0FFFF1F77
:100B30007047C0467047C04602B471464908490034
:100B4000095C49008E4402BC7047C04603B471463C
:100B5000490840004900095E49008E4403BC7047C3
:100B600003B47146490840004900095A49008E44BF
:100B700003BC7047002243088B4274D303098B42A5
:100B80005FD3030A8B4244D3030B8B4228D3030C5D
:100B90008B420DD3FF22090212BA030C8B4202D3FF
:100BA0001212090265D0030B8B4219D300E0090A27
:100BB000C30B8B4201D3CB03C01A5241830B8B4230
:100BC00001D38B03C01A5241430B8B4201D34B0319
:100BD000C01A5241030B8B4201D30B03C01A52417E
:100BE000C30A8B4201D3CB02C01A5241830A8B4203
:100BF00001D38B02C01A5241430A8B4201D34B02EC
:100C0000C01A5241030A8B4201D30B02C01A52414F
:100C1000CDD2C3098B4201D3CB01C01A5241830903
:100C20008B4201D38B01C01A524143098B4201D33D
:100C30004B01C01A524103098B4201D30B01C01A68
:100C40005241C3088B4201D3CB00C01A52418308E2
:100C50008B4201D38B00C01A524143088B4201D30F
:100C60004B00C01A5241411A00D20146524110466F
:100C70007047FFE701B5002000F0F0F802BDC04664
:100C80000029F7D076E7704703460B437FD4002254
:100C900043088B4274D303098B425FD3030A8B4210
:100CA00044D3030B8B4228D3030C8B420DD3FF227A
:100CB000090212BA030C8B4202D31212090265D048
:100CC000030B8B4219D300E0090AC30B8B4201D3FB
:100CD000CB03C01A5241830B8B4201D38B03C01A42
:100CE0005241430B8B4201D34B03C01A5241030BB9
:100CF0008B4201D30B03C01A5241C30A8B4201D36A
:100D0000CB02C01A5241830A8B4201D38B02C01A14
:100D10005241430A8B4201D34B02C01A5241030A8B
:100D20008B4201D30B02C01A5241CDD2C3098B4270
:100D300001D3CB01C01A524183098B4201D38B01ED
:100D4000C01A524143098B4201D34B01C01A524190
:100D500003098B4201D30B01C01A5241C3088B42D5
:100D600001D3CB00C01A524183088B4201D38B00C0
:100D7000C01A524143088B4201D34B00C01A524162
:100D8000411A00D201465241104670475DE0CA0F39
:100D900000D04942031000D34042534000229C46F9
:100DA00003098B422DD3030A8B4212D3FC22890103
:100DB00012BA030A8B420CD3890192118B4208D3D9
:100DC000890192118B4204D389013AD0921100E03B
:100DD0008909C3098B4201D3CB01C01A524183094F
:100DE0008B4201D38B01C01A524143098B4201D37C
:100DF0004B01C01A524103098B4201D30B01C01AA7
:100E00005241C3088B4201D3CB00C01A5241830820
:100E10008B4201D38B00C01A5241D9D243088B4276
:100E200001D34B00C01A5241411A00D20146634619
:100E300052415B10104601D34042002B00D549427D
:100E4000704763465B1000D3404201B5002000F0BC
:100E500005F802BD0029F8D016E770477047C04674
:100E6000FEE7C0460A4A0300116810B5002901D107
:100E70000849116010680849C3188B4206D9FFF76A
:100E800073FB0C2303600120404210BD1360FCE79C
:100E9000F4FFFF1F28020020280200208378022090
:100EA0009842804140427047437A0020013B012B29
:100EB00003D90B78013001330B707047C023174AF8
:100EC0009B001360164A1360164A13600023164AEB
:100ED0001360164A1360164A1360164A1360164AC6
:100EE0001360164A1360164A1360164A1360164AB6
:100EF0001360164A1360164A1360164A1360164AA6
:100F00001360164A1360164A1360164A1360164A95
:100F10001360164A1360164A136070470090145409
:100F200004901454089014540C90145410901454B9
:100F300014901454189014541C9014542090145469
:100F4000249014543090145400A0145404A0145449
:100F500008A014540CA0145410A0145414A0145439
:100F600018A014541CA0145428A014542CA01454D9
:100F700034A0145403003038092805D91A00613A06
:100F8000052A02D8573B180070471A00413A002042
:100F9000052AF9D8373BF6E710B5002003F01CFB13
:100FA000002803D00021080003F00AFB10BD000058
:100FB000024A1368013313607047C04644000020A2
:100FC00010B50721014802F0B5FF10BD00C0074071
:100FD0000122024B52421A607047C046A090044062
:100FE00037B5002002F01DF9C02300240D4A9B00F4
:100FF00013600D4A0D4D13600D4A200013600D4B18
:101000002C716C71AC711A68FA239B0053430A4926
:101010002B6003F02FFB2900200001AA03F090FBB6
:1010200037BDC046189014541C9014549C000020E6
:1010300000A0145480FEFF1F6C00002010B5802417
:10104000002003F059FB0A4B64001C60094B072089
:101050001C60094B1C6002F095FB062002F092FB1D
:10106000200002F08FFB002002F0E0F810BDC04627
:10107000189014541C90145400A0145410B500205F
:1010800002F0DEF88023054A9B001360044A00202A
:101090000449136002F052FC10BDC0460CA0145469
:1010A00010A014544800002010B5002002F082FC6B
:1010B0000020034B1860034B186002F0C6F810BD07
:1010C0000CA0145410A01454062010B5FF3002F0E8
:1010D00059FB024B186801F076FE10BD88FEFF1F19
:1010E0000FB41FB506AB02CB00200393402303AA25
:1010F0000093064B01F020FC002803DA002004498D
:1011000001F03EFB05B008BC04B018470100002008
:101110000865000070B5784D04002B88834200D12B
:1011200081E0764B764AC3189BB2934200D9DEE049
:101130008023744A5B001360734A1360734A136020
:10114000734A1360734A1360734B984200D194E062
:101150002AD8724B984200D174E015D8C83B984207
:1011600067D009D8C83B984244D06D4B98425BD0B9
:101170006C48FFF7B5FF4DE06B4B9842F8D10C205F
:10118000FF3002F0F1FA58E096231B01984266D036
:10119000664B984200D16BE0654B9842E8D10C2039
:1011A000FF3002F0E1FA51E0624B984200D183E057
:1011B0000FD8C83B984200D170E05F4B984200D1F5
:1011C00075E05E4B9842D3D10C20FF3002F0CCFA90
:1011D00057E0C8231B01984200D17AE0584B98424F
:1011E00000D17FE0574B9842C2D10C20FF3002F073
:1011F000BBFA65E00C20FF3002F0C4FA8520400005
:1012000002F0C0FA0820FF3002F0BCFA8320400050
:1012100002F0B8FA4C4B186801F0D5FD0620FF30FB
:1012200002F0A2FA2C8070BD0C20FF3002F09CFA74
:10123000E4E70C20FF3002F0A5FA8520400002F020
:1012400093FADFE70C20FF3002F09CFA8520400083
:1012500002F098FA0820FF3002F086FAD6E70C2058
:10126000FF3002F08FFA8520400002F07DFAF1E7AE
:101270000C20FF3002F078FAF5E70C20FF3002F086
:1012800081FA8520400002F07DFA0820FF3002F04C
:1012900079FA8320400002F067FABBE70C20FF30A8
:1012A00002F070FA8520400002F05EFAEDE70C20B3
:1012B000FF3002F059FAF5E70C20FF3002F062FA35
:1012C0008520400002F05EFA0820FF3002F04CFA60
:1012D000DFE70C20FF3002F055FA8520400002F0D5
:1012E00043FAF1E70C20FF3002F03EFAF5E7010087
:1012F0001648FFF7F5FE96E774FEFF1FF8F8FFFFAC
:10130000DC05000014A0145418A014541CA014549C
:1013100028A014542CA01454280A00009808000097
:101320006C070000844E000034080000C40900006F
:10133000FC080000B80B0000540B00008C0A0000F1
:10134000E40C00001C0C000088FEFF1FB14E0000E2
:1013500010B50400002901D0FFF7B0FD00210220E4
:1013600000F064FF2100042000F060FF002802D09C
:101370000148FFF7B5FE10BDE94E0000F8B50E00BC
:10138000040026481500FFF7ABFE2548FFF7A8FE2E
:10139000320021002348FFF7A3FE234B234819689E
:1013A000234B244E1A68244B244F1B68FFF798FEEA
:1013B000234B244CF958244872693368FFF790FE98
:1013C00021786278A3792148C9B2D2B2DBB2FFF7A3
:1013D00087FE1F4B217A227E1B781E48C9B2D2B2EB
:1013E000DBB2FFF77DFE1C4B1C4819785A781C4B6A
:1013F000C9B21B69D2B2FFF773FE1A4B1A4899782B
:101400001A4BC9B2FA587368FFF76AFE184B2A786C
:1014100019681848FFF764FEF8BDC046474F000042
:10142000874F0000B94F000078FEFF1FED4F00000E
:1014300080FEFF1F00D003408CFEFF1F00700440A1
:101440003C10000000400640245000005A500000AC
:10145000005006408950000000E00740B9500000ED
:1014600000ED00E000D00740F35000003410000011
:10147000440000202B51000010B501F08DF9002828
:10148000FBDB10BD70B5FFF7F7FF0400FFF7F4FFBB
:10149000FF26050020003040FFF76CFD0400280007
:1014A0003040FFF767FD24012018C0B270BD70B551
:1014B000FFF7E2FF0600FFF7DFFF0500FFF7DCFFA5
:1014C0000400FFF7D9FFFF22FA23642116401540DC
:1014D000303E14409B00303D4D4373435A39303CFD
:1014E0004C435B1910401B193038181870BD0000B0
:1014F000F0B591B01D0016AB0C91197817AB0592A1
:101500001A7818AB1B7804000D931CAB1B780EA83F
:101510000E931DAB1B88089321231B18DB7F0993B7
:101520001FAB1B880F9320AB1B780A930B1C9142B7
:1015300000D9131CDBB20293059B002D05D1002BB3
:1015400005D15848FFF7CCFD01E0002BF9D100266A
:1015500037000898FFF7DEFD2000FFF7C1FD089C6B
:101560000496069600230793079B199A934200DC82
:1015700095E00E9B002B06D0029B0D9A0133DBB247
:1015800002939342EED9069B3900FA184648FFF7BA
:10159000A7FD322001F017FC3A00099B049943484B
:1015A000FFF79EFD322001F00EFC31004048FFF7AE
:1015B00097FD322001F007FC11B0F0BD039A029BA9
:1015C000944663440B932C226B469B181878012198
:1015D0000C9B984700284BD1089B01379C4204D9AB
:1015E000643CA4B22000FFF795FD002D2AD0EB68E3
:1015F000099A9B789B1A5A425341049AD318049330
:101600000A9B002B0ED0EA68EB68E8685B7880786C
:101610009C460299039B1278C9180090634625489E
:10162000FFF75EFD1B9B002B02DD180001F0CBFBDA
:10163000039B01330393039B1A9A9342BEDB079BE0
:10164000013390E7059B099A9B789B1A5A425341B4
:10165000049AD31804930A9B002BE3D0059B0399AB
:101660009A78029B1448D2B25918FFF739FDD9E78E
:1016700002280FD10B991148FFF732FD069B013369
:1016800006930F9B9C42CDD26434A4B22000FFF796
:1016900041FDC7E70338434258413618C2E70023EB
:1016A000C8E7C046844E0000A6510000BE510000AD
:1016B000EF510000595100007E510000935100008D
:1016C00070B50C00160088B00CAA157806A9088021
:1016D0000A4A05A805700A4D12682D684A6004AAD6
:1016E00016700193009023000020029502F08AFA00
:1016F000002800D0022008B070BDC04678FEFF1F51
:101700007CFEFF1FF7B56A46CB1DDB08DB00D31A52
:1017100002AF9D460C000500FFF762FC0021094B5B
:1017200002AE1B682A00019300943300080003F006
:1017300063F80400FFF782FC002C00D00424BD46AF
:101740002000F2BD84FEFF1FF0B5BDB029AC07221A
:1017500000212000FEF7C2FFD64A01253092032265
:1017600019AB33931BAB34931DAB369321AB38933A
:1017700023AB399325AB3A9327AB1FAE15A90020B5
:101780003B9330AB1A71329118932570359437968C
:1017900001F032FD280001F02FFD8022C64B12021D
:1017A0001A6001F02FFB002300951A0019001800A1
:1017B00001F002F8C148FFF793FCFA20800001F025
:1017C00002FBBF48FFF78CFCFA20800001F0FBFA17
:1017D000BC48FFF785FCFA20800001F0F4FABA4A11
:1017E0002B000221B94801F031FB2900280001F04B
:1017F00039FB002002F02EFE9C210027B44B38005C
:101800002D9308AB5B181F80023108AB5B182DA924
:101810001F702E9502F04AFE2A00390015A8FEF727
:101820005DFF5820299B08A91D93A28809180A80EA
:10183000A279023008A909180A700322063808A9FB
:1018400009180A701F93A2880C38B280A27908A9DF
:10185000B271052232701993A28809180A80A27900
:10186000023008A909180A704421022608AA521851
:1018700016701B93A288063008A909180A80A2795D
:10188000801908A909180A700422063808A909183D
:101890000A702193A2881C3008A909180A80A2792D
:1018A000801908A909180A70642108AA5118082289
:1018B00070200A702393A28808A909180A80A279C7
:1018C000801908A909180A706C22092108A8801833
:1018D00001702593A3880C3208A880180380A3798F
:1018E0007A2408A8001903700A2308A8063C0019E6
:1018F00003707C2008AB1B1818AA1F7033A82B009C
:1019000001F0FEFC7348FFF7EBFB3900300000F0FC
:101910008DFC082203009343DBB20D90BB4202D042
:101920006D48FFF7DDFB6D48FFF7DAFB6C48FFF70A
:10193000D7FB6C496C4801F0FDFE6C4C0027200081
:10194000FFF7CEFBC0236A4A9B001360694A6A48CE
:1019500013606A4A1360FFF7C3FBFFF7AFFA20007A
:10196000FFF7BEFBE1211C20C90000F013FD01229E
:10197000634B64481A70FFF7B3FB03230F970E9372
:10198000614C3900208815AA80B2FFF7F7FC5F4848
:10199000FFF7A6FB5E48FFF7A3FB5E48FFF7A0FB3F
:1019A0005D48FFF79DFB5D48FFF79AFB5C48FFF73A
:1019B00097FB5C48FFF794FB5B48FFF791FB5B48A4
:1019C000FFF78EFB5A48FFF78BFB39000E9A5948F8
:1019D000FFF786FB5848FFF783FB5848FFF780FB6B
:1019E0005748FFF77DFB5748FFF77AFB5648FFF74C
:1019F00077FB5648FFF774FB5548FFF771FB5548D6
:101A0000FFF76EFB5448FFF76BFB5448FFF768FB8A
:101A10005348FFF765FB5348FFF762FB5248FFF757
:101A20005FFBFFF729FDFF21060001400A2900D1D5
:101A300087E308004638342800D9D9E0FFF790F84A
:101A40007203D800D800D800D800D800D800D80039
:101A5000D800D8007B03D8006C03D800D800D80089
:101A6000D800D800D800D800D800D800D800D800B6
:101A7000D800D800D8009800DA00EC00FC0006017D
:101A80000F0148015301D8006401C201CF01CF0109
:101A900009020E021102D8001E022802B402190324
:101AA000D800D8002603D8002E03304B0F93012313
:101AB00065E7C046A90E0000140200200452000091
:101AC0001F5200002552000064FEFF1F28FFFF1F69
:101AD000E00701002E520000535200008752000020
:101AE0008F52000098FEFF1F90FEFF1FD252000091
:101AF0000090145404901454AC52000008901454F4
:101B000000000020CD52000074FEFF1FD9520000DB
:101B1000E3520000005300001C5300003853000043
:101B2000555300007C5300009B530000C753000036
:101B3000F2530000155400004454000060540000AB
:101B400084540000A8540000CF540000F754000053
:101B50001555000032550000515500007055000029
:101B60008A550000B5550000E0550000F8FFFF1F42
:101B7000CA48FFF7B5FACA48FFF7B2FAC948FFF7F3
:101B8000AFFAC948FFF7ACFAC848FFF7A9FAC84846
:101B9000FFF7A6FAC748FFF7A3FAC748FFF7A0FA6E
:101BA000C648FFF79DFAC648FFF79AFAC548FFF7FF
:101BB00097FAC548FFF794FAC448FFF791FAC4486A
:101BC000FFF78EFAC348FFF78BFAC348FFF788FA8E
:101BD000C248FFF785FAC248FFF782FAC148FFF70B
:101BE0007FFAFFF749FCFF210140352900D15CE76E
:101BF000BD480EE0BD48FFF773FAFFF758FCBC4B39
:101C0000BC4A18601968914201D1BB4A1A60196830
:101C1000BA48FFF765FAB3E6B948FFF761FAFFF78C
:101C200046FCB84BB34A18601968914201D1B24AD8
:101C30001A601968B448ECE7B448FFF751FAFFF7A7
:101C400036FCB34B18601968B248E2E7B248FFF7B8
:101C500047FAFFF717FC07000100B048D9E7B04882
:101C6000FFF73EFAFFF70EFCAE4D0100040028001E
:101C7000FFF736FAAC48FFF733FAFFF703FC16AE6E
:101C8000010030702800FFF72BFAA848992C38D0B3
:101C9000974B2BAD1B682C802C93A54B188880B2DA
:101CA000FFF738FAFFF7EAF9A24B17AA1B6817707B
:101CB00002930123290000200193009601F0A2FF66
:101CC000011E02D09C48FFF70BFAFFF7EDF957E62B
:101CD0009A48FFF705FAFFF7EAFB80B220802188D7
:101CE000974889B295E79748FFF7FAF9964C200094
:101CF000FFF7F6F92000FFF7F3F99448FFF7F0F942
:101D00009348FFF7EDF93BE639009248FFF7E8F911
:101D1000FFF7B2FB10909048FFF7E2F9FFF7ACFB3A
:101D200011908E48FFF7DCF9FFF7A6FB12908C4864
:101D3000FFF7D6F9FFF7BBFB06008A48FFF7D0F99B
:101D4000FFF7B5FB05008848FFF7CAF9FFF7AFFBBF
:101D500004008648FFF7C4F9FFF794FB2B003A0014
:101D600013900E9982480096FFF7BAF9704B0E9ABD
:101D70001B889BB2022A21D07E48032A1FD01298CA
:101D800007933038421E90410A901098139A3038C9
:101D9000431E984131230293002306901198A4B268
:101DA000303808920490744A74497548099405962D
:101DB000039501930097FFF79BFB86E77148FFF7B8
:101DC0008FF982E77048FFF78BF90124200000218A
:101DD000FFF7BEFA21003C20FFF7BAFAF6E75948B0
:101DE000FFF77EF96948FFF77BF9FFF74BFB8C2380
:101DF00008AAD21810706648FFF772F9FFF757FB70
:101E00008C2308AAD3181A782388F6B2050001009B
:101E10009BB26C2E10D15F48FFF762F90024AC42F0
:101E200000DBADE52BAB1A7800230121FF200093E6
:101E3000FFF746FC0134F2E75748FFF751F9002459
:101E4000AC4200DB9CE501212BA8FFF75BFC0134D1
:101E5000F6E7208880B2FFF75DF991E5FFF734F9E6
:101E60008EE50021022000F0E1F9031E0D9000D163
:101E700086E54A48082B00D182E542E70021082088
:101E800000F0D4F90D9B4648002B00D178E538E7E7
:101E90002C48FFF725F9434833E7C046F3550000C7
:101EA000FE5500003C5600007E560000BF56000064
:101EB000FF5600002F5700006C570000AB57000082
:101EC000E95700002658000064580000A15800009F
:101ED000E05800001D5900005A59000095590000B3
:101EE000D25900000F5A0000235A00003F5A000048
:101EF00078FEFF1F0F270000102700006D5A00001A
:101F00008D5A000080FEFF1FBB5A0000D55A00000A
:101F10008CFEFF1F045B00001F5B0000555B000090
:101F20006C5B00009F5B0000B55B0000DE5B0000A7
:101F300074FEFF1F7CFEFF1F045C0000255C000098
:101F40005E5C00008D5C0000BB5C0000EB5C000090
:101F50001C5D00004E5D0000885D0000B15D00006A
:101F6000CA5D0000095E0000355E00006D5E000085
:101F70009E5E0000145F0000F8FFFF1FCD230000ED
:101F8000DB5E0000E95E0000455F0000685F000066
:101F9000875F0000A75F0000F25F00003D60000067
:101FA0009B600000F86000002BA9002001F0ECF815
:101FB000FA212B988900FEF7DDFD01006248FFF74A
:101FC0008FF801F033FB01006048FFF789F800F05B
:101FD000C7FF01005E48FFF783F85E4B5E48196853
:101FE0004B1E9941FFF77CF8002001F024F9010015
:101FF0005A48FFF775F8002001F02CF90100584805
:10200000FFF76EF8002001F02AF901005548FFF7AC
:1020100067F8002001F0F8F801005348FFF760F876
:10202000012001F0F1F801005048FFF759F8504B3A
:10203000504819684B1E9941FFF752F8002001F0F3
:10204000EBF801004C48FFF74BF84C4B4C48196833
:102050004B1E9941FFF744F84A4B4B4819684B1EF9
:102060009941FFF73DF8002001F0FEF801004748D4
:10207000CFE50F9B4648002B00D142E64548FFF7CD
:102080002FF8FFF7FFF90F9B587079E44248FFF7EC
:1020900027F8424800F097FE414832E64148FFF7F2
:1020A0001FF8FFF7E9F9C0B2683843425841C3B29C
:1020B0003D480D93FFF714F8FFF7F9F984B22100BA
:1020C0003A48FFF70DF80121002000F069F90700F8
:1020D0003748FFF705F83748FFF702F83648FEF7AC
:1020E000FFFF3648FEF7FCFF0026354D31002A6819
:1020F00034486B68FEF7F4FF0D9800F0A5F92968E5
:102100003B006A683048FEF7EBFF002C02D020004D
:1021100000F059FE0136E8E72C48FEF7E1FF2C48B5
:10212000FEF7DEFF2948FEF7DBFF2A48FEF7D8FF5F
:102130002948FEF7D5FF2548FEF7D2FF2748FEF7CE
:10214000CFFF2748DDE5C04624610000366100006E
:102150004C6100003C80845E73610000846100007B
:1021600095610000A6610000BA610000CE61000028
:102170003C800450E2610000F36100003480845927
:10218000046200003480045A1562000027620000D7
:102190003862000076620000AE6200001027000086
:1021A000CD620000D76200000063000048630000B9
:1021B00080630000AA630000CC630000695B00003C
:1021C00000D00340F16300000464000015640000C7
:1021D000376400005764000090640000AB640000A6
:1021E000D66400001FB5040001A9002002F086F9A2
:1021F000694601A802F0C0F8009B68461C1901A9B5
:10220000009402F041F8012201A9002002F0A2F995
:102210001FBD00000022034B1A608022024BD20532
:10222000DA67704700901C5804E100E070B50D00BB
:102230000A2408281CD8FEF77FFC051D2A3F546796
:1022400071795C0001F0F2F90524012810D0FFF744
:10225000E1FF2800FFF7C6FF0021080001F072F837
:1022600001210400002000F0FDFD002C22D10024FB
:10227000200070BD01F0DAF906240128F8D0FFF73C
:10228000C9FF2800FFF7AEFF00210120E6E701F0BB
:10229000CDF908240128EBD000F062FE002803D01D
:1022A0000121002000F0DEFD0021022001F04AF8AB
:1022B0000028DCD00924DBE701F0B8F90724002866
:1022C000D6D0FFF7A7FF2800FFF78CFF00210320DF
:1022D00001F038F8040001F0A9F901210028C4D167
:1022E000C1E7FFF797FF2800FFF77CFF00210420DC
:1022F000EEE70021082001F025F8041EDAD10121C3
:10230000080000F0AFFDB3E7FFF784FF2800FFF7F8
:1023100069FF0021052001F015F8CBE7FFF77AFFF0
:102320002800FFF75FFF00210620F4E7FFF772FFA8
:102330002800FFF757FF00210720ECE7F0B5060063
:102340000D00114B89B05A7806AC22800F4A05AFB8
:1023500012680792D88880B2FEF7DCFE3E7004AEA9
:102360003570FEF78BFE0A4B3A001B682100029382
:10237000012300200193009601F044FC002800D0C6
:10238000022009B0F0BDC046F8FFFF1F78FEFF1F16
:102390007CFEFF1F014B5870D9807047F8FFFF1F6C
:1023A00070B50400084B0D00D88880B2FEF7B2FE6D
:1023B00021000920FFF7C2FF290004002A20FFF7AF
:1023C000BDFF2043C0B270BDF8FFFF1F70B588B0DD
:1023D0006A46184B04001B780E001375182822D883
:1023E000C31F0320012B23D9134B06AD5A782A8033
:1023F000124A12680792D88880B2FEF78BFE6B46AD
:102400001C75FEF73BFE0E4B29001B680020029353
:102410000C4B0196009305AA012301F000FC002853
:1024200006D0022004E023001D3B0320142BDBD93F
:1024300008B070BD2E650000F8FFFF1F78FEFF1F7B
:102440007CFEFF1FFAFFFF1F70B5324C0500E088CD
:1024500080B2FEF75FFE02210120FFF7B7FFA178EF
:10246000E278C9B2D2B200281DD02B48FEF738FE60
:1024700002210320FFF7AAFFA178E278C9B2D2B205
:10248000002822D02448FEF72BFE02210520FFF76A
:102490009DFFA178E278C9B2D2B2002827D01E48A9
:1024A000FEF71EFE70BD002D03D01C48FEF718FE7F
:1024B000DEE79208890111438022194B92015140B5
:1024C0001848C918FEF70CFED2E7002D03D01348B8
:1024D000FEF706FED9E79208890111438022104BCE
:1024E000920151400F48C918FEF7FAFDCDE7002DC3
:1024F00003D00A48FEF7F4FDD4E79208890111439E
:102500008022074B920151400648C918FEF7E8FDAA
:10251000C8E7C046F8FFFF1F3065000037650000C0
:1025200000E0FFFF476500000369C268934201D8DD
:1025300080681B18013B981A7047F7B58368C46818
:1025400001931F1B436805000E001819A418974239
:1025500007D83A00FEF76EF8019B6868E41A22007B
:10256000F119FEF767F8EC60F7BD0023F7B5060038
:102570001700C568019100933369B4689D421FD26A
:10258000013B5B1B641BBC4200D93C009C4200D950
:102590001C007368220058190199FEF74BF8009B44
:1025A0002D191B190093019B3F1B1B190193B36845
:1025B000AB4200D10025F560002FDDD10098FEBDB3
:1025C0001B19DDE7022310B50F4C104A236163612C
:1025D0000F4BA261E3616423A2640E4A2362E264AA
:1025E00000230422A3626362E362A3656365E3657B
:1025F00022650949E01DFEF793F920000749FEF71F
:102600008FF92023A37110BDA40000204C650000A9
:10261000200100201C0100205565000059650000C4
:10262000F0B5274B85B01B780E0002900192002B6D
:1026300001D1FFF7C7FF1823029A00255343204A10
:10264000D3185A6D9C6D0392944219D91B6D019D4C
:102650001B1B9D4200D91D001827029B30005F43C1
:10266000174B2A00DF19FB6C76191919FDF7E2FFE9
:10267000019B64195B1B01933B6DA34200D10024B5
:10268000039B019F1B1B9F4200D91F00002F0CD0F2
:102690001823029A30005343094AED19D318D96C14
:1026A0003A000919FDF7C6FFE419002D05D01823DB
:1026B000029A03485343C0188465280005B0F0BD52
:1026C000A400002010B50B00EFF31084012181F36A
:1026D00010881900FFF7A4FF84F3108810BD0000D4
:1026E000F8B516001822451C55434243164B0F00FF
:1026F0005D199B18DC6A012C10D0022C1BD0002C19
:102700001FD12800FFF710FF864205D8320039009C
:102710002800FFF712FF34002000F8BD2800FFF763
:1027200003FF3400864200D904002200390028004B
:10273000FFF703FFF0E732002800FFF716FF040061
:10274000EAE70024E8E7C046A4000020F8B50B4BF8
:1027500004001B780E001700002B01D1FFF732FF99
:10276000EFF31085012181F310883A003100200039
:10277000FFF7B6FF85F31088F8BDC046A40000201F
:1027800070B5050008000C00FEF7D2F82100020029
:102790002800FFF7DBFF70BD13B56B46DC1D01227F
:1027A00021000020FFF78EFF012801D1207816BDFF
:1027B00001204042FBE70000F7B5164C0193237857
:1027C00005000F001600002B01D1FFF7FBFE236967
:1027D000AB421CD9EFF31082012181F31088002D48
:1027E0000CD01823691C59436B43675061184E6025
:1027F0000199E31819620021996259621820454332
:10280000089B6419E36282F310880020FEBD01205A
:102810004042FBE7A4000020826810B50400406835
:10282000531C834205D820688154A360E3680133B8
:10283000E360A26863689A4209D121682069FFF7C2
:1028400085FFA368984203D001235B42E36010BD7B
:102850000023A360FBE70000F0B5050017000800A7
:10286000012685B00A9C02910093B84219D2009AC1
:102870000196964200D2019201230B9A1A400392CC
:102880000B9A1A4202D1002C10D10024EB680126C9
:10289000002B4BDB009B012B1FD9013B00937E4398
:1028A000F8E73900FEF766F90136DEE70B9B2026D4
:1028B0009B0704D5009B1036002B00D0103E019BD7
:1028C000A342E3D231002800FFF7A6FFEB68013CEA
:1028D000002BDBDB002CF2D1D7E731000298FEF7AA
:1028E00049F98742DBD902983100FEF7C9F9114B4B
:1028F0000291195C2800FFF78FFFEB68002B05DBC6
:1029000039003000FEF736F9BE4211D2039B002B8E
:102910000CD0002C0AD0019BA34207D22021280012
:10292000FFF77AFFEB68013C002BF2DA05B0F0BD4F
:102930000600D8E760650000F0B58FB007900E0084
:102940001800149915000693FDF708FE069B079AD8
:102950000993149B0D920A9300230B930C933178E7
:102960000136002907D10C9B0293002B00DD09E101
:102970000C980FB0F0BD252900D0B3E00027082245
:10298000042006E0302B0DD1022300E001231F4379
:102990000E003378711C2D2BF8D0F3D8232B10D0D8
:1029A0002B2B0CD000240A213378721C18003038ED
:1029B000092808D84C43303C16001C19F4E707439B
:1029C000E6E71743E4E7002102912E2B0ED1160013
:1029D0000A203278711C1300303B092B06D8029B69
:1029E0000E004343303BD3180293F2E704233178BF
:1029F0000A0001369A43682A01D13178F8E778292C
:102A000009D86F290BD8632967D017D8252969D031
:102A1000582900D195E00C9B002BA0DAA3E7703970
:102A200008000829F7D8FEF791F8A500F6FFF6FF91
:102A30009400F6FF8300F6FFF6FF8C006429EAD1CC
:102A40002B681A1D1B682A60DA1798180393012354
:102A500050400493092849DC029B049A0593934251
:102A600000D20592002C05D0039B002B01DB7B07D5
:102A700000D5013C02231F4202D0029B002B05D04F
:102A800001231F4202D1002C36D100240C9B049359
:102A9000002BC0DB039B002B3ADA2D215B42039312
:102AA00009A8FFF7B9FE0C9B002BB4DB03233B40C6
:102AB000022B05D1029B002B02D1002C2CD100242B
:102AC0000C9B0493002BA6DB0A22029B039901971F
:102AD000009409A8FFF7C0FE9DE72B6819681A1D2E
:102AE0002A60C9B209A8FFF797FE94E70A21FEF70A
:102AF000CBF8049B0133ACE7059BA342C6D220214F
:102B000009A8FFF789FE0C9B013C002BBBDABDE74F
:102B10007B07C8D52B21C3E7059BA342D0D2302128
:102B200009A8FFF779FE0C9B013C002BC5DAC7E72B
:102B30000A22296801970B1D2B60029B00940968EB
:102B4000C7E7296801970B1D2B60029B0094102298
:102B5000F5E72B681A1D2A601C68217801340029CA
:102B600000D158E709A8FFF757FE0C9B0293002BF2
:102B7000F3DA50E729680B1D2B600023019308331B
:102B80000093E4E70B9A002A03D006990798FFF711
:102B9000DDFD0C9B02930B9B0393039A029B9446CF
:102BA00063440C93E4E610B5002000F0F9FD10BD7D
:102BB00010B5002001F02CFD10BD10B5002001F073
:102BC00005FA10BD082310B5164A9178194202D0B3
:102BD00091780B439370882100222220124B4901E7
:102BE0005A501249124C0870802012494002585025
:102BF0001968114801401960195910480840C0214E
:102C000089040143195180210D4B1A7219767F39BD
:102C10001A7059700B490A700C3299791142FCD123
:102C200010BDC04600D007400070044000E00740DF
:102C30000410000044100000FFFFF3FFFFFFFFF04F
:102C400000400640005006401249134810B581422A
:102C500005D00022114B9B089B009A420FD1104BCC
:102C6000104A9960002310491048521A9A420AD11A
:102C700000210F4B0F4AD21A013A08D210BD8458D6
:102C80008C500432E9E7CC5CC4540133EEE7197090
:102C90000133F1E700000000000000000000000028
:102CA00000ED00E010680000D066000000FEFF1F8D
:102CB00040FFFF1F24020020030041700020187015
:102CC00058609860704710B5437804000120FF2BCE
:102CD00008D000F0DDFA63780133DBB2637000F0F6
:102CE000CBFA002010BD0020704770B504000D0025
:102CF00000F0CEFAE1682943E16000F0BDFA00205F
:102D000070BD000000220A4B9A641A0040329A6398
:102D10001A0030329A621A0020329A611A00103278
:102D20009A60044A1360044B9B60DB607047C046A6
:102D30008801002084010020D80100200022024BDD
:102D40001A60186880B270470C007C5070B54378E8
:102D500004000D00002B0BD0002500F099FA6378D9
:102D6000013BDBB26370257000F086FA280070BD6D
:102D700002200029FBD02378002B17D0FFF7DEFFBD
:102D80006368A268834204D8C01A824206D3032033
:102D9000EDE7C01A80235B02C018F6E700F078FA6E
:102DA0000023237000F068FA0220E0E74B1CEED00D
:102DB00000F06EFA0123237000F05EFAFFF7BEFF09
:102DC000A5606060E3E770B50500FFF7B7FF8026F8
:102DD00004007602FFF7B2FF0300844203D8031B0E
:102DE0009D42F7D270BD301BC318F9E710B501281A
:102DF00001D100F04DFA10BD10B5012801D100F04D
:102E00003BFA10BD10B5FFF77DFF01230020084AF3
:102E100008491360084A094C1060086004212160C9
:102E2000074C216007490B6007490860136010BD1B
:102E30003880045000008450000004500000045109
:102E40000400045104000C500000045310B5044C5D
:102E5000206021710020A2602373637310BDC046FF
:102E6000E80100200422F0B587B005AC3B4E01908C
:102E700002912070617033790092834226D900223A
:102E8000337B1500737301230092A3700393334FB8
:102E90003B7BAB421DD8009B002B02D0029B012B39
:102EA00048D10120FFF7A2FF0C20019B00255843C9
:102EB0003368181800F0D6F8019B012073710226C0
:102EC000FFF79AFFA6703B7BAB421AD8009807B079
:102ED000F0BDBA68AB009B58002B0FD01A7903994C
:102EE0000A420BD020001A6899689047002805D044
:102EF000029B7D73002B1BD0052300930135EDB29F
:102F0000C5E7BA68AB009B58002B0ED01A79324245
:102F10000BD020001A6899689047002805D0029BC2
:102F20007D73002B17D0062300930135EDB2CAE75D
:102F3000052300930023A370013DEDB2FF2DC5D002
:102F4000064BAA009B68D358002BF5D020001A68C6
:102F500099689047F0E706230093B7E7E80100205F
:102F6000014B58797047C046E801002013B50400B2
:102F7000002021780190022920D0032922D00129A4
:102F800025D1227901AB144801F00AF9002814D1A7
:102F9000A3795A1E9341114ADB01137063785A1EBC
:102FA00093410F4A5B001370A2780E4B1A70E278BF
:102FB0000D4B1A7062790D4B1A7016BD0100227903
:102FC00001ABE0E701A9044801F02CF9DEE701A913
:102FD000014801F0C9F8D9E700400640184086537F
:102FE00000408650004006500140065018401650E0
:102FF000084A43099B009B18F822C005120510409F
:10300000184380235B0518430068431E9841C0B2F3
:103010007047C04628800440074A43099B009B181C
:10302000F822C00512051040184380235B051843A1
:10303000002303607047C04628800440F821084AF6
:1030400043099B009B180905C2050A4013438022CF
:10305000520513431F2210401E3A82401A607047E7
:1030600028800440072373B5009300230400104D0B
:103070001A000121280001F0BDFA2000FFF776FFB9
:10308000637A280000930023217A1A0001F0B2FA33
:10309000E379084A9B041360074BA17A1D68280056
:1030A00001F0DCF82800E17A01F0E7F8002076BDB5
:1030B0000070044000700C59C865000010B5054848
:1030C00001F012F8044B1968C9B20131FDF752FD45
:1030D00010BDC0460040064044801C5E10B5FFF79E
:1030E000EDFF10BD10B5054800F0FEFF044B196858
:1030F000C9B20131FDF73EFD10BDC046004006409B
:103100004480145810B5FFF7EDFF10BD0B4B1B6842
:10311000DBB2022B0CD0032B0DD00020834206D152
:10312000074A106880221202904200D018007047AF
:10313000044B1868FBE7FA208000F8E700700C5990
:10314000140200201802002010B5FFF7DFFF10BDA9
:10315000054B10B5186801F088F80023984201D09B
:10316000024B1B68180010BDC86500001402002047
:10317000044B01201B6810B5DBB2002B01D0FFF718
:10318000E7FF10BD0480045210B50C0012282AD8A5
:10319000FDF7D2FC0A0A0A0F290F12152929181B5C
:1031A000292929291E222600FFF788FF20600020F8
:1031B00010BDFFF797FFF9E7FFF7A8FFF6E7FFF766
:1031C000C7FFF3E70A4B2360F1E7FFF7D1FFEDE715
:1031D000084800F089FFE9E7064800F06FFFE5E7DF
:1031E000FA239B00EFE7002302202360E0E7C046BC
:1031F000006CDC020040064010B5024B185CFFF783
:103200001DFF10BD7065000010B5024B185CFFF784
:10321000EFFE10BD7065000010B5BB20FFF7E8FEA3
:1032200010BD10B57620FFF709FF10BD10B5762050
:10323000FFF7F2FE10BD10B57620FFF7D9FE10BDE6
:1032400010B56620FFF7FAFE10BD10B56620FFF737
:10325000E3FE10BD10B56620FFF7CAFE10BD10B525
:103260009420FFF7C5FE10BD10B5024B185CFFF7A8
:10327000BFFE10BD72650000044A1368002B04D025
:10328000013B1360002B00D162B67047F8010020AB
:1032900072B6024A1368013313607047F8010020C8
:1032A00010B5064C064801F037FC042801D1002077
:1032B00010BD013C002CF5D10320F9E7EA03000022
:1032C00000E0074010B50B4B0B490A78002A07D0E5
:1032D000084C0A4801F020FC012806D1002003E038
:1032E000013B002BF1D1032010BD013C002CF0D19B
:1032F000F9E7C046EA03000002D0075100E00740AA
:10330000F7B507000E00150001200193002F15D01E
:10331000002913D0FFF76AFD094C1022002120007C
:10332000FDF7DCF927602671002D03D0019BA56015
:10333000237363730120FFF75FFD0020FEBDC046CD
:10334000FC010020F0B5B14C8DB002900391237BBD
:1033500001206373FFF74AFD2379029A934206D84E
:103360000120FFF749FD022738000DB0F0BD029A99
:1033700023689200D35809AC1D780193039B2A005F
:103380002372029B2370019B636002239A43049281
:10339000012A01D0052D0AD101219D4801F010FB21
:1033A000002807D10120FFF727FD0127DCE70321D3
:1033B000072DF2D80123002763723C000593934E3A
:1033C000337BA3422AD80120FFF716FD914800F075
:1033D000AFFE049B012B4AD10138022835D9039B4B
:1033E000012B00D00DE106270120FFF7FFFC002391
:1033F000012609AD6B72013CE4B2FF2C00D1AFE0B5
:10340000824BA2009B68D358002BF4D01A79324229
:10341000F1D028001A6899689047ECE7B268A300D9
:103420009B58002B0ED01A7905990A420AD01A68C7
:10343000996809A89047002804D0039B0427747357
:10344000012BC0D10134E4B2B9E7FFF75BFE724B48
:103450009842C4D8FFF732FE704EB042BFD8FFF793
:1034600041FEB042BBD8FFF739FEB042B7D8039B4C
:10347000012B00D0C1E00A2D00D9BCE02800FDF7E7
:103480005BFB060A0D1E879A7B822F737800002251
:1034900007AB1A702DE0032207ABFAE75C4801F096
:1034A0003BFB012808D00021594801F099FAFFF7A9
:1034B00009FF071E00D057E7012207ABE9E7544890
:1034C00001F02AFB042808D00221514801F088FAB3
:1034D000FFF7E6FE071E00D046E7042207ABD8E759
:1034E000072207AB1A80019AD2789A70019A127952
:1034F000DA702B00083B022B06D8019B06AA5B79E9
:103500009372019B9B79D372019B5B78002B0AD04D
:10351000012D08D9019B02229978414B00294DD0F9
:1035200019690A431A613A4807A901F07DFA00288F
:1035300000D00327002D45D1FFF7C4FE071E00D0A1
:1035400012E700270120FFF751FC029B2F4D0024BA
:10355000AB73022309AE737201932B7BA34236D85F
:103560000120FFF749FCFFE6082207ABFF321A8073
:10357000BFE72C4A07ABFAE7022207AB1A70022218
:10358000FF329A80B5E7022207AB1A70264AF8E7A5
:10359000022207AB1A70013A1D489A8001F0BCFA6A
:1035A0000128A6D000211A4801F01AFAFFF78AFE76
:1035B000071E9ED0D8E6052207AB6AE7196991433A
:1035C0001961B0E7012DBDD1FFF76AFEB6E7AA6821
:1035D000A3009B58002B0BD01A7901990A4207D0FF
:1035E00030001A6899689047002801D005276C734D
:1035F0000134E4B2B1E70327B6E6002F00D13AE781
:10360000F2E6002F00D0EFE6EDE6C046FC01002018
:1036100000E007400040064040420F0080841E004A
:1036200000ED00E0070300000102000010B50648AD
:1036300001F072FA03000020012B03D00B30042BA1
:1036400000D10A3810BDC04600E00740F7B5FF249E
:1036500003681D4A1E0A26401C40B3009F581B4A9F
:1036600005009B5830000193FFF7C6FD00222100A2
:10367000380001F059FA019BA400E41884232A7948
:103680005B05234352001A6080236A795B0523435C
:103690001A609023AA795B05234312011A600C4B30
:1036A0001C43EB791B042360EB79002B0AD0094BF8
:1036B0009B57002B06D01F2213401E3A9A4013003E
:1036C000054A1360F7BDC046CC650000D465000014
:1036D00000001818DC65000000E100E0F8B5FF24E8
:1036E00005000368114A180A20401C4083009F58B7
:1036F0000F4A9E58FFF780FD38002100012201F09B
:1037000013FA6A682100380001F01DFA88232A7A2A
:10371000A400A4195B05234392001A6098235B055B
:103720001C436B7A9B012360F8BDC046CC6500004A
:10373000D465000070B50C00002807D1002C0FD113
:1037400070BD05000835FFF781FF280003680133CD
:10375000F7D1F3E7250020000C35FFF7BFFF2C0061
:1037600023680133F6D1EBE7FF22030A0449134033
:103770009B0059580123104083404B607047C0465E
:10378000CC650000FF22030A044913409B005958EE
:103790000123104083408B607047C046CC65000019
:1037A000084B8200D258942310B502325B051343B4
:1037B0001B78002B02D000F03FFA10BD00F092FA07
:1037C000FBE7C04674650000020080230C325B05F5
:1037D00013431A78002AFCD00171704770B50D00B0
:1037E000084B8000C458200029001830FFF7AEFABB
:1037F0000328F8D0002801D004232374207CC0B211
:1038000070BDC0460C02002010B5104B8000C4589B
:10381000E37C002B05D0237C052B02D0237C042BDA
:103820000BD10B4B18589823821C5B0513430022C5
:103830001A7001F0F7F901236374A37C002B03D005
:1038400020001830FFF73FFA10BDC0460C020020E0
:1038500074650000F0B51700002289B005930EAB27
:103860001B7805000393830032481E5832481C58C9
:1038700007AB1A80A37C880A04930223FF33638278
:103880008B0A0193CBB21E2801D11A000B0A5B00F0
:10389000D8B2019B00211E2B05D08F4203D10123FA
:1038A00003995B1A59B20143CBB202930299019872
:1038B00007AB197001211E2801D15A704918A36065
:1038C0003000E1600299FFF77FFF28000F99FFF7B2
:1038D00085FF237C002B0CD1002F0AD0059BA7600D
:1038E000E36030003978FFF76FFF28000F99FFF78A
:1038F00075FF237C039A1A4314D1019B1E2B01D020
:10390000002F0FD0002301273000A360E76001F0F3
:1039100077F9029930003943FFF756FF28000F99D5
:10392000FFF75CFF0023207CE374049BC0B2A37408
:1039300009B0F0BD746500000C020020F7B58300EB
:103940000193184B8200D75805000C000126002F68
:1039500026D1154B3900D358200024220193FCF7BF
:10396000BDFE200039001830FFF7A6F92800FFF748
:1039700067FC019801F0EFF80A4BAA00D4501F220F
:103980000A4B5B5D134032009A40094B1A609C223F
:10399000019B520502331343802266743E001A7065
:1039A0003000FEBD0C020020746500007865000048
:1039B00000E100E0F7B50E4E8500AB5900270193FA
:1039C0000C4B0400EA589C2302325B0513431F7022
:1039D000FFF73BFC084B01981A5D1F231A401E3B62
:1039E0009340064A1830D367FFF77DF9AF51F7BD12
:1039F0000C020020746500007865000004E100E01E
:103A00000A4B800070B5C5584B686A690C00934238
:103A10000BD0074BC658FFF765FB00230100626817
:103A2000300001F0A7F863686B6170BD0C020020E4
:103A300074650000F0B587B004920593334A0FAB6C
:103A40001E7883009C580391627C0700002A03D1F2
:103A50000320207407B0F0BD002E01D11E220E926B
:103A60002B4A3800D55800230399E360A3602374E0
:103A700023606374A674FFF7C3FF90231021AA1C70
:103A80005B05134319708423E91C5B050B4302217A
:103A9000197098235B05134302934023029A280070
:103AA000137001F0ADF8039B380019880E9B049A3F
:103AB000019301230093059BFFF7CCFE0D9B002B88
:103AC00017D0237C002B11D10C9B2800A3600D9BE9
:103AD000E3600C9B1978FFF777FE002E03D03800C7
:103AE0000E99FFF77BFE207CC0B2B3E7237C042B4A
:103AF000F9D100230126029A1370EB785B09334257
:103B000002D0280001F08EF86674ECE70C02002069
:103B100074650000F0B589B0079311AB1B7806926D
:103B2000364A029383009C580591627C0600002A65
:103B300003D10320207409B0F0BD029A002A01D1FC
:103B40001E32109200272E4A0599D5580E9B300040
:103B500023600F9BA7606360029BE760A3742774D8
:103B60006774FFF74DFF9023AA1C5B051A431023CF
:103B70001370842304925B05EA1C134302221A701B
:103B80009823AA185B051A43402328001370039258
:103B900001F036F8059B069A1988109B30000193B6
:103BA0000097079BFFF756FE237CDAB2BB4215D184
:103BB000049BA91C1A708C235B050B430F990129E8
:103BC00000D108221A702B79029B002B03D0300001
:103BD0001099FFF703FE207CC0B2ACE7237C042BD6
:103BE000F9D10126039B1F70EB785B09334202D0A9
:103BF000280001F017F86674EDE7C0460C020020BB
:103C0000746500001FB501240394089C0294079C6E
:103C10000194069C0094FFF70DFF04B010BD1FB582
:103C200001240394089C0294079C0194069C009430
:103C3000FFF770FF04B010BD244B70B58400E55849
:103C40008423EA1C5B05134302221A709023A918EF
:103C50005B050B431B78EA78DBB292061DD59422F4
:103C600052050A431278002A17D0194AA458012B8A
:103C700014D1EA781A4204D004332374FFF7C4FD48
:103C80000BE0E368013BE360002BF7D0A36828005A
:103C90005A1CA2605978FFF797FD70BD6268013A1F
:103CA0006260002A06D08C235B05012A0AD000221C
:103CB0000B4309E0FFF7A8FD23685A1C22602A790C
:103CC0001A70EAE708220B431A70F5E774650000E2
:103CD0000C020020C31C84204005184302230370FB
:103CE000704700000122F0B5904B8100CD5889B09B
:103CF000EB1C0193EB7890261B091A4005920122D8
:103D0000EB7876059B091A4002923200AB1D1A43EC
:103D1000944612780090D2B20792942252051A4328
:103D20001278AF1CD0B20390982040050343187856
:103D3000C0B206907E480C58310039430191097891
:103D4000C9B20491002A35D0079A002A0ED0102358
:103D5000624628001370FFF7BDFF236B002B52D083
:103D60006A4601211078626B98474CE0069A002A57
:103D700020D0402228001A70FFF7ACFF23002C331C
:103D80001B78002B03D19822520517433B70236BFD
:103D9000002B04D06A4680211078626B9847E37D3F
:103DA000002B04D0200080211830FEF79EFF0A234C
:103DB000237028E02800FFF78DFF059B002B24D0FF
:103DC000EB1C1E4310233370029B002B10D0EB78AA
:103DD0005B07DA0F002B48DB019B1A70236B002B6B
:103DE00004D06A4604211078626B98472B790AE068
:103DF000082323702C342378002B04D198235B05EF
:103E00001F43029B3B7009B0F0BD029B002BDED12B
:103E1000049B012B54D1EB78049A134230D0019BC0
:103E2000029A1A702B7923002C331B78002B07D1B0
:103E3000039B002B04D198235B051F43039B3B701E
:103E4000236B002B04D06A4608211078626B9847D8
:103E5000A37D002B04D0200008211830FEF745FF79
:103E600000236360E3602375CDE71023019A13708C
:103E7000236B002B04D06A4602211078626B9847AE
:103E80006368002B50D028008022E3680C30520574
:103E90001978024310780028FCD029710133E360BF
:103EA0006368013B63606368002BACD1E3602375FA
:103EB000236B002BA7D06A4610211078626B53E762
:103EC0002B79A268DBB2002A2CD0226913702369F7
:103ED00001332361A368013BA360A368002B00D0DA
:103EE00091E7039B002B11D123002C331B78002B6F
:103EF00004D198235B051F43039B3B70E37D002B9C
:103F000004D0200020211830FEF7EFFE0023637557
:103F10002361236B002B00D175E76A4620211078BE
:103F2000626B21E7072343E7062341E7746500003E
:103F30000C020020042902D0072907D070479023E3
:103F400003305B05184310230370F7E79C2303300D
:103F50005B0518438023F7E7DC2270B50024094B8A
:103F60008000C558084B5205C35808331A431460E3
:103F7000AA7CA24203D028001430FEF7A4FE2C74C1
:103F800070BDC046100200207C6500000C4B800014
:103F900070B5C5580B4B0024C058D42302005B05F4
:103FA000083213431C602200074900F05CFEEB7CE2
:103FB000A34203D028002030FEF785FE6C7470BD4C
:103FC000100200207C6500001B000200F8B52B4A9F
:103FD00083009C580600227C002A02D1627C002AC1
:103FE0003ED0274AD558DC232F005B051A0008373E
:103FF0003A431268002A15D02A1D13431B68002B70
:1040000010D0A368002B0DD023681A780133EA6022
:104010002360A368013BA360A368002B02D130009A
:10402000FFF79AFFD4235B051F433A68002A0DD09F
:104030002A1D13431B68002B08D0EB6862681370BD
:10404000E36A002B0DD021003000984728000D496D
:1040500000F04AFE002803D028000A4900F048FE7C
:10406000F8BD636801336360E368013BE360E368C4
:10407000002BEBD13000FFF789FFE7E710020020AB
:104080007C6500001300010084225205024312786F
:104090000300D0B2002A0CD0802001334005034336
:1040A0001878013843425841024B40421840024BB5
:1040B000C0187047808D5B0080841E00020070B5C0
:1040C000074B083213431C78064B103213431D78FC
:1040D000FFF7DAFFEDB2E4B26419E04070BDC0460C
:1040E000000090100000101010B50D4B821D1343FE
:1040F0001A780400D3B2002A0FD0012B07D1FFF7A2
:10410000C3FF084B08341C432378D84010BD00205F
:10411000022BFBD1044B1868F8E70448F6E7C046C9
:10412000000008110000901014020020006CDC0256
:104130000C4A811D0A4312780300D0B2012A04D030
:1041400002280BD000280BD1704780220133520582
:1041500013431B78002BF7D10220F5E70320F3E788
:104160000520F1E70000081102009C2318325B05CE
:10417000134380221A700022064B03431A70064B29
:10418000063018430378DAB2002BFBD1034B100042
:104190000B6070470000081300000811006CDC027F
:1041A000F8B504000D0016001F00FFF7C1FF01283D
:1041B00023D1002D25D08023621C5B0513431D7085
:1041C000842302225B0523431A702200104B08321D
:1041D00013437200D2B21A7040220E4B0E48234392
:1041E00006341A7004432378012BFCD1002D0DD125
:1041F0000A4B334100203B60F8BD0228DBD1012D82
:10420000D9D139002000FFF7AFFFD4E7044BF0E726
:1042100000009010000008130000081180841E00A8
:1042200000127A0010B50A4C030022680120002A0F
:104230000CD0084A7F301A431070074806330343F6
:104240001A78022AFCD1002023680B6010BDC046FA
:104250001402002000000813000008119C23C9016B
:104260005B050343C9B2197070479C235B05034388
:104270001878431E9841C0B27047942349015B05EA
:104280000343C9B21970704770B506680C0030005E
:104290002049FCF76FFC1F4905003000FCF7F0FCDB
:1042A0000E00E12130000901FCF764FCE121E0800F
:1042B00009013000FCF7E4FC0E003C213000FCF763
:1042C00059FC3C2120813000FCF7DAFC6E22A172FF
:1042D0000321114BFF322380238895420AD80F49CE
:1042E0009B0700D10E490123CA5CAA420CD363800C
:1042F000A58070BD01339BB223800B40AD1A5A429A
:104300005A416E32FF32E7E70133AD1A0D2BEBD184
:10431000EEE7C04680510100B2070000A86500002A
:10432000806500000188114A03008A18002030B51A
:10433000812A17D85A88541E0B2C13D89C88651EC6
:104340001E2D0FD8DD88172D0CD81D893B2D09D8BF
:104350009B7A3B2B06D88B0705D0054B9B5CA34271
:104360004041C0B230BD034BF8E7C0464EF8FFFFF6
:10437000A86500008065000070B5134D8388028831
:104380005B196E25FF35554344885B1995085B1909
:104390000E4D6600755B5B19920710D00B600A68C2
:1043A0000B4BC4885343827A00899B18E122120187
:1043B00062439B183C2242439B180B6070BD022C49
:1043C000ECD8013BEAE7C0464A05F5FF8E650000E0
:1043D000805101008023084A1B0212689A4209D1C9
:1043E000A02310305B0518430368002B02D1013372
:1043F000FF3303607047C046140200200100802292
:1044000010B5002301245205103111430C600B60DC
:1044100090214360490504601C3001430B608821F2
:10442000490501430B6084214905014310430B609A
:10443000036010BD0200902314325B051343002279
:104440001A604260103201601A60704703680B60A6
:1044500070470000104B820070B5D55880220400D0
:104460000E4B92051A602800FFF7C8FF2800FFF7DF
:10447000B1FF0B4B1F261A5D01231800094932407A
:10448000095DC025314090408B40074A6D00505176
:1044900053511060136070BDB86500003C80845EAD
:1044A000BC650000BD65000000E100E0F7B5002735
:1044B000114B8000C55808000E000197FFF732FF2E
:1044C0000400B84216D001A93000FFF755FF3800AC
:1044D000FEF73AFE010080200002814206D0FCF780
:1044E00049FB01000198FCF745FB01902800019968
:1044F000FFF7A0FF2000FEBDB8650000F7B500255E
:10450000124B8000C4580E00200001A90195FFF74E
:104510009DFF2800FEF718FE05008020000285425E
:104520000ED00B4B290004341C43FCF723FB2768F7
:10453000019C29004443B8B2FCF71CFB24180194E9
:10454000310001A8FFF7A0FEF7BDC046B865000026
:1045500000007810F0B50027184B800085B0C558D2
:1045600008000E0001920397FFF7DCFE0400B8423A
:1045700003D10024200005B0F0BD300003A9FFF7EF
:10458000FBFE38002E68FEF7DFFD010080200002F0
:10459000814206D0FCF7EEFA01000398FCF7EAFA34
:1045A0000390039BB342E4D3AB6088231C355B05C7
:1045B0001D43019B9A002A60DCE7C046B8650000F5
:1045C000044B8000C25888231C325B0513438900CA
:1045D00019607047B8650000054B8000C2588823F9
:1045E00014325B0513431868431E9841C0B27047EC
:1045F000B86500006B46E0221B78D2021B04134012
:10460000024A09070B4380180360704744100000FA
:10461000084B8200D258902310B503325B05134338
:104620001B78002B02D000F013F910BD00F078F9D0
:10463000FBE7C046C06500009C210C4B0C4A800083
:10464000C3588258002003324905114310B5187130
:104650000870942149050A4310701A7F824203D0E2
:1046600020331800FEF72FFB10BDC0461C020020AF
:10467000C0650000F7B50C0005001B4B302200217F
:1046800087002000FE58FCF729F82800FEF7C9FD36
:10469000FEF728FD2060300000F080FB20000021A4
:1046A0002030FEF709FBF31C01939023F21C5B05FD
:1046B0001343102230001A70032100F0ADFB3000CC
:1046C000002100F0CEFB094BFC50094B5A5D1F2323
:1046D0001A401E3B9340074A13609823019A5B05DA
:1046E000134340221A70F7BDC06500001C02002071
:1046F000C465000000E100E0F8B50D4E85000D4BEB
:10470000AF590400E85800F049FB38002030FEF7AC
:10471000EAFA094B20001A5D1F231A401E3B934002
:10472000064AD367FEF782FD0023AB51F8BDC046B1
:104730001C020020C0650000C465000004E100E028
:104740000A4B800070B5C658094B0C00C3581500C1
:1047500030001A68096800F028FB2860A37930004F
:104760006279217900F06AFB70BDC046C065000027
:104770001C020020F7B51E4A83009C5805002279D0
:104780000420002A16D11B4A9E58002903D0280075
:1047900001AAFFF7D5FF982300214020F21C5B05FA
:1047A00013431970187027698F4204D12800FFF74E
:1047B00043FF0020FEBD0123237194235B05A1610B
:1047C00033431B780720002BF4D0A368191E02D0B6
:1047D00019780133A360B1712369013B2361A36997
:1047E0000133A3619C235B051A4380231370E0E728
:1047F0001C020020C0650000F8B5134F134C850063
:104800002C59ED590127069E2777A2602661E360A7
:104810006661FFF7AFFF002814D120000799203010
:10482000FEF794FA0328F8D000280BD09C2300222E
:1048300003355B052B4322711A70942303205B051B
:104840001D432A70F8BDC046C06500001C02002050
:1048500010B51E4B8200D3581979002934D01C4959
:1048600051585A69002A11D09C2252050A431278E5
:10487000002A0BD08A79DC68D2B2002C03D02270D7
:10488000DA680132DA605A69013A5A611A69002A13
:1048900012D0942252050A431278002A0CD09A684A
:1048A000141E02D0147801329A608C711A69013A90
:1048B0001A619A6901329A611A69002A04D15B6906
:1048C000002B01D1FFF7B8FE10BDC0461C0200202E
:1048D000C0650000104A8000815800220F4B10B5BF
:1048E000C3580331581CC2779C2040050843DA6244
:1048F0001A701A835A629A621A63027094204005F1
:1049000001430A701A0038321278002A03D00121BC
:10491000181DFEF7EAF910BDC06500001C0200205A
:1049200070B5254B8200D358591CC97F002942D04D
:1049300022495258D96A002917DB942149051143AD
:104940000978002911D0D969CCB2596A002905D05B
:10495000DD6A002D02DD0C78013159629471D96A4B
:104960000139D962596B01315963D96A002905DAD5
:104970009421D41C4905214300240C70196B002993
:1049800011DD9C2149051143097800290BD092794A
:10499000996AD2B2002903D00A709A6A01329A62E7
:1049A0001A6B013A1A63DA6A002A04DC1B6B002BCB
:1049B00001DCFFF78FFF70BD1C020020C065000006
:1049C000012903D0032909D00020704794235B05F7
:1049D00018430078431E9841C0B2F6E78423F6E7F7
:1049E000431C034849011843C9B201707047C046CF
:1049F00000008812831C9420490140051843C9B265
:104A000001707047831C034889011843C9B20170C3
:104A10007047C04600000813831C8C20C900400565
:104A20001843C9B201707047F7B50400364EE31C55
:104A30001E43337808780D00DBB2072860D8FCF7F6
:104A40007BF804192B0E192B2B45304B01341C43DA
:104A5000002323703378012BFCD10020FEBD012BF5
:104A6000FCD12A4B01341C43402323703378042BA0
:104A7000FCD1F2E70021012801D004200231337873
:104A800098423FD12000FFF7ABFF0421204A136971
:104A90008B43136130BFE0E70227B84207D10027FC
:104AA0000B79BB4203D020004979FFF7ABFF194BCC
:104AB00001341C4327703378154ADBB20193019B04
:104AC00001330193042311690B43E2E70421114BE5
:104AD000621C1A4311706A78A11C0B431A70002AD9
:104AE00006D1AB78002B03D02000E978FFF782FFD6
:104AF000AB79002BDFD02000E979FFF78DFFDAE7F3
:104B00000120ABE70320A9E7000030100000881265
:104B100000ED00E000001010C31C024818430078AC
:104B2000C0B2704700003010012314308B40012ABE
:104B300004D1802212051043036070478022D20402
:104B4000DB431043F8E701238B40002A01D0436088
:104B500070478360FCE70023C222037043708370B8
:104B6000C37043718371C371037242728372C372E3
:104B700070470000F0B5002487B00293FA230126A5
:104B8000270025009B005343039004910093019458
:104B90007642AB000593194BAA009B1859880498DC
:104BA000A140FBF7E7FF009B009AC31A824200D99D
:104BB000131AB3421FD2114AA900525C2700019276
:104BC000002B02D00135322D13D10134032C01D03A
:104BD000002B0DD1029A002A00D013603F220199C8
:104BE000BB0111400B43039ADBB2537007B0F0BD19
:104BF00000251E00CDE73300E4E7C046DE65000077
:104C0000942302305B0503431B78002B05D08823D7
:104C10005B05184304230370704780231B0518436A
:104C20003023F8E7942210B55205841C22431178F2
:104C30000300CAB2022001290DD18021C9042143F9
:104C40008024CD300870E400033319784909080046
:104C50001040114200D110BD013C002C01D0C046D3
:104C6000F3E70920F7E7012310B58B400400080C97
:104C700004280AD8FBF760FF030E14171A008020DF
:104C8000002A03D000050443236010BDC004DB43A9
:104C90000443F9E7201D8024002A0AD02405F2E706
:104CA00020000830F7E720000C30F4E72000103037
:104CB000F1E7E404EBE70200002300B5080C042848
:104CC00008D80133FBF738FF03080A0C0E00106800
:104CD000C8400340180000BD5068F9E79068F7E746
:104CE000D068F5E71069F3E710B5FFF7E4FF10BDF2
:104CF000294A0300881800B510284BD8FBF71CFF81
:104D0000433C27201912094A4A4A4A2E4A4A4A4A2B
:104D10003500D02080220433400503435203002095
:104D20001A6000BDCC2080220433400503431203E7
:104D3000F5E7C8208022043340050343D202EEE7A2
:104D4000C42080220433400503439202E7E7C020D9
:104D500080220433400503435202E0E7FC20802216
:104D60000433400503431206D9E7F82080220433B8
:104D700040050343D205D2E7BC208022043340051E
:104D800003431202CBE7B8208022043340050343DB
:104D9000D201C4E70320C4E7F2FFFEFF0423C3707F
:104DA00000238370437003717047F0B5130B89B013
:104DB0000126039308230124764202939B1907904E
:104DC00004910592019302270025631E069321009A
:104DD00005987943FBF7CEFE049B834207D31B1A49
:104DE000B34204D21E00069B039002950193013545
:104DF0007F00092D01D0002EE9D1082C02D001340A
:104E0000002EE0D1019B029A1B0103981343079ADD
:104E1000DBB2537009B0F0BD842310B50224C21C6C
:104E20005B0513434A0022401A70902300195B056A
:104E300018431023C9001940017010BD10B58C240F
:104E400003306405C9000443C9B22170882192006F
:104E500049050143D2B20A70802252051043037003
:104E600010BD8023012202305B0503430A401A7003
:104E70008C235B0518430823890019400170704793
:104E800004FEFF1F1B5B306D1B5B343B34336D1B1B
:104E90005B313B33376D0D53616E69747920636804
:104EA00065636B206661696C6564211B5B306D0A0C
:104EB000001B5B306D1B5B343B34316D1B5B313B46
:104EC00033376D0D496E76616C696420737570704F
:104ED0006C7920766F6C74616765205B25645D205A
:104EE0006D56211B5B306D0A0077617270536574DB
:104EF0004C6F77506F7765724D6F6465286B5761A3
:104F00007270506F7765724D6F6465564C50532CBC
:104F10002030202F2A20736C656570207365636FC5
:104F20006E6473203A20697272656C6576616E7486
:104F30002068657265202A2F292829206661696CFE
:104F400065642E2E2E0A000D0A0A0A0A5B202A0921
:104F500009090957617270202848572072657669DF
:104F600073696F6E204329202F20476C617578206C
:104F7000284857207265766973696F6E2042290947
:104F800009092A205D0A000D5B2020090909092072
:104F9000202020202043616D627269646765202FA4
:104FA0002050687973636F6D706C616220202009F6
:104FB00009090920205D0A0A000D09537570706CFB
:104FC000793D25646D562C0944656661756C7420C5
:104FD0005461726765742052656164205265676927
:104FE000737465723D3078253032780A000D0949B6
:104FF00032433D25646B622F732C095350493D2584
:10500000646B622F732C09554152543D2564622F05
:10501000732C094932432050756C6C2D55703D2519
:10502000640A0A000D0953494D2D3E534347433648
:105030003D30782530327809095254432D3E535281
:105040003D30782530327809095254432D3E54536F
:10505000523D3078253032780A000D094D43475FC4
:1050600043313D3078253032780909094D43475F97
:1050700043323D30782530327809094D43475F533C
:105080003D3078253032780A000D094D43475F5393
:10509000433D3078253032780909094D43475F4D4B
:1050A000433D30782530327809094F53435F4352EE
:1050B0003D3078253032780A000D09534D435F505A
:1050C0004D50524F543D30782530327809090953FC
:1050D0004D435F504D4354524C3D3078253032782B
:1050E00009095343422D3E5343523D307825303217
:1050F000780A000D09504D435F52454753433D30F8
:10510000782530327809090953494D5F53434743A5
:10511000343D307825303278095254432D3E545076
:10512000523D3078253032780A0A000D0925647323
:1051300020696E205254432048616E646C65722071
:10514000746F2D646174652C09256420506D67723D
:10515000204572726F72730A000D09307825303263
:1051600078202D2D3E205B30782530327820307825
:1051700025303278203078253032785D0A000D09EC
:10518000307825303278202D2D3E20307825303271
:10519000780A000D09307825303278202D2D3E20F8
:1051A0002D2D2D2D0A000D0A0925642F256420734D
:1051B00075636365737320726174652E0A000D094F
:1051C00025642F256420737563636573736573208D
:1051D0006D617463686564207265662E2076616C0B
:1051E0007565206F66203078253032782E0A000DE4
:1051F0000925642062616420636F6D6D616E647364
:105200002E0A0A000A0A0A0D426F6F74696E67203F
:10521000576172702C20696E20332E2E2E200032A2
:105220002E2E2E2000312E2E2E0A0A0A0D0041624B
:105230006F757420746F20737769746368204350AE
:105240005520746F20564C5052206D6F64652E2E81
:105250002E2000776172705365744C6F77506F77B2
:1052600065724D6F6465286B57617270506F77651A
:10527000724D6F6465564C50522829206661696CE6
:1052800065642E2E2E0A00646F6E652E0A0D004195
:10529000626F757420746F204750494F5F445256B7
:1052A0005F496E697428292E2E2E200041626F7589
:1052B0007420746F206C6F77506F77657250696ED1
:1052C00053746174657328292E2E2E2000426F6F4F
:1052D0007420646F6E652E0A000D53656C656374EF
:1052E0003A0A000D2D202761273A20736574206447
:1052F000656661756C742073656E736F722E0A003B
:105300000D2D202762273A207365742049324320EF
:105310006261756420726174652E0A000D2D20276C
:1053200063273A2073657420535049206261756485
:1053300020726174652E0A000D2D202764273A2003
:105340007365742055415254206261756420726106
:1053500074652E0A000D2D202765273A2073657489
:105360002064656661756C74207265676973746525
:105370007220616464726573732E0A000D2D2027FC
:1053800066273A20777269746520627974652074A3
:105390006F2073656E736F722E0A000D2D202767C4
:1053A000273A207365742064656661756C74207398
:1053B000656E736F7220737570706C7920766F6C88
:1053C000746167652E0A000D2D202768273A20702A
:1053D0006F776572646F776E20636F6D6D616E6459
:1053E00020746F20616C6C2073656E736F72732E06
:1053F0000A000D2D202769273A20736574207075E7
:105400006C6C2D757020656E61626C652076616CC8
:1054100075652E0A000D2D20276A273A20726570C7
:10542000656174207265616420726567203078253B
:10543000303278206F6E2073656E736F7220232573
:10544000642E0A000D2D20276B273A20736C6565AA
:105450007020756E74696C2072657365742E0A0015
:105460000D2D20276C273A2073656E6420726570BD
:1054700065617465642062797465206F6E204932BD
:10548000432E0A000D2D20276D273A2073656E6488
:105490002072657065617465642062797465206F3F
:1054A0006E205350492E0A000D2D20276E273A20DA
:1054B000656E61626C652073656E736F72207375C3
:1054C00070706C7920766F6C746167652E0A000DC0
:1054D0002D20276F273A2064697361626C65207301
:1054E000656E736F7220737570706C7920766F6C57
:1054F000746167652E0A000D2D202770273A2073EE
:10550000776974636820746F20564C5052206D6F19
:1055100064652E0A000D2D202772273A20737769C3
:1055200074636820746F2052554E206D6F64652E31
:105530000A000D2D202773273A20706F776572209F
:10554000757020616C6C2073656E736F72732E0AB8
:10555000000D2D202774273A2064756D702070721D
:105560006F636573736F722073746174652E0A00C4
:105570000D2D202775273A2073657420493243206A
:10558000616464726573732E0A000D2D20277827DD
:105590003A2064697361626C652053574420616EE0
:1055A00064207370696E20666F72203130207365DD
:1055B00063732E0A000D2D20277A273A207065721A
:1055C00070657475616C6C792064756D7020616CA8
:1055D0006C2073656E736F7220646174612E0A00B3
:1055E0000D456E7465722073656C656374696F6ECA
:1055F0003E20000D0953656C6563743A0A000D097D
:105600002D20273127204144584C333632090909CF
:1056100028307830302D2D30783244293A20312E00
:105620003656202D2D20332E35562028636F6D7071
:10563000696C6564206F757429200A000D092D209E
:1056400027322720424D58303535616363656C2021
:10565000090928307830302D2D30783346293A200A
:10566000322E3456202D2D20332E36562028636FAF
:105670006D70696C6564206F757429200A000D09CE
:105680002D2027332720424D583035356779726FEA
:1056900009090928307830302D2D30783346293AE1
:1056A00020322E3456202D2D20332E3656202863BE
:1056B0006F6D70696C6564206F757429200A000D28
:1056C000092D2027342720424D583035356D61672C
:1056D00009090928307834302D2D30783532293AAF
:1056E00020322E3456202D2D20332E36562028637E
:1056F0006F6D70696C6564206F757429200A000DE8
:10570000092D20273527204D4D4138343531510999
:10571000090928307830302D2D30783331293A205E
:10572000312E393556202D2D20332E36560A000DB8
:10573000092D20273627204C5053323548090909B6
:1057400028307830382D2D30783234293A20312ED7
:105750003756202D2D20332E36562028636F6D703E
:10576000696C6564206F757429200A000D092D206D
:10577000273727204D414733313130090909283077
:105780007830302D2D30783131293A20312E39358D
:1057900056202D2D20332E36562028636F6D7069CC
:1057A0006C6564206F757429200A000D092D20276F
:1057B00038272048444331303030090909283078EF
:1057C00030302D2D30783146293A20332E30562076
:1057D0002D2D20352E30562028636F6D70696C6535
:1057E00064206F757429200A000D092D20273927A0
:1057F0002053493730323109090928307830302DAB
:105800002D30783046293A20312E3956202D2D2042
:10581000332E36562028636F6D70696C6564206F77
:10582000757429200A000D092D20276127204C338B
:10583000474432304809090928307830462D2D3048
:10584000783339293A20322E3256202D2D20332E0E
:1058500036562028636F6D70696C6564206F7574AF
:1058600029200A000D092D2027622720424D4536A8
:10587000383009090928307841412D2D30784638D3
:10588000293A20312E3656202D2D20332E36562003
:1058900028636F6D70696C6564206F757429200AC8
:1058A000000D092D20276427205443533334373209
:1058B0003509090928307830302D2D3078314429C8
:1058C0003A20322E3756202D2D20332E33562028C5
:1058D000636F6D70696C6564206F757429200A00B0
:1058E0000D092D2027652720534934373035090904
:1058F00009286E2F61293A202020202020202032E4
:105900002E3756202D2D20352E35562028636F6DCD
:1059100070696C6564206F757429200A000D092D6B
:10592000202767272043435338313109090928309C
:105930007830302D2D30784646293A20312E385691
:10594000202D2D20332E36562028636F6D70696C04
:105950006564206F757429200A000D092D202768C1
:105960002720414D47383833340909092830783029
:10597000302D2D3F293A20332E3356202D2D203324
:105980002E33562028636F6D70696C6564206F75C7
:105990007429200A000D092D20276A27204153373A
:1059A00032363209090928307830302D2D307832DE
:1059B00042293A20322E3756202D2D20332E3656AE
:1059C0002028636F6D70696C6564206F7574292081
:1059D0000A000D092D20276B27204153373236331B
:1059E00009090928307830302D2D30783242293A93
:1059F00020322E3756202D2D20332E365620286368
:105A00006F6D70696C6564206F757429200A000DD4
:105A100009456E7465722073656C656374696F6E99
:105A20003E20000D09496E76616C69642073656CD7
:105A3000656374696F6E202725632720210A000D96
:105A40000A095365742049324320626175642072EB
:105A500061746520696E206B6270732028652E6703
:105A60002E2C20273030303127293E20000D0A0906
:105A700049324320626175642072617465207365E8
:105A80007420746F202564206B622F73000D0A0947
:105A900053657420535049206261756420726174AB
:105AA0006520696E206B6270732028652E672E2C2E
:105AB00020273030303127293E20000D0A0953506D
:105AC00049206261756420726174653A2025642002
:105AD0006B622F73000D0A095365742055415254AF
:105AE0002062617564207261746520696E206B624A
:105AF00070732028652E672E2C20273030303127F8
:105B0000293E20000D0A09554152542062617564F6
:105B100020726174653A202564206B622F73000D3A
:105B20000A09456E74657220322D6E7962626C6569
:105B30002072656769737465722068657820616496
:105B400064726573732028652E672E2C20273365B9
:105B500027293E20000D0A09456E74657265642090
:105B60005B3078253032785D2E0A0A000D0A09452F
:105B70006E7465722049324320616464722E20285D
:105B8000652E672E2C202730662729206F7220274C
:105B900039392720666F7220535049203E20000D6E
:105BA0000A09456E7465726564205B307825303271
:105BB000785D2E0A000D0A09456E746572206865CD
:105BC00078206279746520746F2073656E64202874
:105BD000652E672E2C2027306627293E20000D0ACF
:105BE00009535049207772697465206661696C6554
:105BF000642E204144584C3336322044697361622C
:105C00006C6564000D0A0949324320777269746536
:105C1000206661696C65642C206572726F72202544
:105C2000642E0A0A000D0A094F766572726964656E
:105C30002073656E736F7220737570706C79207647
:105C40006F6C7461676520696E206D562028652E23
:105C5000672E2C20273138303027293E20000D0AAE
:105C6000094F766572726964652073656E736F7231
:105C700020737570706C7920766F6C746167652025
:105C800073657420746F202564206D56000D0A0919
:105C90004E4F54453A20466972737420706F776591
:105CA000722073656E736F727320616E6420656E0F
:105CB00061626C65204932430A0A000D09506F7712
:105CC0006572646F776E20636F6D6D616E642061C5
:105CD00062616E646F6E65642E20424D58303535BA
:105CE0002064697361626C65640A000D09506F7706
:105CF0006572646F776E20636F6D6D616E64206195
:105D000062616E646F6E65642E204C33474432309E
:105D1000482064697361626C65640A000D09506F04
:105D2000776572646F776E20636F6D6D616E64204E
:105D30006162616E646F6E65642E20544353333428
:105D40003732352064697361626C65640A000D0A3C
:105D5000094175746F2D696E6372656D656E74208F
:105D600066726F6D20626173652061646472657331
:105D700073203078253032783F205B273027207C15
:105D8000202731275D3E20000D0A094368756E6BA0
:105D9000207265616473207065722061646472654D
:105DA00073732028652E672E2C20273127293E204B
:105DB000000D0A094368617474793F205B2730271E
:105DC000207C202731275D3E20000D0A09496E7492
:105DD00065722D6F7065726174696F6E2073706982
:105DE0006E2064656C617920696E206D696C6C69E8
:105DF0007365636F6E64732028652E672E2C2027D1
:105E00003030303027293E20000D0A095265706578
:105E1000746974696F6E7320706572206164647256
